:020000023000CC
:1000000000F003202102030065020300E94A030017
:1000100069020300954B0300D94B03000000000068
:100020000000000000000000000000008908080037
:100030007102030000000000A9080800C1090800BF
:10004000D9AB070077020300F1D80700C1D707003A
:100050000DD807001597070051A6070055AC0700FB
:10006000D1C50700E5C50700F9C507007702030001
:100070007702030055D507007702030077020300DB
:100080003DC4070041B50700A5D60700A5D8070065
:1000900099D607009FD60700E5E90700770203001D
:1000A00077020300770203000DC6070021C6070090
:1000B000659F07000DD2070000000000000000004F
:1000C00077020300759F0700859F070059D8070036
:1000D000E96F04009DBD070077020300098807004F
:1000E000D15C0400B1BC0700BD2B0900000000007A
:1000F00000000000959F070000000000F19007003D
:1001000000000000000000000000000000000000EF
:1001100000000000000000000000000000000000DF
:1001200000000000000000000000000000000000CF
:1001300000000000000000000000000000000000BF
:1001400000000000000000000000000000000000AF
:10015000000000000000000000000000000000009F
:10016000000000000000000000000000000000008F
:10017000000000000000000000000000000000007F
:10018000000000000000000000000000000000006F
:10019000000000000000000000000000000000005F
:1001A000000000000000000000000000000000004F
:1001B000000000000000000000000000000000003F
:1001C000000000000000000000000000000000002F
:1001D000000000000000000000000000000000001F
:1001E000000000000000000000000000000000000F
:1001F00000000000000000000000000000000000FF
:10020000000003004CB70C000000DB070C000300EB
:080210000000000000000000E6
:100220000C490D4A0D4B9B1A03DD043BC858D050B6
:10023000FBDC0A490A4A0020521A02DD043A8850BF
:10024000FCDC4DF0FDFB04F06DFD0DF0D9FA04F07F
:10025000D5FE0000ACAC0C00005E00205067002012
:10026000F8920120FEE7FEE7FEE7FEE7FEE7FEE785
:10027000FEE7FEE7FEE7FEE781F0004102E000BF97
:1002800083F0004330B54FEA41044FEA430594EA56
:10029000050F08BF90EA020F1FBF54EA000C55EA91
:1002A000020C7FEA645C7FEA655C00F0E2804FEA62
:1002B0005454D4EB5555B8BF6D420CDD2C4480EA44
:1002C000020281EA030382EA000083EA010180EA74
:1002D000020281EA0303362D88BF30BD11F0004FC2
:1002E0004FEA01314FF4801C4CEA113102D04042F8
:1002F00061EB410113F0004F4FEA03334CEA133333
:1003000002D0524263EB430394EA050F00F0A7804A
:10031000A4F10104D5F1200E0DDB02FA0EFC22FA45
:1003200005F2801841F1000103FA0EF2801843FA39
:1003300005F359410EE0A5F120050EF1200E012A2A
:1003400003FA0EFC28BF4CF0020C43FA05F3C01868
:1003500051EBE37101F0004507D54FF0000EDCF1E1
:10036000000C7EEB00006EEB0101B1F5801F1BD38A
:10037000B1F5001F0CD349085FEA30004FEA3C0C8E
:1003800004F101044FEA445212F5800F80F09A8084
:10039000BCF1004F08BF5FEA500C50F1000041EB88
:1003A000045141EA050130BD5FEA4C0C404141EB8C
:1003B0000101013C28BFB1F5801FE9D291F0000F87
:1003C00004BF01460020B1FA81F308BF2033A3F136
:1003D0000B03B3F120020CDA0C3208DD02F1140C2D
:1003E000C2F10C0201FA0CF021FA02F10CE002F168
:1003F0001402D8BFC2F1200C01FA02F120FA0CFC61
:10040000DCBF41EA0C019040E41AA2BF01EB0451A9
:10041000294330BD6FEA04041F3C1CDA0C340EDCA7
:1004200004F11404C4F1200220FA04F001FA02F3EA
:1004300040EA030021FA04F345EA030130BDC4F1A8
:100440000C04C4F1200220FA02F001FA04F340EA9D
:100450000300294630BD21FA04F0294630BD94F04E
:10046000000F83F4801306BF81F480110134013D35
:100470004EE77FEA645C18BF7FEA655C29D094EAA6
:10048000050F08BF90EA020F05D054EA000C04BF24
:100490001946104630BD91EA030F1EBF002100200F
:1004A00030BD5FEA545C05D14000494128BF41F0AE
:1004B000004130BD14F580043CBF01F5801130BD12
:1004C00001F0004545F0FE4141F470014FF000009D
:1004D00030BD7FEA645C1ABF194610467FEA655C4E
:1004E0001CBF0B46024650EA013406BF52EA0335F0
:1004F00091EA030F41F4002130BD00BF90F0000FDE
:1005000004BF0021704730B54FF4806404F1320419
:100510004FF000054FF0000150E700BF90F0000FD2
:1005200004BF0021704730B54FF4806404F13204F9
:1005300010F0004548BF40424FF000013EE700BFC9
:1005400042004FEAE2014FEA31014FEA02701FBF59
:1005500012F07F4393F07F4F81F06051704732F08B
:100560007F4208BF704793F07F4F04BF41F40021E2
:10057000704730B54FF4607401F0004521F0004140
:100580001CE700BF50EA010208BF704730B54FF0CA
:1005900000050AE050EA010208BF704730B511F0CB
:1005A000004502D5404261EB41014FF4806404F103
:1005B00032045FEA915C3FF4D8AE4FF003025FEA89
:1005C000DC0C18BF03325FEADC0C18BF033202EB0D
:1005D000DC02C2F1200300FA03FC20FA02F001FA67
:1005E00003FE40EA0E0021FA02F11444BDE600BF0A
:1005F00070B54FF0FF0C4CF4E06C1CEA11541DBFB9
:100600001CEA135594EA0C0F95EA0C0F00F0DEF883
:100610002C4481EA030621EA4C5123EA4C5350EA68
:10062000013518BF52EA033541F4801143F48013B9
:1006300038D0A0FB02CE4FF00005E1FB02E506F04A
:100640000042E0FB03E54FF00006E1FB03569CF09F
:10065000000F18BF4EF0010EA4F1FF04B6F5007FA5
:1006600064F5407404D25FEA4E0E6D4146EB060617
:1006700042EAC62141EA55514FEAC52040EA5E50A0
:100680004FEACE2EB4F1FD0C88BFBCF5E06F1ED84A
:10069000BEF1004F08BF5FEA500E50F1000041EB81
:1006A000045170BD06F0004646EA010140EA02002E
:1006B00081EA0301B4EB5C04C2BFD4EB0C0541EA50
:1006C000045170BD41F480114FF0000E013C00F365
:1006D000AB8014F1360FDEBF002001F0004170BD89
:1006E000C4F10004203C35DA0C341BDC04F11404A2
:1006F000C4F1200500FA05F320FA04F001FA05F22E
:1007000040EA020001F0004221F0004110EBD370FA
:1007100021FA04F642EB06015EEA430E08BF20EA26
:10072000D37070BDC4F10C04C4F1200500FA04F3C9
:1007300020FA05F001FA04F240EA020001F000415B
:1007400010EBD37041F100015EEA430E08BF20EACE
:10075000D37070BDC4F1200500FA05F24EEA020E16
:1007600020FA04F301FA05F243EA020321FA04F045
:1007700001F0004121FA04F220EA020000EBD370FC
:100780005EEA430E08BF20EAD37070BD94F0000FFC
:100790000FD101F00046400041EB010111F4801F30
:1007A00008BF013CF7D041EA060195F0000F18BFE1
:1007B000704703F00046520043EB030313F4801F1D
:1007C00008BF013DF7D043EA0603704794EA0C0FD7
:1007D0000CEA135518BF95EA0C0F0CD050EA4106ED
:1007E00018BF52EA4306D1D181EA030101F000416A
:1007F0004FF0000070BD50EA410606BF1046194692
:1008000052EA430619D094EA0C0F02D150EA01369D
:1008100013D195EA0C0F05D152EA03361CBF1046DE
:1008200019460AD181EA030101F0004141F0FE417D
:1008300041F470014FF0000070BD41F0FE4141F401
:10084000780170BD70B54FF0FF0C4CF4E06C1CEA01
:1008500011541DBF1CEA135594EA0C0F95EA0C0FB6
:1008600000F0A7F8A4EB050481EA030E52EA033571
:100870004FEA013100F088804FEA03334FF0805592
:1008800045EA131343EA12634FEA022245EA1115BF
:1008900045EA10654FEA00260EF000419D4208BF70
:1008A000964244F1FD0404F5407402D25B084FEA1D
:1008B0003202B61A65EB03055B084FEA32024FF4C9
:1008C00080104FF4002CB6EB020E75EB030E22BF26
:1008D000B61A754640EA0C005B084FEA3202B6EBE6
:1008E000020E75EB030E22BFB61A754640EA5C0095
:1008F0005B084FEA3202B6EB020E75EB030E22BF25
:10090000B61A754640EA9C005B084FEA3202B6EB25
:10091000020E75EB030E22BFB61A754640EADC00E4
:1009200055EA060E18D04FEA051545EA16754FEA46
:1009300006164FEAC30343EA52734FEAC2025FEA64
:100940001C1CC0D111F4801F0BD141EA00014FF0F3
:1009500000004FF0004CB6E711F4801F04BF0143C4
:100960000020B4F1FD0C88BFBCF5E06F3FF6AFAEE0
:10097000B5EB030C04BFB6EB020C5FEA500C50F170
:10098000000041EB045170BD0EF0004E4EEA1131F3
:1009900014EB5C04C2BFD4EB0C0541EA045170BDFA
:1009A00041F480114FF0000E013C90E645EA060E3E
:1009B0008DE60CEA135594EA0C0F08BF95EA0C0F6C
:1009C0003FF43BAF94EA0C0F0AD150EA01347FF4B4
:1009D00034AF95EA0C0F7FF425AF104619462CE78B
:1009E00095EA0C0F06D152EA03353FF4FDAE1046EE
:1009F000194622E750EA410618BF52EA43067FF43F
:100A0000C5AE50EA41047FF40DAF52EA43057FF4CE
:100A1000EBAE12E74FF0FF3C06E000BF4FF0010CD9
:100A200002E000BF4FF0010C4DF804CD4FEA410C3D
:100A30007FEA6C5C4FEA430C18BF7FEA6C5C1BD00A
:100A400001B050EA410C0CBF52EA430C91EA030F8B
:100A500002BF90EA020F0020704710F1000F91EAE8
:100A6000030F58BF994208BF90422CBFD8176FEAB6
:100A7000E37040F0010070474FEA410C7FEA6C5C84
:100A800002D150EA013C07D14FEA430C7FEA6C5C8B
:100A9000D6D152EA033CD3D05DF8040B704700BFB7
:100AA0008446104662468C461946634600E000BF05
:100AB00001B5FFF7B7FF002848BF10F1000F01BDD7
:100AC0004DF808EDFFF7F4FF0CBF012000205DF8A2
:100AD00008FB00BF4DF808EDFFF7EAFF34BF012027
:100AE00000205DF808FB00BF4DF808EDFFF7E0FFC0
:100AF00094BF012000205DF808FB00BF4DF808ED11
:100B0000FFF7CEFF94BF012000205DF808FB00BF77
:100B10004DF808EDFFF7C4FF34BF012000205DF859
:100B200008FB00BF4FEA410C7FEA6C5C02D150EA3F
:100B3000013C0AD14FEA430C7FEA6C5C02D152EAD5
:100B4000033C02D14FF0000070474FF001007047A6
:100B50004FEA410212F5001215D211D56FF47873E5
:100B6000B3EB625212D94FEAC12343F0004343EA88
:100B7000505311F0004F23FA02F018BF4042704763
:100B80004FF00000704750EA013005D111F00040ED
:100B900008BF6FF0004070474FF00000704700BF83
:100BA0004A0011D212F5001211D20DD56FF47873EC
:100BB000B3EB62520ED44FEAC12343F0004343EA41
:100BC000505323FA02F070474FF00000704750EA8C
:100BD000013002D14FF0FF3070474FF000007047F6
:100BE0004FEA4102B2F1E04324BFB3F5001CDCF14F
:100BF000FE5C0DD901F0004C4FEAC0024CEA507087
:100C0000B2F1004F40EB830008BF20F001007047B5
:100C100011F0804F21D113F13872BCBF01F00040B8
:100C2000704741F480114FEA5252C2F11802C2F1EA
:100C3000200C10FA0CF320FA02F018BF40F001006B
:100C40004FEAC1234FEAD32303FA0CFC40EA0C001D
:100C500023FA02F34FEA4303CCE77FEA625307D15A
:100C600050EA01331EBF4FF0FE4040F44000704791
:100C700001F0004040F0FE4040F40000704700BF2B
:100C800053B94AB9002908BF00281CBF4FF0FF31F3
:100C90004FF0FF3000F0A0B9ADF1080C6DE904CEC3
:100CA00000F038F8DDF804E0DDE9022304B0704715
:100CB000430803F05533C01A830803F0333300F0C0
:100CC0003330184400EB101000F00F3000EB002020
:100CD00000EB0040000E7047D0B50C4B00220646DA
:100CE0000F46FFF785FCFFF75BFF0446FFF706FCA6
:100CF000074B0022FFF77CFC02460B463046394684
:100D0000FFF7BEFAFFF74CFF2146D0BD0000F03DD3
:100D10000000F0412DE9F047089D04468C46002B69
:100D200040F083808A42174647D9B2FA82F242B134
:100D3000C2F1200024FA00F09140974040EA010CF3
:100D400094404FEA1748230CBCFBF8F61FFA87FEC5
:100D500008FB16C143EA014306FB0EF1994209D98B
:100D6000FB1806F1FF3080F01981994240F216819C
:100D7000023E3B445B1AA4B2B3FBF8F008FB10330D
:100D800044EA034400FB0EFEA64509D93C1900F1D4
:100D9000FF3380F00581A64540F2028102383C44D1
:100DA00040EA0640A4EB0E0400261DB1D440002307
:100DB000C5E900433146BDE8F08702B9FFDEB2FA6B
:100DC00082F2002A50D1CB1B4FEA174E1FFA87F848
:100DD0000126B3FBFEFC210C0EFB1C3341EA034150
:100DE00008FB0CF38B4207D979180CF1FF3002D2C3
:100DF0008B4200F2E9808446C91AA3B2B1FBFEF02F
:100E00000EFB101143EA014408FB00F8A04507D986
:100E10003C1900F1FF3302D2A04500F2D9801846F8
:100E2000A4EB080440EA0C40BFE78B4209D9002D2F
:100E300000F0B1800026C5E9000130463146BDE82A
:100E4000F087B3FA83F6002E4AD18B4202D3824256
:100E500000F2B880841A61EB030101208C46002D5A
:100E6000A8D0C5E9004CA5E7C2F1200320FA03F69B
:100E7000974001FA02F04FEA174ED9403043030C75
:100E8000B1FBFEF61FFA87F80EFB161143EA014389
:100E900006FB08F1994204FA02F409D9FB1806F19D
:100EA000FF3C80F08D80994240F28A80023E3B44B4
:100EB0005B1A81B2B3FBFEF00EFB103341EA034133
:100EC00000FB08F38B4207D9791800F1FF3C73D27D
:100ED0008B4271D902383944CB1A40EA064678E78A
:100EE000C6F1200C03FA06F422FA0CF31C4320FA94
:100EF0000CF701FA06F34FEA144E21FA0CF11F43E6
:100F00003B0CB1FBFEF91FFA84F80EFB191143EA02
:100F1000014109FB08FA8A4502FA06F200FA06F3D3
:100F200008D9611809F1FF3048D28A4546D9A9F19C
:100F300002092144A1EB0A01BFB2B1FBFEF00EFB96
:100F4000101147EA014700FB08F8B84507D9E7192F
:100F500000F1FF312ED2B8452CD90238274440EA9F
:100F60000940A7EB0807A0FB02894F45C646494642
:100F70001AD317D05DB1B3EB0E0267EB010707FA86
:100F80000CFCF2404CEA0202F740C5E900270026BB
:100F90003146BDE8F0872E4628460BE70646E9E6CF
:100FA0001846FDE64345E5D2B8EB020E69EB0401B5
:100FB0000138DFE70846D2E760468DE78146B9E7AA
:100FC000664675E730464AE7ACF1020C394413E750
:100FD00002383C4424E700BF704700BF0000000017
:100FE00001F0FF01102A2BDB10F0070F08D010F8DA
:100FF000013B013A8B422DD010F0070F42B3F6D1DE
:10100000F0B441EA012141EA014122F007047FF0F6
:1010100000070023F0E80256083C85EA010586EA4D
:10102000010685FA47F5A3FA87F586FA47F6A5FA89
:1010300087F68EB9EED1F0BC01F0FF0102F0070295
:1010400032B110F8013B013A83EA010313B1F8D140
:101050000020704701387047002D06BF3546033821
:10106000073815F0010F07D1013015F4807F02BF5A
:10107000013015F4C03F0130F0BC0138704700BFAB
:1010800010F8012B11F8013B012A28BF9A42F7D032
:10109000D01A7047034613F8012B002AFBD1181A07
:1010A000013870477BB972B90029BEBF00204FF0EC
:1010B000004106E008BF00281CBF6FF000414FF060
:1010C000FF30FFF789BFADF1080C6DE904CE0029B0
:1010D00009DB002B1ADBFFF71DFEDDF804E0DDE97C
:1010E000022304B07047404261EB4101002B1BDB3F
:1010F000FFF710FEDDF804E0DDE9022304B0404212
:1011000061EB4101524263EB43037047524263EB90
:101110004303FFF7FFFDDDF804E0DDE9022304B03F
:10112000404261EB41017047524263EB4303FFF7DA
:10113000F1FDDDF804E0DDE9022304B0524263EB87
:101140004303704738B50022002304460D46FFF7DD
:10115000C1FC28B920462946BDE83840FFF7BCBD90
:10116000204605F10041FFF7B7FD404261EB410128
:1011700038BD00BF00B1807B704708B1C07B7047AD
:10118000FF20704708B1408970474FF6FF707047E5
:1011900008B1808970474FF6FF7070474268006859
:1011A000101A704700B50D4B5B68C3F308038BB092
:1011B00083B100212023CDE90231094B009302AA1B
:1011C0000B463C202AF004F9064A00210E2029F0A3
:1011D000F9F8FEE70BB05DF804FB00BF00ED00E09E
:1011E00094650B0001EB030007B50191FFF7DAFFEF
:1011F000019803B05DF804EB07F096B907B50191CB
:10120000FFF7D0FF019803B05DF804EB07F06EB86C
:1012100038B502FB01F5FFF7C5FF284607F084F952
:10122000044618B12A4600217DF084F9204638BDD5
:1012300070B515460C46FFF7B5FF2DB9204607F0EF
:1012400055F82E46304670BD284607F06DF9064623
:101250000028F7D0002CF5D02A4621467DF042F92F
:10126000204607F043F8EDE7F8B50D460646FFF7D0
:1012700099FF284603F046FE07F0D2F80C4C206098
:1012800007F0C2F827682062381AE06107F0C2F858
:10129000381A6061284603F063FE0FCC35460FC54F
:1012A0000FCC0FC594E8030085E803003046F8BD75
:1012B0005067002038B504464518AC4207D000F00E
:1012C0006BFD036814F8011B9B689847F5E738BD70
:1012D00010B50446006808B17DF0B4F8204610BD92
:1012E00010B596B000F058FD4FF4165100F02AFDED
:1012F00001F0A4FB01F0ECFB01F0A0FB254A014644
:101300000DA801F025FF0DA801F054FC01F096FB9B
:10131000214A01460DA801F01BFF0DA801F04AFC6F
:101320000DA801F007FA1D4903A801F0AFF803A9C1
:1013300008A801F0ABF808A801F0EEF8044608A8E8
:10134000FCB901F008F90094ADF80A0002230DF190
:101350000A0203210DA801F0A5F901F06FFB00229C
:101360000DA901F0EBFB00210E202FF03FFC002126
:1013700012202FF03BFC002108202FF037FC16B084
:1013800010BD01F0EDF80023009302461023072161
:10139000E0E700BFCC670020C4670020846700201E
:1013A00008B50E202FF046FCFFF7B8F80AA3D3E9E2
:1013B0000023FFF71DF941EC100B7BF0EDFB08A3B8
:1013C000D3E9002351EC100BFFF712F941EC100B9D
:1013D00008BD00BFAFF300807B14AE47E17A643FE5
:1013E000C520B07268F1204008B512202FF022FC11
:1013F000FFF794F841EC100B7BF052FC08A3D3E903
:10140000002351EC100BFFF7F3F807A3D3E90023F7
:10141000FEF736FF41EC100B08BD00BFAFF30080B4
:101420007B14AE47E17258400F0BB5A679C7104048
:1014300008202FF0ECBB00001FB51D49684602F0E4
:1014400064F81C49684602F0DFF8FFF7A9FF684618
:1014500002F0F8F81849684602F0D6F817496846CD
:1014600002F0D2F8FFF7C0FF684602F0EBF814492B
:10147000684602F0C9F8FFF7DBFF01280CBF1149ED
:101480001149684602F0C0F801F0D8FA01F073FB88
:1014900020B10E480022694601F014FA4FF47A7028
:1014A00000F03BFD684601F0E5FF05B05DF804FB88
:1014B000AB650B00B2650B00BA650B00C0650B0095
:1014C000CE650B00D2650B00E4650B00CC670020F5
:1014D000F0B5164691B00022C0E9002204460D4640
:1014E0000BAF194606A800F0D1FF1699384600F058
:1014F000CDFF33788DF81430189B0293179B20464C
:10150000CDE9007305AA06AB294601F0A7FB2046EA
:1015100011B0F0BD2DE9F043324D334BAB600024E8
:1015200091B0324E2C60AC80AC7102201DF062FD97
:1015300028462F4D2F49DFF8EC802F4FDFF8E89039
:10154000324662F0A3FA284662F0ACFA28462B4DE8
:101550002B49324662F09AFA2A49284601F096F859
:101560002949404601F092F82849384601F08EF8A2
:101570001023394606A88DF8143000F087FF29465D
:101580000BA800F083FF224F22490BAB009305AA62
:1015900006ABCDE901444846FFF79AFF324639468B
:1015A000484662F073FA0423414606A88DF81430C9
:1015B00000F06CFF29460BA800F068FF164D174B92
:1015C00001930BAB009305AA06AB1549029428467C
:1015D000FFF77EFF32463946284662F057FA11B0CF
:1015E000BDE8F083786700200000FFFF646B0020F7
:1015F000C0670020D1120300AC6700208467002080
:10160000BD3B0900F9650B001E660B0043660B002D
:10161000B52B030068660B00C4670020B5120300F9
:101620006B660B0098670020CC67002070470A6843
:101630000B469268014618461047000010B5054B4E
:1016400000220446114640F8043B29F05DFF204685
:1016500010BD00BF78660B0010B50446FFF7EEFF23
:101660002046202162F017FA204610BD70B50E4CBE
:10167000046000251C24C0E901459DF814409DF834
:101680001060C56004F0030444EA8604E4B2047404
:10169000427485744161427C0F2A0ABF034B038365
:1016A000C0E9063070BD00BF78660B002F1603003E
:1016B000002340681A461FF073BF406800220221D1
:1016C0001FF0E6BD0022406811461FF071BD0022E8
:1016D000406811461FF024BD002340681A46194691
:1016E0001FF034BE002340681A4619461FF052BE50
:1016F0004068002281F001011FF09CBE406800227A
:101700001FF07EBD0022406811461FF07ABD002206
:10171000406811461FF077BD2DE9F043002495B0D5
:1017200016460D46074600F09BFB214618220EA8E0
:1017300000947CF0FFFE4023CDE90C3421466B463B
:101740000CAA304618F08AFB0446002846D102460F
:10175000012168681FF0E4FC022180462246686887
:101760001FF0DEFC009E81462146002E36D0002967
:1017700034D17368022B03D00A2B0BD0F669F4E73F
:10178000B8F1000F04D071693846043100F095FBC0
:101790004146F3E7B9F1000F01D14946EEE774691C
:1017A000102201A87CF0C6FE06238DF8143001AD8E
:1017B00004F108031834186859682A4603C208332C
:1017C000A3421546F7D101A906A807AD00F056FBC4
:1017D0000FCD3C1D0FC42B682370DEE7009818F076
:1017E0003BFB384615B0BDE8F0830000024B034ACE
:1017F0001A6000225A607047D46700208C660B0084
:101800000EB403B503AB002153F8042B019300F091
:1018100029FD02B05DF804EB03B0704710B5044633
:101820000846217013F0EEFB00236360204610BDD4
:101830007047012070470022406811461FF070BCBD
:1018400010B52421044662F026F9204610BD00227E
:10185000406811461FF0D7BC0022406811461FF0B7
:10186000D0BC406800221FF0CBBC4068002281F051
:1018700001011FF0DFBD002340681A4619461FF022
:1018800089BD002340681A4619461FF05FBD00223B
:10189000406811461FF08CBC4068002202211FF0F6
:1018A000F7BC002340681A461FF07ABE83897BB1DB
:1018B0004369002B0CDB07EE903A9FED077AF8EEB8
:1018C000E77A87EE870ADFED057A20EE270A704770
:1018D000BFEE000A704700BF00FF7F470000C8420C
:1018E000838963B10369B3F1004F08D007EE903AE2
:1018F0009FED047AF8EEE77A87EE870A70479FED4E
:10190000020A70470000C8420000000083897BB1D2
:10191000036A002B0CDB07EE903A9FED077AF8EE96
:10192000E77A87EE870ADFED057A20EE270A70470F
:10193000BFEE000A704700BF00FF7F470000C842AB
:10194000838963B18369B3F1004F08D007EE903A01
:101950009FED047AF8EEE77A87EE870A70479FEDED
:10196000020A70470000C8420000000070B50C4633
:10197000064600F10C050FCC0FC594E8030085E87E
:1019800003003369B3F1004F0EBF0223642293FBBF
:10199000F2F37360B369B3F1004F0CBF002364220C
:1019A0004FF0010018BF93FBF2F3B36070BD00006D
:1019B0002DE9F041164B036000250F464FF0020859
:1019C0001826C0E9018586B03246294604460C3007
:1019D0007CF0B0FD78682A4629461FF0A1FB80B153
:1019E0003246294668467CF0A5FD2A4669462846C7
:1019F000ADF8006007F0A4F838B969462046FFF753
:101A0000B5FF204606B0BDE8F081C4F80480F8E7D1
:101A1000FC660B00024B04225A60024A1A607047AF
:101A2000DC670020C8660B0070474174704708B53A
:101A3000007C14F0E5FA20EAE07008BD08B5007CEF
:101A400014F097F920EAE07008BD08B5007C14F0A6
:101A5000A7FA40EAE07008BD08B5007C14F036FA39
:101A600040EAE07008BD007C13F018BD37B5457C36
:101A700004462DB1207C03B0BDE8304014F094BB87
:101A8000007C019114F0BCFA00280199F2DC284690
:101A900003B030BD10B51421044661F0FCFF2046B0
:101AA00010BD000010B54FF0000C0446084611466A
:101AB0004FF47A72C4E901C2044A22600122207400
:101AC00062741A4613F07EFD204610BD20670B009D
:101AD000007C002314F03EB80022FFF7F9BF00009D
:101AE00013B50E4C2178BFF35B8F11F0010112D1B9
:101AF0002046019112F04EFD019960B1084A094B50
:101B00000948FFF7CFFF204612F0A6FD074A084913
:101B1000054861F0BBFF044802B010BDE467002037
:101B2000E86700206C680020F0680020646B0020EB
:101B3000291A03007047F8B5064615460C468F185B
:101B4000BC4206D0336814F8011B9B6830469847A6
:101B5000F6E72846F8BD007C002217F0F5B8007CB7
:101B6000002117F019B9007C002117F02FB9007C73
:101B7000002117F04DB9007C002117F069B910B5AC
:101B80001421044661F087FF204610BD10B54FF4C4
:101B90007A73044608460021C4E90113034B23600D
:101BA0002074114617F06CF9204610BD50670B00E9
:101BB00010B5044600687CF045FC204610BD0B685B
:101BC000036013B15A6801325A60704738B504682F
:101BD00005467CB16368013B63605BB923682046BE
:101BE0009B689847A368013BA3601BB92368204604
:101BF000DB689847284638BD38B50D1E0446006896
:101C000003DD7DF0F9F918B938BD7CF01BFC00202C
:101C10002060A5600120F7E72DE9F0410F464168FB
:101C20001D461944836899420446904612DC266892
:101C300062683E44D21B314670197CF061FC2A4632
:101C4000414630467CF04EFC63682B4463600120C3
:101C5000BDE8F081FFF7D0FF0028E8D1F8E708B52C
:101C600013460A464168FFF7D7FF08BDF8B5D0E92B
:101C700001539D4204460E460CDA276862687919C2
:101C8000521B481C7CF03CFC7E556368013363604A
:101C90000120F8BD691CFFF7AFFF0028EDD1F8E780
:101CA00041747047704708B50021007C0BF0BCFF01
:101CB00040EAE07008BD08B50121007C0BF0B4FFDC
:101CC00040EAE07008BD08B5007C0BF0ABFF20EAED
:101CD000E07008BD08B5007C0BF0A2FF20EAE070C0
:101CE00008BD13B50446007C01910BF09BFF002852
:101CF000019901DC607C20B1207C0BF0A5FF20EA7B
:101D0000E07002B010BD007C0BF0A9BF10B514212B
:101D1000044661F0C0FE204610BD000010B54FF42F
:101D20007A73044608460021C4E90113044B23607A
:101D300001232074637411460BF03CFF204610BD54
:101D400078670B00007C00220BF05EBF007C0BF07C
:101D500065BF10B51422044600217CF0EBFB204641
:101D600010BD000010B500224FF47A73C0E90123C2
:101D7000084B036086B004464FF48073038201A8C9
:101D8000FFF7E7FF207C01A90BF014FF204606B007
:101D900010BD00BF78670B0010B5104C88B003A8C9
:101DA000FFF7D7FF2178BFF35B8F11F0010111D14D
:101DB0002046019112F0EEFB019958B103AA0848A0
:101DC000FFF7ACFF204612F047FC064A06490448DC
:101DD00061F05CFE024808B010BD00BF046900203D
:101DE00008690020646B0020A51C0300704710B533
:101DF0001821044661F04FFE204610BDF0B5037D6A
:101E0000062B8DB00E4600F104074FF0000412D0EF
:101E100000F1080515F8011D0A22304600F004FA09
:101E2000AF42044419D0002CF4D02E21304600F0EB
:101E3000E2F90444EEE72F236A4639460A208DF87A
:101E4000004019F0AAF86846FFF724F93368024603
:101E5000DB68694630469847044620460DB0F0BD21
:101E600010B5054B0446112240F8043B00217CF0DC
:101E700061FB204610BD00BFA8670B000346074A60
:101E800010B543F8042B01F1100251F8044B43F84C
:101E9000044B9142F9D10A781A7010BDA8670B0063
:101EA00010B59DF8084044EA032343EA024242EA9F
:101EB000016104234160037510BD13B5CB78009315
:101EC0008B784A780978FFF7EBFF02B010BD10B5A8
:101ED0008368044613B1032201469847204610BD8B
:101EE00030B5CA788D784C68003A18BF0122C0E935
:101EF0000054027230BD13B50B460246D0E9000112
:101F00006C4684E8030093E8030082E8030094E849
:101F1000030083E8030002B010BD002123F03CBCA5
:101F2000014B1860704700BF1065002008B50B4BCF
:101F300043B1FFF731FF03681B699847002801DDB3
:101F4000AFF30080064B43B1FFF7CAFD03681B697E
:101F50009847002801DDAFF3008008BD00000000B5
:101F60000000000008B5FFF7E1FF15F0B4F8014BE1
:101F7000186008BDD89B00200248034A0349121A82
:101F80007CF0B0BA00F4032004F40320F8B50C0090
:101F900007B5002300931A466FF0770120F0A6FBE7
:101FA00003B05DF804FB000007B543880A2B08D096
:101FB000502B0BD1094B1B684BB103B05DF804EB00
:101FC0001847FFF7E5FF03B05DF804FB002300931B
:101FD0001A466FF0770120F089FBF4E720690020B2
:101FE00038B5124C1248134D00211BF015F8236828
:101FF000AB42114B0CBF012200221A7002D0FFF736
:10200000BBFF25600CF002FF04467CF079FF0B4B10
:1020100013B12046AFF30080002108481EF052FAA9
:10202000BDE838400648002120F056BB00F40320EC
:10203000211F03001E1C279A1C69002000000000BD
:10204000A91F030010B50446FFF741FF204610BD4D
:1020500010B5044628F04AFB844208D01CB1BDE804
:10206000104028F029BBBDE8104028F061BA10BD2F
:1020700070B505460E46144628F038FB50B144EAC8
:10208000062040EA054028F04DFABDE87040E72000
:1020900028F0A8BA70BDC2B2C0F30721C0F3074050
:1020A000FFF7E6BF0348044A04490023836061F058
:1020B000EDBC00BF24690020646B002045200300B4
:1020C00010B5044628B17CF03FFF90FBF4F303FB0E
:1020D0001404204610BD884210B5044603DA081ADD
:1020E000FFF7EEFF0444204610BD38B5002383609F
:1020F0008B6804460D462BB102229847EB68E360DB
:10210000AB68A360204638BD024B1A68024B1A60C8
:10211000704700BF005E002034690020014B024A76
:102120001A60704738690020D0670B002DE9F8432A
:1021300006460C4691461F4614F0CDFF002580460A
:102140009FB9336830461B6998470028F8DD33682B
:1021500030465B6998474D45C1B203D00D2901D087
:102160000A290AD10023237005E014F0B4FFA0EB84
:102170000800B842E5D9BDE8F883082901D07F29D5
:1021800009D1002DDCD0013C013D336830469B680D
:10219000EDB29847D4E704F8011B0135F5E7F8B52F
:1021A00006460D468F180024BD420CD0336815F842
:1021B000011B9B6830469847031E01DB1C44F3E774
:1021C000002C08BF1C462046F8BD13B5044608463F
:1021D00059B10191FEF75EFF23680199DB68024661
:1021E000204602B0BDE81040184702B010BD08B547
:1021F000FFF7EBFF08BD03689B68184738B50D2152
:102200000546FFF7F8FF0A2104462846FFF7F3FFCB
:10221000204438BD38B50546FFF7D7FF04462846A9
:10222000FFF7ECFF204438BD30B58BB000238DF8AC
:102230002430012A98BF0A2209AC0D46B1FBF2F105
:1022400001FB125303F0FF03092B94BF30333733E4
:10225000DBB2AA4204F8013DEFD92146FFF7B5FFF2
:102260000BB030BD2DE9F04186B000AF05460E46FB
:10227000381D142114463B607FF070FA13280ED8E5
:10228000391D2846FFF7A1FF04461EB12846FFF777
:10229000B5FF044420461837BD46BDE8F08100F183
:1022A000080323F00703E846ADEB030D2246411C6B
:1022B0003B6868467FF052FA69462846FFF785FF7B
:1022C0000446C546E1E77047704770477047000015
:1022D000064B994210B500F10C0405D0084667F092
:1022E0001DFF002808BF0024204610BDB8660B0063
:1022F000064B994210B500F10C0405D0084667F072
:102300000DFF002808BF0024204610BDB8660B0052
:10231000064B994210B500F10C0405D0084667F051
:10232000FDFE002808BF0024204610BDB8660B0043
:10233000483001F09FB810B56021044661F0ABFB56
:10234000204610BD10B52421044661F0A4FB2046B0
:1023500010BD10B53021044661F09DFB204610BD34
:1023600013F04EBF13F04CBF13F04ABF10B5044634
:10237000006808B115F06FF9204610BDF0B50025D2
:10238000EC1C8C420DD86E1C445D875D974205D1D4
:102390002644B14205D31D60601CF0BD01342544C4
:1023A000EEE70020F9E7000010B520238AB00024F2
:1023B000CDE90234074B009302AA234606493C208C
:1023C00029F006F8054A21460A2027F0FBFF0AB04B
:1023D00010BD00BFFB670B00D4670B0001EB0300CF
:1023E000A0F13003DAB2092A01D818467047A0F1EB
:1023F0006103052B01D857387047A0F14103052B25
:1024000094BF37384FF0FF307047000010B50023FD
:102410000370044B0446186815F022F90123237059
:10242000204610BD4469002010B5037804461BB156
:10243000024B186815F023F9204610BD44690020AE
:102440000022426002608271704708B582798B7900
:102450009A4206D106227CF037F8B0FA80F04009A3
:1024600008BD0020FCE7000001220261064A116855
:102470000160516841601189927A82720022018163
:10248000C0F80B20C27370478C610B0010B50B694C
:10249000036101F11002034651F8044B43F8044B69
:1024A0009142F9D110BD10B50B460446B1B1012AD5
:1024B00001F110020AD1014653F8040B41F8040B54
:1024C0009342F9D101232361204610BD411E12F829
:1024D000010D01F8010F9A42F9D1F3E710227CF0C7
:1024E00029F8F1E738B5044615461A46FFF7DBFF31
:1024F000A581204638BD000008B5026922B980894F
:10250000003818BF012008BD024910227BF0DCFF13
:10251000F6E700BFE4690B000069704738B50C4668
:102520001422002105467CF005F823693BB9627B43
:102530002B74237B43EA02232B80284638BD0123DA
:102540002B7404F110022B4654F8041B43F8041BAF
:102550009442F9D1F1E7427B007B40EA02207047C8
:10256000704710B50B69036101F11002034651F881
:10257000044B43F8044B9142F9D110BD10B586B01D
:102580000446012201A8FFF78EFF01A92046FFF7AC
:10259000E8FF06B010BD08B502690B699A4206D182
:1025A00010227BF091FFB0FA80F0400908BD0020B6
:1025B000FCE7000001232DE9F3410361324B1A6867
:1025C00002605A68426000251A899B7A028104469B
:1025D0008372C0F80B50C5730E4621B324213046D8
:1025E0007DF011FD042821D1ADF8045001AFB51CD8
:1025F000063615F8020CFFF7F3FEB0F1000810DB09
:1026000015F8010CFFF7ECFE00280ADB023540EA62
:102610000810AE4207F8010BEBD1BDF804305BBAED
:10262000A3810023236102B0BDE8F081102724219B
:1026300030467DF0E8FCA84206D827440023BC427F
:10264000F1D007F8013DFAE7002FECD0705DFFF7FD
:10265000C7FE030615D40001013F5FFA80F804F8B5
:102660000780242130467DF0CEFC0135A84208D9F0
:10267000705DFFF7B5FE40B20028A4BF40EA080035
:10268000E0550135D3E700BF8C610B0013B504465C
:102690000191FFF7E9FE20460199FFF78BFF2046E5
:1026A00002B010BD2DE9F34789469DF82870016AF4
:1026B00004461E46904632B301AB4A46FFF75EFE23
:1026C000256AB31C1FBB10B3EF183F1A1F2F19D870
:1026D000DDF8049009F1020AA5EB0902121A00EBD9
:1026E000090106EB0A0092B2214420447BF008FF66
:1026F000731C04F809303246414604EB0A007BF0B3
:10270000F1FE2762216A084602B0BDE8F0872B443B
:102710001F2BF7D8731C6355A81C25442062324632
:1027200085F80190414620447BF0DCFE236A334467
:102730002362E7E71FB50446024600F11F010023AC
:1027400002F8013B9142FBD1236200930622012350
:102750008DF80F2019460DF10F022046FFF7A2FF5A
:10276000204604B010BD73B50A460E4601AB016A9F
:102770000446FFF703FE054678B10198226A411925
:10278000121A2144521B20447BF0ACFE206A401BED
:10279000206231462046FFF7E6FF02B070BD000020
:1027A00038B54FF6FF730025044643800E222946B4
:1027B0000570057106307BF0BDFE04F11400FFF7D3
:1027C00053FE04F12800FFF74FFE044904F13C00DA
:1027D00000F09BFEC4E91355204638BD673B0C0052
:1027E00010B5D0E9063203EBC2029342184606D078
:1027F000046824888C4203F10803F6D110BD002040
:10280000FCE70000F0B5064685B01F460D460029DE
:1028100050D0002A4ED004682378F42A28BFF4222E
:1028200043B32379980709D5A0890392002310F0B8
:102830002FF80028039A03DA05B0F0BD6FF0770097
:1028400034682379D90609D5012F07D0A089002340
:10285000294605B0BDE8F04010F04AB89B06EBD51C
:10286000022FE9D0A0890023294605B0BDE8F04039
:1028700010F070B860884FF6FF7188421CD0217943
:102880004E0701D5012F04D10B0709D46FF0770053
:10289000D2E7A189009313462A4610F0C1F8CBE78E
:1028A000022FF3D00023A189009313462A4610F08B
:1028B00083F8C1E70248BFE76FF0D100BCE700BF73
:1028C000F2FEFFFF13468A680968FFF79BBF00000E
:1028D0002DE9F0414FF00008C0F8008005462420A3
:1028E0000F4613F089FC041E04F10C060DD00123E1
:1028F000C4E90133074B23603046FFF7B5FDC4F848
:10290000208039463046FFF72CFEC5E90064284692
:10291000BDE8F081A4690B0038B5002404600546C9
:10292000302013F069FC034688B10122C0E901227E
:10293000094A02604FF6FF7282810E30FFF780FD78
:10294000C3E90644C3E90844C3E90A44DC826B6076
:102950000C332B60284638BDC0690B00096851F85C
:10296000022F02604A68426070471FB50B4601683B
:102970001A680988128891420CD101466846FFF70F
:10298000EDFF02A81946FFF7E9FF02A96846FFF725
:102990005CFD00B9002005B05DF804FB30B50546CC
:1029A0008BB0342013F028FC044668B10023C0E942
:1029B0000033C0E90233C0E90433C0E90633C0E99B
:1029C0000833C0E90A3303632C607CB92023CDE9C6
:1029D0000234154B1549009302AA3C20234628F0E7
:1029E000F7FC134A21460A2027F0ECFC002010F0E7
:1029F0000DFA80B100242023CDE902340D4B0B49A0
:102A0000009302AA3C20234628F0E2FC084A214613
:102A10000A2027F0D7FC2968074800220FF0C0FBE6
:102A200028460BB030BD00BFFB670B00D4670B001E
:102A300001EB030012680B004D2E030010B50B4C88
:102A40002378BFF35B8FDB070ED4204611F0A2FD85
:102A500050B10748FFF7A2FF204611F0FDFD054ADF
:102A60000549034861F012F8014810BD3C69002097
:102A700048690020646B00201F2C030070B50368B8
:102A8000093B012B8AB004460D4612D8FFF7D6FF4A
:102A9000A1880068FFF7A4FE024660B92023CDE9B3
:102AA0000230094B00930949034602AA322028F05C
:102AB0008FFC0AB070BDEE6C002EFAD0D4E9031082
:102AC0002B6DB047F5E700BF54680B00D4670B00CF
:102AD00013B501A8FFF79AFC002010F097F90446FF
:102AE00001A8FFF7A1FC04EAE47002B010BD08469B
:102AF00011B90A460FF0A2BC096A0022FAE707B52D
:102B0000084629B90A4603B05DF804EB0FF0F8BC9B
:102B100001210190FFF727FE01980022016AF2E7E8
:102B200013B501A8FFF772FC00200FF04BFD04461F
:102B300001A8FFF779FC204602B010BD7FB505461D
:102B400003A801911646FFF761FC01992846FFF79B
:102B5000CEFF041E09DB31462846FFF7D0FF041ED6
:102B600003DB2846FFF7DCFF044603A8FFF75CFC05
:102B7000204604B070BD0368D8690028D4BF002087
:102B80000120704710B551F8043B044640F8043B5F
:102B9000FFF715F823680BB9FFF706FC204610BDB8
:102BA00010B551F8043B044640F8043BFFF707F822
:102BB000204610BD10B504460430FFF707F8204644
:102BC00010BD70B5D0E90053044605EBC306AE4214
:102BD00004D0281DFEF7FAFF0835F8E720687BF0DF
:102BE00031FC204670BD70B5D0E90053044605EBBA
:102BF000C306AE4204D0281DFEF7E8FF0835F8E70B
:102C000020687BF01FFC204670BD10B504462430C0
:102C1000FFF7E9FF04F11800FFF7D3FF10BDF8B587
:102C200004680646C4B1D4E9065305EBC307AF42B6
:102C300004D0281DFEF7CAFF0835F8E7A0697BF02D
:102C400001FC04F10C00FFF7CEFF2046FFF7B9FFAF
:102C50003421204660F01FFF3046F8BD2DE9F043D7
:102C60008DB080469946602000230D46164602939B
:102C700013F0C2FA041E04F10C071CD0224B23608F
:102C80000122C4E9012236783846FFF789FD29463A
:102C9000267404F1480000F08EFC159BA365169B7A
:102CA000E365494604F12000FFF75BFC149904F149
:102CB0003400FFF756FC0023CDE90233D8F800308A
:102CC0000493C8F80070D8F80430C8F8044005A888
:102CD0000593FEF77BFF03A8FEF778FFD8F80040C6
:102CE0007CB92023CDE90434084B0949009304AA98
:102CF0003C20234628F06CFB064A21460A2027F098
:102D000061FB0DB0BDE8F08388690B00FB670B0029
:102D1000D4670B0001EB03008842F8B506460C4669
:102D2000154618D9904217D2A2F10805A1F108075B
:102D3000691A4418AF4220D02E1D34B120462B68AA
:102D400040F8043B3146FEF73AFF3046FEF73EFFBF
:102D5000083D083CEEE710D0AC420ED0271D36B13E
:102D60003046236840F8043B3946FEF728FF3846D2
:102D7000FEF72CFF08340836EEE7F8BD2DE9F041E8
:102D8000D0E900430546884604EBC307A7421AD0A2
:102D900041462046FFF7E9FD064608B90834F5E745
:102DA0009CB1201DFEF712FFD5E9003204F10801A5
:102DB00003EBC2022046FFF7AFFF6B68013B6B607D
:102DC0003046BDE8F0810026FAE72646F8E7F7B579
:102DD000044651F8043B4768009301A8FEF7EFFE54
:102DE000D4E901639E4212DB0136002E2CDDF00097
:102DF0007BF020FB054608B3D4E9001201EBC202C8
:102E0000FFF78AFF20687BF01DFB2560A66026681F
:102E1000626806EBC70506EBC202294605F1080009
:102E2000FFF77AFF35B1009B46F8373001A9281D1E
:102E3000FEF7C5FE636801336360012501A8FEF754
:102E4000C5FE284603B0F0BD0025DBE72DE9F041C3
:102E500004468EB003A80D46FFF7D8FA2368032B6B
:102E600007D0042B48D003A8FFF7DEFA0EB0BDE868
:102E7000F08104A8FFF750FD049B22891A80626844
:102E8000049952F8083FC1F802305368C1F806307F
:102E900007A8049B069305A9FEF791FE06A905F174
:102EA0001800FFF794FF044607A8FEF78FFE2023C3
:102EB00006938CB9334B344900933220234606AA3B
:102EC000079428F085FA049B214618880FF06CFCC3
:102ED00005A8FEF77BFEC6E72C4A009200232A498C
:102EE000079306AA012028F073FA6B6A002BEFD033
:102EF000E96A04A89847EBE721892846FFF770FCA8
:102F000006460028AFD00468D4E906314FF6FF72B8
:102F1000228003EBC101994203D053F8080B428091
:102F2000F9E7D4E9037307EBC308B84504D0381DAB
:102F3000FEF74CFE0837F8E700232361D4E9067357
:102F400007EBC308B84504D0381DFEF73FFE08372D
:102F5000F8E70023E3616381AB6A13B1296B304664
:102F6000984700232022CDE90623094A009206490A
:102F700006AA012028F02CFA314605F11800FFF7C7
:102F8000FDFE70E76C680B00D4670B0092680B00C5
:102F9000AF680B008842F8B504460D46164614D9B2
:102FA000904213D2A2F10806751AA1F108072C4429
:102FB000B74218D01CB131462046FFF7F1FD301D55
:102FC000FEF704FE083E083CF2E70CD0B5420AD0FA
:102FD0001CB129462046FFF7E3FD281DFEF7F6FD4C
:102FE00008350834F2E7F8BD70B50E1E054611DD50
:102FF000F0007BF01FFA044658B1D5E9001201EB4E
:10300000C202FFF7C7FF28687BF01CFA2C60AE6095
:10301000012070BD0024F6E773B504464568684694
:10302000FFF7BEFDD4E90113994210DA2368626804
:1030300003EBC50503EBC202294605F10800FFF7C3
:10304000A9FF8DB9636801336360012606E0013191
:103050002046FFF7C9FF06460028E7D101A8FEF782
:10306000B5FD304602B070BD69462846FFF798FDB1
:10307000E8E78842F8B504460D46164614D9904252
:1030800013D2A2F10806751AA1F108072C44B74221
:1030900018D01CB131462046FFF774FD301DFEF7F5
:1030A00095FD083E083CF2E70CD0B5420AD01CB1B1
:1030B00029462046FFF766FD281DFEF787FD0835E7
:1030C0000834F2E7F8BD70B50E1E054611DDF000BC
:1030D0007BF0B0F9044658B1D5E9001201EBC20209
:1030E000FFF7C7FF28687BF0ADF92C60AE600120C8
:1030F00070BD0024F6E773B5044645686846FFF7DF
:1031000041FDD4E90113994210DA2368626803EBA8
:10311000C50503EBC202294605F10800FFF7A9FF28
:103120008DB9636801336360012606E001312046F2
:10313000FFF7C9FF06460028E7D101A8FEF746FDC4
:10314000304602B070BD69462846FFF71BFDE8E730
:103150002DE9F04F1646A1B080460AA80D46FFF7AC
:1031600055F93468237953B931464046FFF70AFDD3
:103170000AA8FFF759F9404621B0BDE8F08F2B6847
:10318000D3E9037307EBC303039304F1280904F1A4
:10319000140B039B9F4221D0D7F800A058460AF198
:1031A0001401FFF7F8F9B8B10AF128014846FFF712
:1031B000F2F988B12368DAF80020534033F47F43F2
:1031C0000AD12022CDE91523674A009215AA674942
:1031D000322028F0FDF8C7E70837DAE74846FFF75E
:1031E0008BF970B92023CDE91530614B5F4900930D
:1031F00015AA0346012028F0EBF85E494846FFF780
:10320000BDF92B68D3E9007307EBC30B5F45BA46E2
:1032100049467ED057F8080BFFF7BDF90028F5D0D6
:1032200004F114073846FFF767F9C0B92023CDE948
:103230001530514B4D49009315AA0346012028F043
:10324000C7F84E4B4B491A88013292B21A8015A822
:103250000123FFF747F915A93846FFF782F928221D
:10326000002116A87BF066F9454B1593394604A852
:10327000FFF754F904AB18AA0DF1200C186859682F
:10328000174603C7083363453A46F7D118683860D4
:1032900023798DF85830DAF800309B8AADF8743015
:1032A000E36B1793374B0022A11D15A8CDE91E34FF
:1032B00010F01EFA034600287FF456AF0120324A70
:1032C00020702A49009220270DAACDE90D7328F01D
:1032D0007FF82C6831460C340DA8FFF753FC2046CC
:1032E0000DA9FFF708FF04460EA8FEF76FFC002C9F
:1032F0007FF43AAF254B0093CDE90D7423460DAA18
:1033000065E731464046FFF73DFC0CA8FEF75EFC42
:103310002EE70BA8FFF7DCFA494615A8FFF7FEF8E1
:103320000B9A0023143215A901200FF081FA00280E
:10333000E7D12F680BA90DA8FFF732FC38460DA97D
:10334000FFF76AFE07460EA8FEF740FC002FD8D014
:103350002A685368126803F10053013B0CA802EB82
:10336000C30AFEF733FC5BE7CE680B00D4670B00A3
:10337000F9680B00D4690B0016690B004069002046
:1033800001002C007D2A03003A690B0058690B00EC
:1033900010B5064C00232046236014F052F9204655
:1033A000034A0449BDE8104060F070BB4469002046
:1033B000646B00206D2303002DE9F04757EC106B80
:1033C00080460C4610EE100A002200233946FDF715
:1033D00081FB28B107F100431F462D2304F8013B70
:1033E00000234FF001090A22D9B2884503D902FB14
:1033F00009F90133F8E74846FDF790F832463B46B5
:10340000FDF7F6F806460F46FDF766FC05468A46C8
:10341000FDF7B8F802460B4630463946FCF730FF58
:10342000134B0022FDF76AFB10B101354AF1000A87
:103430004A462846D3175146FDF722FC012315467C
:1034400021460A2200F049F9B8F1000F0DD02046BC
:10345000FDF720FE2E23211823540A224346284636
:103460000131BDE8F04700F038B9BDE8F08700BF92
:103470000000E03F10B5044600687AF0E3FF204604
:1034800010BD10B50446006808B17AF0DBFF0023D8
:10349000C4E90133236010BD38B504460D46006809
:1034A00001317BF0A9FD10B1C4E90005012038BD50
:1034B00010B50368044623B143688B4201D3012051
:1034C00010BD2046FFF7E8FF0028F9D0A368002BC5
:1034D000F5D122681370F2E737B50D461146019217
:1034E0000446FFF7E5FF019A28B92046FFF7C9FF18
:1034F000204603B030BDA260294620687AF0F2FF72
:103500002268A3680021D154F2E7002313B5C0E973
:10351000003304468360037341B108460191FDF70F
:10352000B9FD019902462046FFF7D6FF204602B0BA
:1035300010BD38B5054600680C4668B16A688B68EE
:103540009A4207D309687BF081FFA368AB60002330
:10355000A36038BD7AF076FF23682B6063686B60E8
:10356000A368AB600023C4E90033F1E710B5002382
:10357000C0E90033044683600373FFF7DAFF204697
:1035800010BD884210B5044605D00B682BB18A687F
:103590001946FFF7A1FF204610BDFFF772FFFAE7BB
:1035A00010B500230446C0E9003383600373FFF7BE
:1035B000E8FF204610BD13B5044659B108460191F5
:1035C000FDF768FD019902462046FFF785FF20467A
:1035D00002B010BDFFF755FFF9E770B505460E467E
:1035E00009B9002070BD6AB1846814442146FFF710
:1035F0005FFF0028F5D02868AB68314618447BF09F
:1036000025FFAC600120EDE713B50446084651B133
:103610000191FDF73FFD01990246204602B0BDE849
:103620001040FFF7DABF02B010BD07B500238DF8D8
:103630000410012201A98DF80530FFF7CEFF03B079
:103640005DF804FB10B586B001A904460620FFF71B
:10365000B3FE01A8FDF71EFD01A902462046FFF7B3
:10366000BCFF06B010BD00000EB470B587B00BAD46
:10367000044655F8042B01922B46052104A8039516
:103680007EF06CF80B4906462046FFF73EFF3146B8
:103690002046FFF70DFF206830B1019A03952B46B5
:1036A000711C7EF05BF8A060204607B0BDE870405A
:1036B00003B07047673B0C0010B50446FDF7EAFC09
:1036C000013823182046834206D90278197800F879
:1036D000011B03F80129F6E710BD70B50C46911ED9
:1036E0002229054622D820466DB1B5FBF2F602FB31
:1036F0001655E9B2092D94BF30315731C9B200F8DF
:10370000011B3546F0E7024623443021934202D99B
:1037100002F8011BFAE71A1A834238BF002200237D
:1037200083542046FFF7C8FF204670BD0020FCE709
:1037300038B5031E0C4615460EDAB3F1004F4FF0B4
:103740002D0214BF5842184601230A702A46194414
:10375000FFF7C3FF204638BD0123F9E707B5002274
:1037600003460092114604201BF074FC03B05DF880
:1037700004FB07B5002203460092114602201BF00D
:1037800069FC03B05DF804FB08B1024B1868FFF751
:10379000F0BF00BF5869002007B50B460021024664
:1037A000009101208C211BF055FC03B05DF804FB57
:1037B00001460020FFF7F0BF0020FFF7F9BF07B573
:1037C000002203460092114603201BF043FC03B085
:1037D0005DF804FB10B5094B094C022200201A6069
:1037E000084B2060A080A071A3601BF003FC204662
:1037F000054A0649BDE8104060F048B95869002004
:103800004C6900200000FFFF646B0020D112030010
:103810000022406811461DF0F6BC002240681146A7
:103820001DF0EFBC406800221DF0EABC4068002299
:1038300081F001011DF0FEBD002340681A461946C3
:103840001DF0A8BD002340681A4619461DF07EBD34
:103850000022406811461DF063BC002240681146FA
:103860001DF0A6BC4068002202211DF011BD0023FE
:1038700040681A461DF094BE024B03225A60024A69
:103880001A6070475C690020FC690B0000487047B3
:10389000045E00201FB5024600230520ADF80D3060
:1038A0008DF80C008DF80F3002FA00F0084B01295A
:1038B000185A03EB421407D103AB0093A3780549D0
:1038C00013F08AFC04B010BD13F034FDFAE700BF1A
:1038D000446000201939030007B50D4B03EB40127B
:1038E00000219180DA783AB993F8233003F0FF028F
:1038F00013B9084B1A705A60C0B20021019021F030
:1039000039F80198012103B05DF804EBFFF7C2BF5D
:103910004460002064690020084BC0B203EB4013F0
:1039200010B5002101249980DC70FFF7B3FF044B30
:103930001A7812B90A221C705A6010BD4460002027
:103940006469002008B54001024B185A0BF017FAC1
:10395000C0B208BD4460002010B52D4B1A78002A73
:1039600050D05A68002A4DD05A68013A5A605868B7
:10397000002847D1274C0A225A60E3780BB3FFF79F
:10398000E1FFF0B9A3889BB233B9A3880A339BB295
:103990000121A38020F0EEFFA3880A339BB2A3800D
:1039A000238CFF2B2ED094F8233093B994F8233036
:1039B00043B3002384F823300120BDE81040FFF713
:1039C0008BBFE378002BEBD00020E070FFF784FF83
:1039D000E6E70120FFF7B6FF94F822305A1E534263
:1039E000534183420FD1A38C9BB23BB9A38C0121DD
:1039F0000A339BB20846A38420F0BCFFA38C0A3391
:103A00009BB2A38410BD238CFF2BCFD1FAE700BF5C
:103A100064690020446000202DE9F0411A4C2278AE
:103A200005460F4602F0FF030AB923706360174E84
:103A300006EB45134FEA45189B7836F80800012B32
:103A40000CBF032102210BF05DF9012F03D1394690
:103A50002846FFF71FFF36F80830FF2B06EB080754
:103A60000FD02846FFF76EFFBB785A1E53425341D2
:103A7000834206D10123FB70227812B923700A23F6
:103A80006360BDE8F08100BF6469002044600020ED
:103A9000024B03EB4010808880B2704744600020E6
:103AA000232870B504460E460CD8FFF7EFFE00EB56
:103AB0000415EB78B34204D0062B02D1204610F057
:103AC0003BFAEE7070BD000008B5054B588B10F046
:103AD000C6FA012303FA00F0013880B208BD00BF26
:103AE0008460002038B518230C4A58430C46135CF8
:103AF000012B02EB00050FD12B79D9070CD5FFF76D
:103B0000E3FF2A79034692072146688848BF191BBC
:103B1000BDE8384010F032BB38BD00BF84600020E3
:103B200070B50D460646014601201446FFF7DAFF40
:103B300029460220FFF7D6FF21460320FFF7D2FFD8
:103B400031460520FFF7CEFF29460620FFF7CAFFC2
:103B500021460720BDE87040FFF7C4BF70B5184D7F
:103B60000646FFF7B1FF2B7F13F0020F0446688B68
:103B70001CD010F06FFA201A80B2308095F83430E3
:103B8000688E13F0020F14D010F064FA201A80B27D
:103B9000708095F84C30B5F84A0013F0020F0BD046
:103BA00010F058FA241AA0B2B08070BD10F052FA8A
:103BB000E3E710F04FFAEBE710F04CFAF4E700BF40
:103BC00084600020064B1A7902F0020210B91AB97B
:103BD000002102E0002AFBD1012158880BF0A4B893
:103BE0008460002010B5064B5C8820460BF0C7F8B7
:103BF000B0FA80F149092046BDE810400BF094B8B6
:103C00008460002038B518230B4A58431518145CFB
:103C1000012C0FD1688821460BF074F82B79688845
:103C200013F0020FC3F3400118BF2146BDE838402E
:103C30000BF07AB838BD00BF84600020034B1B78BE
:103C40001BB1034B187848F00BBC70476D6900201E
:103C50006C690020044B00221A60044A01211160A3
:103C60001A68002AFCD07047009102400090024080
:103C700010B503682F2B8AB0044614D900232022E4
:103C8000CDE902230E4BCBB1AFF3008001460D4BC3
:103C9000009302AA3C20002327F09AFB0A4A002145
:103CA0000A2026F08FFB23681F2B85BF074803F0EF
:103CB0001F034FF0A04023600AB010BD0449E6E79F
:103CC000000000005C6A0B0001EB030000030050E1
:103CD000586A0B000B4611460246184647F0ACBE28
:103CE00010B5FFF7B7FF0021084613F0CFFCFFF730
:103CF000B1FF47F047FE00210446012013F0C6FC47
:103D0000112CF0D0204610BD38B504460D46FFF703
:103D1000A1FF0021084613F0B9FCFFF79BFF00222A
:103D20002946204647F060FD00210446012013F09B
:103D3000ADFC204638BD07B500238DF800008DF896
:103D4000011068461146ADF80230ADF80430FFF7B7
:103D5000DBFF03B05DF804FB13B513F0FBFD11248A
:103D600047F02CFE01A80194FFF782FF019B03F5A9
:103D7000E073032240F8232068460094FFF778FFA1
:103D8000009A01239340C0F80835152301A8019338
:103D9000FFF76EFF019B03F5E073042240F8232038
:103DA000064B4FF40072C3F88421054B00241C70AD
:103DB00013F004FE204602B010BD00BF00E100E099
:103DC0006E6900201FB50446CDE9022113F0C2FD43
:103DD000074B0093DDE90221064B204613F027FE36
:103DE0000446FFF77DFF13F0E9FD204604B010BD47
:103DF000217A0400D53C03002DE9F3470E4606F175
:103E0000030929F003091546A9EB0607044613F038
:103E1000A1FDAF4294BFEF1B6F1B37F0030719D012
:103E200024F0030A52463946484647F08BFE804646
:103E300028BB4E4501D1544509D0AAEB04010F44DB
:103E4000A4EB0A013A46494430467AF059FB3C4417
:103E50003E44ED1BCDB1611924F003070331C91BAA
:103E60003A4621F00301684647F06CFE804630B9BF
:103E7000E41B2A460DEB040130467AF033FB13F0C5
:103E80009DFD404602B0BDE8F087A846F7E7F8B5CB
:103E900004460F4613F05EFD24F47F6424F00F0403
:103EA0000026BE4204EB063104D1002513F086FD46
:103EB0002846F8BD002047F0CBFE05460028F5D186
:103EC000FFF70EFF0136ECE70128F8B506460C4671
:103ED00017461D461DD1CB18B3F5007F1CD813F033
:103EE00039FD00223146B120FFF725FF70B9204689
:103EF0002A463946FFF780FF044600220121C120EF
:103F0000FFF719FF13F05AFD2046F8BD6FF00204C9
:103F1000F3E74FF0FF34F7E76FF00104F4E730B553
:103F2000044685B00D4613F015FD002C3BD101234E
:103F30008DF80930022D40F20113ADF80A30ADF8CA
:103F40000C3024D1B923002102A88DF80830FFF7E6
:103F5000DBFE0446B0B9052D14D19923014602A811
:103F60008DF80830FFF7D0FE044658B940238DF88D
:103F7000043001A940F2012302A8ADF80830FFF790
:103F8000C3FE044613F01AFD204605B030BD032DD4
:103F900001D1AB23D7E7042D01D1B023D3E7052D01
:103FA0000DD16623CFE7012C09D1012D07D102AA3B
:103FB00002212F208DF80850FFF7BDFEE1E74FF0FA
:103FC000FF34DFE730B593B011240AA80A94FFF755
:103FD0004FFE0A9B394D03F5E073032240F823207E
:103FE00003A80394FFF744FE039A01239340C0F80B
:103FF0000835152304A80493FFF73AFE049B03F544
:10400000E073042240F8232013F0A4FC0FCD05AC8C
:104010000FC400222B682360114605A847F006FB59
:104020000D28274D21D020210023CDE90A13002D92
:104030003FD12449244B00930AAA0023012027F0F2
:10404000C7F9224B01221A70002300931A4603215C
:104050001846FFF764FF044600BB00900346024683
:104060000521FFF75CFF044618E020220023CDE97C
:104070000A23E5B1AFF300800146154B00930AAA6D
:104080000023012027F0A4F9002300931A460421FD
:104090001846FFF744FF04460028C4D013F08EFCF6
:1040A000002C0CBF20466FF0F90013B030BD05495D
:1040B000E3E7AFF300800146BCE700BF9C610B0063
:1040C00000000000586A0B00AD6A0B006E6900200A
:1040D000806A0B0037B5204D044613F03BFC2B786B
:1040E00094B3012B06D013F069FC6FF0D104204685
:1040F00003B030BD002300931A4602211846FFF793
:104100000EFFC8B100231A46009304211846FFF79A
:1041100006FF00231A46009305211846FFF7FFFE0D
:10412000002300931A4602211846FFF7F8FE0446C2
:1041300010B113F043FCDAE7FFF70EFE02232B70F9
:1041400013F03CFC0024D2E7022BCCD1FFF73AFF5E
:1041500004460028F4D0ECE76E69002001F0070166
:1041600070B5C1F10704CD1C032C28BF0324062D14
:104170008CBF043900214FF0FF3520FA01F605FA13
:1041800004F405FA01F126EA040420EA01001460AF
:10419000186070BD10B5094C002304F1140084F8B8
:1041A0003030E36284F82530A36284F831304AF07D
:1041B000C0FD201DBDE810404AF0BBBDB86A00201C
:1041C0000028ABBF00F1604000F00F0000F5614037
:1041D000034BACBF90F80003185C4009704700BF68
:1041E00014ED00E0044B5978814204D09A6B58706A
:1041F0000AB1D96B10477047B86A00202DE9F04F1B
:104200001C4C94F830308BB003F0FF079BB1E26890
:104210002169E36A0B449B1A2289934228D8DFF86C
:104220005C80DFF85CA0DFF85CB0002504F10409D5
:10423000E36A9D4203D338460BB0BDE8F08F18F80F
:10424000011B48464AF041FD80B100262023CDE9FC
:10425000023602AA59463C20CDF800A0334627F08A
:10426000B7F8054A31460A2026F0ACF80135DFE7F9
:104270000027E0E7B86A002001EB0300F86900209E
:10428000CB6A0B00BF6A0B0010B50C480C4C4CF00D
:10429000A0FA0122E06284F83020002284F8312064
:1042A000E26A2AB9002384F830300120E36210BDAD
:1042B000FFF7A4FF0028FAD0F4E700BFE86B0B007B
:1042C000B86A0020F8B5124C94F82430D3B194F8B1
:1042D0003130BBB994F8303003F0FF0793B90D4D7E
:1042E0000D492E8C0D4846F0010380222B844CF0A2
:1042F00075FA922807D10123E76284F8307084F8B8
:1043000031302E84F8BD0028FBD1FFF7BDFFF8E760
:10431000B86A002070690020F8690020E86B0B0083
:1043200008B50C4B93F82420824212D083F8240065
:1043300060B103F114004AF0FCFC074A138C43F00F
:1043400001031384BDE80840FFF7BCBF986283F8FF
:10435000250008BDB86A0020706900202DE9F743E8
:10436000294C2A4D94F824302F8CE3B194F8253051
:10437000CBB1A36A5A1CA26240F6C312934212D96F
:104380000026812044F0F2F9304684F82560FFF7DA
:10439000C7FF2B8C1E491F4843F0010332462B8474
:1043A0004CF0F6F92F8494F824304BB394F8253070
:1043B00003F0FF0623BBE269236A9A4220D0DFF8AC
:1043C0005080DFF854900DF1070148464AF08FFC09
:1043D00030B901369DF8073008F8013B402EF2D184
:1043E0000023A3622B8C0A490A4843F0010332469A
:1043F0002B844CF0CDF910B9012384F825302F849B
:1044000003B0BDE8F08300BFB86A002070690020E7
:10441000786A0020E86B0B00CC6A00200F2810B5EA
:104420000BD80F280BD8DFE800F00B7411310A0A03
:104430000A0A5A62790A0A434D45812848D010BDBC
:10444000FFF740FFBDE81040FFF788BF0820FFF7E7
:10445000C9FE0020FFF764FF812044F087F90120A6
:1044600044F084F9324B002283F8252083F8312070
:10447000304BC3E91E22C3E920225A62DA6203F1FB
:1044800034025A67BDE810404AF090BE4BF058FC29
:10449000052896BF284B0020185CFFF7A3FE254B8C
:1044A0001B8CDB07CBD50120BDE81040FFF738BFE0
:1044B000FFF770FE4BF044FC052896BF1E4B002012
:1044C000185C06E04AF056FE194B93F8403023B1D1
:1044D0000220BDE81040FFF785BE0120F9E743F058
:1044E000D5FA0028ABD1BDE810404AF041BE43F0F8
:1044F000CDFA0F4C28B14AF04FFE002084F831006D
:10450000D2E794F84030002BF7D00220FFF76AFE84
:10451000F3E7074B002083F83100C5E7044B93F81D
:104520004030002B8BD0BDE810404AF025BE00BFC4
:10453000B86A002070690020E16B0B0030B587B0CD
:10454000EFF31183EFF3108212B1002007B030BDFA
:104550005A092DD1194B9B68002BF6D1184A536884
:10456000C3F3080313B35368C3F30803372BA3F152
:104570001004EAD0D1682720C1F302210191FFF78E
:104580001FFE054660B2FFF71BFE0199044603AB10
:1045900002AA2846FFF7E2FD05AB04AA01992046CE
:1045A000FFF7DCFD029A049B9A42CED20120CDE7B0
:1045B0002720FFF705FE8242CCD8C6E7106B00200B
:1045C00000ED00E0F0B5334E34788FB0002C48D1C8
:1045D00049F042FB852810D078B12023CDE906347C
:1045E0002D4B2E49009306AA3C20234626F0F0FED0
:1045F0002B4A21460A2025F0E5FE002049F048FB21
:1046000049F0C0FB0028FBD003AF00240C21384642
:10461000CDE90344059412F09DF805461922EDB248
:104620002048214679F086FF182D1E4A28BF1825FC
:10463000A54219D81C484AF017FD80B10024202358
:10464000CDE90634144B1549009306AA3C202346B5
:1046500026F0BEFE124A21460A2025F0B3FE0123B1
:10466000337000200FB0F0BD3B5D180900F1300140
:10467000392988BF00F1570103F00F0302F8021B2C
:1046800003F13001392988BF03F1570102F8011CF9
:104690000134CDE7B86A0020216B0B00BF6A0B0024
:1046A00001EB0300B69201200C6C0B0070B5284C96
:1046B0001E46A378012B8AB015463FD00A46014614
:1046C000201D4AF0F3FA00283BD12946324604F176
:1046D00014004AF0EBFA0546002835D11D484AF08F
:1046E0006FFD78B12023CDE902351B4B1B490093A8
:1046F00002AA3C202B4626F06BFE194A29460A20C6
:1047000025F060FE13484AF0A9FD00200FF05EFA84
:104710004AF016FD80B100252023CDE902350E4B6D
:104720000E49009302AA3C202B4626F051FE0C4A6B
:1047300029460A2025F046FE0123A37000200AB076
:1047400070BD4FF0FF30FAE76FF00100F7E700BFF0
:10475000B86A0020E86B0B00216B0B00BF6A0B00EE
:1047600001EB03002DE9F0471F4C6378072B8AB05B
:1047700007460E4602D194F824306BBB4FF0FF3051
:1047800027E094F82430002BF8D0FFF7D7FE00285C
:10479000F4D0E269236A9B1A228B9342F1D8795DA7
:1047A00040464AF092FA80B100232022CDE902234C
:1047B000514602AA3C20CDF8009026F009FE0023C5
:1047C0000A4A19460A2025F0FDFD0135AE42304661
:1047D000DFDC0AB0BDE8F087DFF81490DFF814A042
:1047E000002504F11408F1E7B86A002001EB03008A
:1047F000456B0B00BF6A0B00014B9861704700BF0F
:1048000070690020014B9869704700BF70690020F3
:1048100010B504292CD8DFE801F021150B10030096
:10482000144B5A6B22B3FFF7EDFFBDE81040104761
:104830000120BDE81040FFF773BD0E4B002083F848
:104840003100F6E70B4B0022012083F825209A6205
:10485000FFF766FDBDE81040FFF780BD0120FFF7C0
:104860005FFDFFF711FD18B1BDE81040FFF72ABD4D
:1048700010BD00BFB86A002010B50D4B93F8402062
:1048800002F0FF049AB90122022083F84020FFF7CA
:10489000A9FCFFF77FFC2046FFF742FD43F0F6F846
:1048A00008B94AF065FCBDE810404AF065BC10BD8F
:1048B000B86A002008B50E4B93F84020B2B1002230
:1048C00083F8402043F0E2F808B14AF065FC43F079
:1048D000DDF808B14AF04EFC0120FFF783FCFFF73A
:1048E00059FCBDE808400020FFF71ABD08BD00BF15
:1048F000B86A0020034AD0681169D36A0B44181AB9
:10490000704700BFB86A002010B58CB0FFF776FC86
:10491000134B18B10022DA6283F83020DA681B6981
:1049200000249A428DF80F4015D00E480DF10F016A
:104930004AF0DDF978B12023CDE904340A4B0B4964
:10494000009304AA3C20234626F042FD084A214653
:104950000A2025F037FD9DF80F000CB010BD00BFF8
:10496000B86A0020BC6A0020946B0B00BF6A0B0081
:1049700001EB030013B50146002407488DF80740FA
:104980000DF107024AF0C4F918B99DF8070002B00A
:1049900010BD2046FBE700BFBC6A002008B5FFF74A
:1049A000CDFD58B1064B93F824203AB1D9691A6A63
:1049B000914203D093F82520002AF4D108BD00BF0E
:1049C000B86A0020064B93F8242032B1DA69188BBC
:1049D000196A531C1844401A70474FF0FF30704753
:1049E000B86A0020014B5863704700BFB86A0020C6
:1049F000BFF34F8F0549064BCA6802F4E0621343C8
:104A0000CB60BFF34F8F00BFFDE700BF00ED00E0BC
:104A10000400FA0534DF704735DF704718DF704750
:104A200013DF704708B54BF0CBFFBDE8084020F01E
:104A300001B8000037B5144B5B68C3F308030446A4
:104A40000D46F3B904220DEB020140F2DA60019346
:104A500012F03EF888B9019B23420CBF01220022CC
:104A6000AA420AD05DB123EA0403042240F2DA61CB
:104A70000DEB0200019312F061F803B030BD234347
:104A8000F3E74FF0FF30F8E700ED00E037B50D4BEE
:104A90005B68C3F3080305460C4683B904220DEB9B
:104AA000020140F2DA60019312F012F828B9019B7A
:104AB0001D420CBF01230023237003B030BD4FF013
:104AC000FF30FAE700ED00E013B500240DF1070117
:104AD00004208DF80740FFF7D9FF18B99DF80700AB
:104AE00002B010BD2046FBE71EF0040F0CBFEFF331
:104AF0000880EFF309808169004A10471D4C0300CC
:104B000000B58FB0039004910592039B049B059B15
:104B100020220023CDE90623094B7BB1AFF30080AF
:104B20000146084B009306AA3C20002326F050FCC7
:104B3000054A0021012025F045FCFEE70349F0E786
:104B400000000000186C0B0001EB0300586A0B001A
:104B500000B500238BB02022CDE90223094B7BB1A5
:104B6000AFF300800146084B009302AA3C200023CB
:104B700026F02EFC054A0021012025F023FCFEE74B
:104B80000349F0E700000000186C0B0001EB030084
:104B9000586A0B0000B500238BB02022CDE9022318
:104BA000094B7BB1AFF300800146084B009302AA8A
:104BB0003C20002326F00CFC054A0021042025F0AF
:104BC00001FCFEE70349F0E700000000226C0B0047
:104BD00001EB0300586A0B0000B500238BB02022C4
:104BE000CDE90223094B7BB1AFF300800146084BAE
:104BF000009302AA3C20002326F0EAFB054A00218C
:104C0000052025F0DFFBFEE70349F0E70000000088
:104C10002B6C0B0001EB0300586A0B0000B593B03E
:104C2000036802934368039383680493C3680593FE
:104C3000036906934369079383690893C3690993DA
:104C40000E4B9B6A13F0007301D0FFF7C5FF2022C3
:104C5000CDE90A230A4B7BB1AFF300800146094B33
:104C600000930AAA3C20002326F0B2FB064A00214A
:104C7000012025F0A7FBFEE70449F0E700ED00E086
:104C800000000000186C0B0001EB0300586A0B00D9
:104C9000014B024ADA637047005C0020254A03009A
:104CA00010B54FF00053194A1A604FF0FF325A60A6
:104CB000174B8EB000249C6002A80223CDE9034468
:104CC00005940293FFF7AAFE98B12023CDE906349C
:104CD000104BCBB1AFF3008001460F4B009306AAF7
:104CE0003C20002326F074FB0C4A00210A2025F00A
:104CF00069FB0648FFF794FE49F0DCFD49F058FED9
:104D00000028FBD00EB010BD0549E6E7005C00208E
:104D100000ED00E000000000216B0B0001EB030040
:104D2000586A0B001FB504200FF092FA1B4B1C4968
:104D300001221A701B4B1C4A1846D21A79F0D2FB7A
:104D40001A4A90602BF09EFB002012F07BF8FFF7D0
:104D5000A7FF0AF041F82BF073FCFFF7B5FEA0B1F6
:104D6000E72025F063FC03230E22CDE90132002267
:104D70004FF4442300934FF091514FF440331046C9
:104D80002BF05BFD05B05DF804FB6FF07F4025F074
:104D9000C3FBE72025F026FCE5E700BF62DB00202F
:104DA00000000300005C0020005E002000ED00E039
:104DB00008B511F0C1FC08B1FFF71AFE0AF026F899
:104DC0007AF09EF811F09EFBBDE80840FDF708B9A7
:104DD00038B505460020FEF75BFE04460120FEF7CD
:104DE00057FEA84204D2AC4234BF0020012038BD97
:104DF0000120FCE708B5024BC3E90101FFF7F8FD0C
:104E000080F3032008B5074B6FF055021A735A73ED
:104E10002BF032FC044B64210022C3E90112FFF79E
:104E2000E7FD00BFC0F3032080F3032008B5054B66
:104E30006E2245F6FE21C3E9001200229A60FFF7B8
:104E4000D7FD00BF80F3032008B50B4C78B14FF6B7
:104E5000FF736362094B4FF0FF321A725A722BF0E4
:104E60000BFC78220023C4E90123FFF7C1FD4EF6B5
:104E7000FA532360F5E700BF80F30320C0F303205B
:104E800013B5174B5B6901930133044602D101A8A6
:104E9000FFF7C0FD601E05281FD8DFE800F0030AF9
:104EA0000D1019190198012814BF0020012002B02B
:104EB00010BD01980428F7E701980228F4E701984B
:104EC000B0F5803F02D0B0F5003FEDE70120EEE7FE
:104ED0000198B0FA80F04009E9E70020E7E700BF59
:104EE000C0F3032010B1044B1B68036011B1024BE7
:104EF0005B680B6000207047006B002000222BF0E5
:104F0000CDBB704700B5114B18688BB0D8B14EF6C9
:104F100060213FF0B5FBB0B92023CDE902300C4B46
:104F20007BB1AFF3008001460A4B009302AA3C20FC
:104F3000002326F04DFA084A00210E2025F042FAFF
:104F4000FEE70649F0E70BB05DF804FB086B0020B4
:104F500000000000366C0B0001EB0300586A0B00E8
:104F6000024B186808B13FF0FDB97047086B00208C
:104F700038B51E4B1E4C01251D70FFF719FF02208E
:104F8000FFF77EFF78B11B4B5A6822609A68626017
:104F90000022C3E901224FF0FF30FFF73DFDBDE8DD
:104FA00038401FF055BF0320FFF76AFF20B13C23B4
:104FB000236000236360EEE70420FFF761FF08B180
:104FC0001E23F5E70520FFF75BFF08B12823EFE775
:104FD0000620FFF755FF08B13223E9E72846FFF71F
:104FE0004FFF08B11423E3E70A23E1E70C6B00202D
:104FF000006B002080F30320FFF7BABF07B5042041
:105000003FF0C4F90A4B0B4918600B4B0193022384
:1050100000934FF4C062002308483FF03DFDFFF7C6
:1050200053FD08B125F048FB3FF060FEFEE700BFEE
:10503000086B00204D6C0B00FC6A0020F94F030048
:1050400007B50338042819D8DFE800F0070318145F
:1050500016000120FFF7EEFC09E049428DF8071029
:10506000012240F6A1310DF1070011F067FD03B0F8
:105070005DF804FB0220EDE70420EBE74FF0FF3082
:10508000F5E7062813B50BD006D8033801288CBFE6
:105090000020012002B010BD07280ED00020F9E743
:1050A00000240DF1070102208DF80740FFF7EEFC08
:1050B0000028F3D19DF80700ECE7FFF705FDE9E7CD
:1050C000013809289CBF024B43F82010704700BFED
:1050D00080F30320013809289ABF034B53F82000BE
:1050E0004FF0FF30704700BF80F3032010B58AB047
:1050F0000446684679F026FA089B636023880F2BE4
:1051000017D90D480D49132BA0EB0101E16010D90F
:10511000009A2261172B0CD9059A62611B2B08D9C2
:10512000074A1F2BA2EB0002A26102D903F0DAF9B1
:10513000E06100200AB010BD00E80320F8920120D1
:1051400000E8032018B1012804D000207047034B69
:1051500098887047014B987C704700BFC0F30320CC
:1051600072B600207047000010B5044630B9E42A3A
:1051700004D1044879F0B6F9204610BD4FF0FF3055
:10518000FBE700BF00F0032038B50D46044658B9D0
:10519000E32A09D906490A88E42A05D11A60284673
:1051A00079F0A0F9204638BD4FF0FF30FBE700BF93
:1051B00000F00320EFF31180402383F31188704740
:1051C00080F311887047EFF311830370A02383F3FA
:1051D0001188704780F311887047000013B50F4C99
:1051E00013462278BAB90122227000940A46014679
:1051F0000B4849F048F858B92378012BFCD02078A7
:10520000003818BF012040420023237002B010BDB7
:105210004FF0FF30F8E74FF0FF30F7E71C6B00204E
:105220004861002010B543688EB004461BB30023CC
:105230002022CDE90623114BDBB1AFF300802178AA
:105240000F4A104B012918BF134622690492A26825
:1052500003926268CDE901320B4B009306AA00234A
:105260000146322026F0B4F8636902221A700EB0AB
:1052700010BD0648E3E742691370F8E7000000003C
:1052800070930C00A2930B00CC6C0B00586A0B00BF
:1052900030B58DB012F0DCFA1F492048204D0022B5
:1052A00048F0E3FF20210023CDE904130446002D3C
:1052B0002ED0AFF300800146184B5A681268039253
:1052C0001A690292DB680193164B009304AA00232B
:1052D000012026F07DF820220023CDE90423CDB162
:1052E000AFF300800146104A104B002C18BF134644
:1052F00001930F4B009304AA0023012026F068F8C5
:1053000012F0CAFA201E18BF012040420DB030BD75
:105310000849D1E70749E6E720310C004861002041
:10532000000000000C6D0B00046D0B00016D0B0004
:10533000356D0B00586A0B007FB5CDE90410039260
:1053400012F086FA074B0093DDE90321064B05981E
:1053500012F06DFB039012F09FFA039807B05DF80E
:1053600004FB00BF217A0400DD510300F7B5174CA0
:105370000191064612F06CFA2378254603F0FF07E8
:1053800003BB012326F47F612370019A1048234652
:1053900021F00F0148F0A5FF38B127706FF001042C
:1053A00012F07AFA204603B0F0BD2B78012BFCD026
:1053B0002B7803F0FF04002BF2D000232B706FF04A
:1053C0000204EDE74FF0FF34EAE700BF1C6B00205A
:1053D0004861002013B50446CDE9002112F038FAE7
:1053E000009A0198214679F07DF812F055FA0020D4
:1053F00002B010BD3FF0C6BC08B54BF0C1FA0120A9
:1054000008BD4BF0CFBA000010B5044650B9134B9D
:1054100013491448D32279F009FD204678F0F6F9B3
:1054200078F0CAF804203EF0B1FF0F4A206038B986
:10543000B2F81A310133A2F81A314FF0FF3010BD23
:10544000B2F81631B2F8181101339BB29942A2F8A2
:10545000163138BFA2F818310020F0E74D6D0B006F
:105460006C6D0B007A6D0B00848B012008B5084829
:10547000FFF7CAFF50B1074B074908487A2279F075
:10548000D5FC002078F0C2F978F096F808BD00BF8E
:10549000206B00204D6D0B00A26D0B007A6D0B0090
:1054A00010B550B90E4B0F49E2220F4879F0BEFCFF
:1054B000002078F0ABF978F07FF804681CB9084B4D
:1054C0000A49E322F1E74FF0FF3120463FF0D8F8D8
:1054D000012803D0024B0649E622E6E710BD00BFD3
:1054E0004D6D0B006C6D0B007A6D0B00C96D0B00E0
:1054F000DC6D0B0010B550B90D4B0E49F0220E4873
:1055000079F094FC002078F081F978F055F804687F
:105510001CB9074B0949F122F1E720463EF022FF72
:10552000012803D0024B0649F422E8E710BD00BF72
:105530004D6D0B006C6D0B007A6D0B00C96D0B008F
:10554000F56D0B0038B50D46044658B91F4B204980
:105550004FF485721F4879F069FC002078F056F905
:1055600078F02AF8012904D9184B1B4940F20B1294
:10557000F0E70322002101203EF034FE174A2060AC
:1055800038B9B2F814310133A2F814314FF0FF30BA
:1055900038BDB2F81031B2F8121101339BB2994202
:1055A00038BFA2F81231012DA2F810310CD100231E
:1055B00020681A4619463EF039FE012804D0034BF4
:1055C000074940F21712C5E70020E1E74D6D0B00D7
:1055D000576E0B007A6D0B000E6E0B00848B012052
:1055E000316E0B0010B558B9104B114940F225121D
:1055F000104879F01BFC002078F008F977F0DCFF08
:10560000046824B9094B0C494FF49372F0E7002366
:105610001A46194620463EF009FE012804D9034BDC
:1056200006494FF49572E3E710BD00BF4D6D0B00C6
:10563000576E0B007A6D0B00526E0B00636E0B0001
:1056400038B558B9174B18494FF49B72174879F081
:10565000EDFB002078F0DAF877F0AEFF046824B9AB
:10566000104B134940F23712F0E759B94FF0FF31B0
:1056700020463EF06FFF01280ED00A4B4FF49E7279
:105680000C49E3E720463EF065FF38B1012803D01E
:10569000044B4FF4A272F3E7012038BD4FF0FF3006
:1056A000FBE700BF4D6D0B00576E0B007A6D0B00D2
:1056B000526E0B00856E0B0038B5044658B9114B7D
:1056C000114912484FF4A87279F0B0FB204678F0E7
:1056D0009DF877F071FF056845B90A4B0C490B48F6
:1056E00040F2511279F0A2FB2846F0E7094AB2F8DD
:1056F0001031013BA2F8103100683FF008F8002398
:10570000236038BD4D6D0B00576E0B007A6D0B009A
:10571000526E0B00848B012010B50B46044658B91D
:10572000184B194940F25B12184879F07FFB0020B2
:1057300078F06CF877F040FF002904DC114B144935
:105740004FF4AE72F0E70022042118463EF04AFD05
:10575000104A206038B9B2F820310133A2F8203164
:105760004FF0FF3010BDB2F81C31B2F81E110133FA
:105770009BB29942A2F81C3138BFA2F81E3100201A
:10578000F0E700BF4D6D0B009D6E0B007A6D0B00B6
:10579000AA6E0B00848B012013B5019158B9164BEA
:1057A00016494FF4BD72164879F040FB002078F09E
:1057B0002DF877F001FF046824B90F4B114940F22E
:1057C0007B12F0E700231A4601A920463EF02EFD89
:1057D00001280FD020B1084B0B4940F28112E2E7BB
:1057E0000A4AB2F820310133A2F820314FF0FF30DD
:1057F00002B010BD0020FBE74D6D0B009D6E0B004D
:105800007A6D0B00B36E0B00D66E0B00848B0120FB
:1058100073B50C46154658B91A4B1B4940F2A112F4
:105820001A4879F003FB002077F0F0FF77F0C4FE10
:10583000066826B9134B16494FF4D172F0E701B947
:1058400001AC65B94FF0FF32214630463EF008FE0C
:10585000012815D00B4B40F2AB120E49E0E72A4667
:10586000214630463EF0FCFD20B920604FF0FF306D
:1058700002B070BD012803D0024B4FF4DA72ECE79E
:105880000120F5E74D6D0B009D6E0B007A6D0B004E
:10589000B36E0B00EA6E0B0037B50C4658B9134BCC
:1058A00013494FF4E172134879F0C0FA002077F001
:1058B000ADFF77F081FE056825B90C4B0E4940F22B
:1058C000C312F0E701B901AC0022214628463EF0A0
:1058D000C7FD20B920604FF0FF3003B030BD012874
:1058E000FBD0024B05494FF4E772DCE74D6D0B002E
:1058F0009D6E0B007A6D0B00B36E0B00EA6E0B0011
:1059000010B5044658B90E4B0E4940F2D9120E4854
:1059100079F08CFA204677F079FF77F04DFE046835
:1059200024B9074B09494FF4ED72F0E720463EF0E9
:10593000EEFE074AB2F81C31013BA2F81C3110BD43
:105940004D6D0B009D6E0B007A6D0B00B36E0B005E
:10595000848B012030B51C1E054685B008460BDC43
:105960000F4B10494FF4FA720F4879F05FFA00209C
:1059700077F04CFF77F020FE03AB0193089B009378
:1059800029461346C4F38F023FF086F8012804D05D
:10599000034B06494FF4FF72E6E7039805B030BDAC
:1059A0004D6D0B00FC6E0B007A6D0B000E6F0B0043
:1059B0000023022219463FF069BD000010B5074CD4
:1059C0000748FFF76DFD23781BB93FF029FC054B15
:1059D000186023780133237010BD00BF246B0020B2
:1059E000206B0020286B0020054A1378013BDBB2B6
:1059F00013700BB9034A13600348FFF77BBD00BF68
:105A0000246B0020286B0020206B002008B53FF09D
:105A100007FC014B186008BD2C6B002008B54AF04C
:105A2000AFFF4AF0BFFF0C4B1B68A3B13FF0F8FB80
:105A30000A4B1B68834202D1094B1B785BB9094BA7
:105A400009490A4840F27F2279F0F0F9002077F006
:105A5000DDFE77F0B1FD08BD2C6B0020286B002027
:105A6000246B00204D6D0B00236F0B007A6D0B0033
:105A700003685918016011782CBF012300230B44DF
:105A800013707047137810B504688C4238BF013B1F
:105A900013700368591A016010BD30B509238FB027
:105AA0000122CDE9022300210446242205A88DF815
:105AB0000310049078F03EFD1021204653F045FC81
:105AC0000546002840F03282A3681A68196A0192DC
:105AD00001A80DF10302FFF7CBFFA3680DF103024C
