:020000023000CC
:1000000000F0032021020300650203008149030080
:10001000690203002D4A0300714A0300000000003A
:10002000000000000000000000000000B50808000B
:100030007102030000000000D5080800ED09080067
:1000400081880700770203001DD90700EDD707005C
:1000500039D8070091760700F9820700FD8807006C
:10006000A5CC0700B9CC0700CDCC07007702030070
:100070007702030081D507007702030077020300AF
:1000800011CB070089B60700D1D60700D1D80700E9
:10009000C5D60700CBD6070011EA07007702030098
:1000A0007702030077020300E1CC0700F5CC0700DC
:1000B0004998070089780700000000000000000050
:1000C00077020300599807006998070085D8070050
:1000D0003121040071C40700770203008DB10700CD
:1000E0007D0E0400F9BD0700ED2B090000000000A3
:1000F0000000000079980700000000006D70070004
:1001000000000000000000000000000000000000EF
:1001100000000000000000000000000000000000DF
:1001200000000000000000000000000000000000CF
:1001300000000000000000000000000000000000BF
:1001400000000000000000000000000000000000AF
:10015000000000000000000000000000000000009F
:10016000000000000000000000000000000000008F
:10017000000000000000000000000000000000007F
:10018000000000000000000000000000000000006F
:10019000000000000000000000000000000000005F
:1001A000000000000000000000000000000000004F
:1001B000000000000000000000000000000000003F
:1001C000000000000000000000000000000000002F
:1001D000000000000000000000000000000000001F
:1001E000000000000000000000000000000000000F
:1001F00000000000000000000000000000000000FF
:100200000000030044B20C000000DB070C000300F8
:080210000000000000000000E6
:100220000C490D4A0D4B9B1A03DD043BC858D050B6
:10023000FBDC0A490A4A0020521A02DD043A8850BF
:10024000FCDC4DF013FC04F0B9FC0DF0EBFA04F00B
:1002500021FE0000A4A70C00005E002050670020D3
:1002600008930120FEE7FEE7FEE7FEE7FEE7FEE774
:10027000FEE7FEE7FEE7FEE781F0004102E000BF97
:1002800083F0004330B54FEA41044FEA430594EA56
:10029000050F08BF90EA020F1FBF54EA000C55EA91
:1002A000020C7FEA645C7FEA655C00F0E2804FEA62
:1002B0005454D4EB5555B8BF6D420CDD2C4480EA44
:1002C000020281EA030382EA000083EA010180EA74
:1002D000020281EA0303362D88BF30BD11F0004FC2
:1002E0004FEA01314FF4801C4CEA113102D04042F8
:1002F00061EB410113F0004F4FEA03334CEA133333
:1003000002D0524263EB430394EA050F00F0A7804A
:10031000A4F10104D5F1200E0DDB02FA0EFC22FA45
:1003200005F2801841F1000103FA0EF2801843FA39
:1003300005F359410EE0A5F120050EF1200E012A2A
:1003400003FA0EFC28BF4CF0020C43FA05F3C01868
:1003500051EBE37101F0004507D54FF0000EDCF1E1
:10036000000C7EEB00006EEB0101B1F5801F1BD38A
:10037000B1F5001F0CD349085FEA30004FEA3C0C8E
:1003800004F101044FEA445212F5800F80F09A8084
:10039000BCF1004F08BF5FEA500C50F1000041EB88
:1003A000045141EA050130BD5FEA4C0C404141EB8C
:1003B0000101013C28BFB1F5801FE9D291F0000F87
:1003C00004BF01460020B1FA81F308BF2033A3F136
:1003D0000B03B3F120020CDA0C3208DD02F1140C2D
:1003E000C2F10C0201FA0CF021FA02F10CE002F168
:1003F0001402D8BFC2F1200C01FA02F120FA0CFC61
:10040000DCBF41EA0C019040E41AA2BF01EB0451A9
:10041000294330BD6FEA04041F3C1CDA0C340EDCA7
:1004200004F11404C4F1200220FA04F001FA02F3EA
:1004300040EA030021FA04F345EA030130BDC4F1A8
:100440000C04C4F1200220FA02F001FA04F340EA9D
:100450000300294630BD21FA04F0294630BD94F04E
:10046000000F83F4801306BF81F480110134013D35
:100470004EE77FEA645C18BF7FEA655C29D094EAA6
:10048000050F08BF90EA020F05D054EA000C04BF24
:100490001946104630BD91EA030F1EBF002100200F
:1004A00030BD5FEA545C05D14000494128BF41F0AE
:1004B000004130BD14F580043CBF01F5801130BD12
:1004C00001F0004545F0FE4141F470014FF000009D
:1004D00030BD7FEA645C1ABF194610467FEA655C4E
:1004E0001CBF0B46024650EA013406BF52EA0335F0
:1004F00091EA030F41F4002130BD00BF90F0000FDE
:1005000004BF0021704730B54FF4806404F1320419
:100510004FF000054FF0000150E700BF90F0000FD2
:1005200004BF0021704730B54FF4806404F13204F9
:1005300010F0004548BF40424FF000013EE700BFC9
:1005400042004FEAE2014FEA31014FEA02701FBF59
:1005500012F07F4393F07F4F81F06051704732F08B
:100560007F4208BF704793F07F4F04BF41F40021E2
:10057000704730B54FF4607401F0004521F0004140
:100580001CE700BF50EA010208BF704730B54FF0CA
:1005900000050AE050EA010208BF704730B511F0CB
:1005A000004502D5404261EB41014FF4806404F103
:1005B00032045FEA915C3FF4D8AE4FF003025FEA89
:1005C000DC0C18BF03325FEADC0C18BF033202EB0D
:1005D000DC02C2F1200300FA03FC20FA02F001FA67
:1005E00003FE40EA0E0021FA02F11444BDE600BF0A
:1005F00070B54FF0FF0C4CF4E06C1CEA11541DBFB9
:100600001CEA135594EA0C0F95EA0C0F00F0DEF883
:100610002C4481EA030621EA4C5123EA4C5350EA68
:10062000013518BF52EA033541F4801143F48013B9
:1006300038D0A0FB02CE4FF00005E1FB02E506F04A
:100640000042E0FB03E54FF00006E1FB03569CF09F
:10065000000F18BF4EF0010EA4F1FF04B6F5007FA5
:1006600064F5407404D25FEA4E0E6D4146EB060617
:1006700042EAC62141EA55514FEAC52040EA5E50A0
:100680004FEACE2EB4F1FD0C88BFBCF5E06F1ED84A
:10069000BEF1004F08BF5FEA500E50F1000041EB81
:1006A000045170BD06F0004646EA010140EA02002E
:1006B00081EA0301B4EB5C04C2BFD4EB0C0541EA50
:1006C000045170BD41F480114FF0000E013C00F365
:1006D000AB8014F1360FDEBF002001F0004170BD89
:1006E000C4F10004203C35DA0C341BDC04F11404A2
:1006F000C4F1200500FA05F320FA04F001FA05F22E
:1007000040EA020001F0004221F0004110EBD370FA
:1007100021FA04F642EB06015EEA430E08BF20EA26
:10072000D37070BDC4F10C04C4F1200500FA04F3C9
:1007300020FA05F001FA04F240EA020001F000415B
:1007400010EBD37041F100015EEA430E08BF20EACE
:10075000D37070BDC4F1200500FA05F24EEA020E16
:1007600020FA04F301FA05F243EA020321FA04F045
:1007700001F0004121FA04F220EA020000EBD370FC
:100780005EEA430E08BF20EAD37070BD94F0000FFC
:100790000FD101F00046400041EB010111F4801F30
:1007A00008BF013CF7D041EA060195F0000F18BFE1
:1007B000704703F00046520043EB030313F4801F1D
:1007C00008BF013DF7D043EA0603704794EA0C0FD7
:1007D0000CEA135518BF95EA0C0F0CD050EA4106ED
:1007E00018BF52EA4306D1D181EA030101F000416A
:1007F0004FF0000070BD50EA410606BF1046194692
:1008000052EA430619D094EA0C0F02D150EA01369D
:1008100013D195EA0C0F05D152EA03361CBF1046DE
:1008200019460AD181EA030101F0004141F0FE417D
:1008300041F470014FF0000070BD41F0FE4141F401
:10084000780170BD70B54FF0FF0C4CF4E06C1CEA01
:1008500011541DBF1CEA135594EA0C0F95EA0C0FB6
:1008600000F0A7F8A4EB050481EA030E52EA033571
:100870004FEA013100F088804FEA03334FF0805592
:1008800045EA131343EA12634FEA022245EA1115BF
:1008900045EA10654FEA00260EF000419D4208BF70
:1008A000964244F1FD0404F5407402D25B084FEA1D
:1008B0003202B61A65EB03055B084FEA32024FF4C9
:1008C00080104FF4002CB6EB020E75EB030E22BF26
:1008D000B61A754640EA0C005B084FEA3202B6EBE6
:1008E000020E75EB030E22BFB61A754640EA5C0095
:1008F0005B084FEA3202B6EB020E75EB030E22BF25
:10090000B61A754640EA9C005B084FEA3202B6EB25
:10091000020E75EB030E22BFB61A754640EADC00E4
:1009200055EA060E18D04FEA051545EA16754FEA46
:1009300006164FEAC30343EA52734FEAC2025FEA64
:100940001C1CC0D111F4801F0BD141EA00014FF0F3
:1009500000004FF0004CB6E711F4801F04BF0143C4
:100960000020B4F1FD0C88BFBCF5E06F3FF6AFAEE0
:10097000B5EB030C04BFB6EB020C5FEA500C50F170
:10098000000041EB045170BD0EF0004E4EEA1131F3
:1009900014EB5C04C2BFD4EB0C0541EA045170BDFA
:1009A00041F480114FF0000E013C90E645EA060E3E
:1009B0008DE60CEA135594EA0C0F08BF95EA0C0F6C
:1009C0003FF43BAF94EA0C0F0AD150EA01347FF4B4
:1009D00034AF95EA0C0F7FF425AF104619462CE78B
:1009E00095EA0C0F06D152EA03353FF4FDAE1046EE
:1009F000194622E750EA410618BF52EA43067FF43F
:100A0000C5AE50EA41047FF40DAF52EA43057FF4CE
:100A1000EBAE12E74FF0FF3C06E000BF4FF0010CD9
:100A200002E000BF4FF0010C4DF804CD4FEA410C3D
:100A30007FEA6C5C4FEA430C18BF7FEA6C5C1BD00A
:100A400001B050EA410C0CBF52EA430C91EA030F8B
:100A500002BF90EA020F0020704710F1000F91EAE8
:100A6000030F58BF994208BF90422CBFD8176FEAB6
:100A7000E37040F0010070474FEA410C7FEA6C5C84
:100A800002D150EA013C07D14FEA430C7FEA6C5C8B
:100A9000D6D152EA033CD3D05DF8040B704700BFB7
:100AA0008446104662468C461946634600E000BF05
:100AB00001B5FFF7B7FF002848BF10F1000F01BDD7
:100AC0004DF808EDFFF7F4FF0CBF012000205DF8A2
:100AD00008FB00BF4DF808EDFFF7EAFF34BF012027
:100AE00000205DF808FB00BF4DF808EDFFF7E0FFC0
:100AF00094BF012000205DF808FB00BF4DF808ED11
:100B0000FFF7CEFF94BF012000205DF808FB00BF77
:100B10004DF808EDFFF7C4FF34BF012000205DF859
:100B200008FB00BF4FEA410C7FEA6C5C02D150EA3F
:100B3000013C0AD14FEA430C7FEA6C5C02D152EAD5
:100B4000033C02D14FF0000070474FF001007047A6
:100B50004FEA410212F5001215D211D56FF47873E5
:100B6000B3EB625212D94FEAC12343F0004343EA88
:100B7000505311F0004F23FA02F018BF4042704763
:100B80004FF00000704750EA013005D111F00040ED
:100B900008BF6FF0004070474FF00000704700BF83
:100BA0004A0011D212F5001211D20DD56FF47873EC
:100BB000B3EB62520ED44FEAC12343F0004343EA41
:100BC000505323FA02F070474FF00000704750EA8C
:100BD000013002D14FF0FF3070474FF000007047F6
:100BE0004FEA4102B2F1E04324BFB3F5001CDCF14F
:100BF000FE5C0DD901F0004C4FEAC0024CEA507087
:100C0000B2F1004F40EB830008BF20F001007047B5
:100C100011F0804F21D113F13872BCBF01F00040B8
:100C2000704741F480114FEA5252C2F11802C2F1EA
:100C3000200C10FA0CF320FA02F018BF40F001006B
:100C40004FEAC1234FEAD32303FA0CFC40EA0C001D
:100C500023FA02F34FEA4303CCE77FEA625307D15A
:100C600050EA01331EBF4FF0FE4040F44000704791
:100C700001F0004040F0FE4040F40000704700BF2B
:100C800053B94AB9002908BF00281CBF4FF0FF31F3
:100C90004FF0FF3000F0A0B9ADF1080C6DE904CEC3
:100CA00000F038F8DDF804E0DDE9022304B0704715
:100CB000430803F05533C01A830803F0333300F0C0
:100CC0003330184400EB101000F00F3000EB002020
:100CD00000EB0040000E7047D0B50C4B00220646DA
:100CE0000F46FFF785FCFFF75BFF0446FFF706FCA6
:100CF000074B0022FFF77CFC02460B463046394684
:100D0000FFF7BEFAFFF74CFF2146D0BD0000F03DD3
:100D10000000F0412DE9F047089D04468C46002B69
:100D200040F083808A42174647D9B2FA82F242B134
:100D3000C2F1200024FA00F09140974040EA010CF3
:100D400094404FEA1748230CBCFBF8F61FFA87FEC5
:100D500008FB16C143EA014306FB0EF1994209D98B
:100D6000FB1806F1FF3080F01981994240F216819C
:100D7000023E3B445B1AA4B2B3FBF8F008FB10330D
:100D800044EA034400FB0EFEA64509D93C1900F1D4
:100D9000FF3380F00581A64540F2028102383C44D1
:100DA00040EA0640A4EB0E0400261DB1D440002307
:100DB000C5E900433146BDE8F08702B9FFDEB2FA6B
:100DC00082F2002A50D1CB1B4FEA174E1FFA87F848
:100DD0000126B3FBFEFC210C0EFB1C3341EA034150
:100DE00008FB0CF38B4207D979180CF1FF3002D2C3
:100DF0008B4200F2E9808446C91AA3B2B1FBFEF02F
:100E00000EFB101143EA014408FB00F8A04507D986
:100E10003C1900F1FF3302D2A04500F2D9801846F8
:100E2000A4EB080440EA0C40BFE78B4209D9002D2F
:100E300000F0B1800026C5E9000130463146BDE82A
:100E4000F087B3FA83F6002E4AD18B4202D3824256
:100E500000F2B880841A61EB030101208C46002D5A
:100E6000A8D0C5E9004CA5E7C2F1200320FA03F69B
:100E7000974001FA02F04FEA174ED9403043030C75
:100E8000B1FBFEF61FFA87F80EFB161143EA014389
:100E900006FB08F1994204FA02F409D9FB1806F19D
:100EA000FF3C80F08D80994240F28A80023E3B44B4
:100EB0005B1A81B2B3FBFEF00EFB103341EA034133
:100EC00000FB08F38B4207D9791800F1FF3C73D27D
:100ED0008B4271D902383944CB1A40EA064678E78A
:100EE000C6F1200C03FA06F422FA0CF31C4320FA94
:100EF0000CF701FA06F34FEA144E21FA0CF11F43E6
:100F00003B0CB1FBFEF91FFA84F80EFB191143EA02
:100F1000014109FB08FA8A4502FA06F200FA06F3D3
:100F200008D9611809F1FF3048D28A4546D9A9F19C
:100F300002092144A1EB0A01BFB2B1FBFEF00EFB96
:100F4000101147EA014700FB08F8B84507D9E7192F
:100F500000F1FF312ED2B8452CD90238274440EA9F
:100F60000940A7EB0807A0FB02894F45C646494642
:100F70001AD317D05DB1B3EB0E0267EB010707FA86
:100F80000CFCF2404CEA0202F740C5E900270026BB
:100F90003146BDE8F0872E4628460BE70646E9E6CF
:100FA0001846FDE64345E5D2B8EB020E69EB0401B5
:100FB0000138DFE70846D2E760468DE78146B9E7AA
:100FC000664675E730464AE7ACF1020C394413E750
:100FD00002383C4424E700BF704700BF0000000017
:100FE00001F0FF01102A2BDB10F0070F08D010F8DA
:100FF000013B013A8B422DD010F0070F42B3F6D1DE
:10100000F0B441EA012141EA014122F007047FF0F6
:1010100000070023F0E80256083C85EA010586EA4D
:10102000010685FA47F5A3FA87F586FA47F6A5FA89
:1010300087F68EB9EED1F0BC01F0FF0102F0070295
:1010400032B110F8013B013A83EA010313B1F8D140
:101050000020704701387047002D06BF3546033821
:10106000073815F0010F07D1013015F4807F02BF5A
:10107000013015F4C03F0130F0BC0138704700BFAB
:1010800010F8012B11F8013B012A28BF9A42F7D032
:10109000D01A7047034613F8012B002AFBD1181A07
:1010A000013870477BB972B90029BEBF00204FF0EC
:1010B000004106E008BF00281CBF6FF000414FF060
:1010C000FF30FFF789BFADF1080C6DE904CE0029B0
:1010D00009DB002B1ADBFFF71DFEDDF804E0DDE97C
:1010E000022304B07047404261EB4101002B1BDB3F
:1010F000FFF710FEDDF804E0DDE9022304B0404212
:1011000061EB4101524263EB43037047524263EB90
:101110004303FFF7FFFDDDF804E0DDE9022304B03F
:10112000404261EB41017047524263EB4303FFF7DA
:10113000F1FDDDF804E0DDE9022304B0524263EB87
:101140004303704738B50022002304460D46FFF7DD
:10115000C1FC28B920462946BDE83840FFF7BCBD90
:10116000204605F10041FFF7B7FD404261EB410128
:1011700038BD00BF00B1807B704708B1C07B7047AD
:10118000FF20704708B1408970474FF6FF707047E5
:1011900008B1808970474FF6FF7070474268006859
:1011A000101A704700B50D4B5B68C3F308038BB092
:1011B00083B100212023CDE90231094B009302AA1B
:1011C0000B463C202AF0B0F8064A00210E2029F0F8
:1011D0000DF9FEE70BB05DF804FB00BF00ED00E089
:1011E000A4600B0059F4030007B50191FFF7DAFF83
:1011F000019803B05DF804EB07F0A8B907B50191B9
:10120000FFF7D0FF019803B05DF804EB07F080B85A
:1012100038B502FB01F5FFF7C5FF284607F096F940
:10122000044618B12A4600217CF002FF204638BD52
:1012300070B515460C46FFF7B5FF2DB9204607F0EF
:1012400067F82E46304670BD284607F07FF90646FF
:101250000028F7D0002CF5D02A4621467CF0C0FEAD
:10126000204607F055F8EDE7F8B50D460646FFF7BE
:1012700099FF284603F092FD07F0E4F80C4C20603B
:1012800007F0D4F827682062381AE06107F0D4F834
:10129000381A6061284603F0AFFD0FCC35460FC504
:1012A0000FCC0FC594E8030085E803003046F8BD75
:1012B0005067002038B504464518AC4207D000F00E
:1012C000E3FC036814F8011B9B689847F5E738BDF9
:1012D00010B50446006808B17CF032FE204610BD0F
:1012E00010B596B000F0D0FC4FF4165100F0A2FCFF
:1012F00001F008FB01F050FB01F004FB254A014618
:101300000DA801F089FE0DA801F0B8FB01F0FAFA72
:10131000214A01460DA801F07FFE0DA801F0AEFBA9
:101320000DA801F06BF91D4903A801F013F803A9FA
:1013300008A801F00FF808A801F052F8044608A820
:10134000FCB901F06CF80094ADF80A0002230DF12D
:101350000A0203210DA801F009F901F0D3FA0022D5
:101360000DA901F04FFB00210E202FF053FC0021AE
:1013700012202FF04FFC002104202FF04BFC16B060
:1013800010BD01F051F800230093024610230721FD
:10139000E0E700BFCC670020C4670020846700201E
:1013A00008B50E202FF05AFCFFF7B8F80AA3D3E9CE
:1013B0000023FFF71DF941EC100B7BF005FC08A39F
:1013C000D3E9002351EC100BFFF712F941EC100B9D
:1013D00008BD00BFAFF300807B14AE47E17A643FE5
:1013E000C520B07268F1204008B512202FF036FCFD
:1013F000FFF794F841EC100B08BD04202FF01BBC44
:1014000013202FF02BBC00001FB52749684602F0BF
:1014100068F92649684602F0E3F9FFF7F1FF014653
:10142000684602F0FBF92249684602F0D9F92149E1
:10143000684602F0D5F9FFF7B3FF684602F0FFF9FE
:101440001D49684602F0CCF91C49684602F0C8F90B
:10145000FFF7CAFF684602F0F2F91949684602F040
:10146000BFF91849684602F0BBF9FFF7C6FF01460D
:10147000684602F0D3F91449684602F0B1F901F068
:1014800041FA01F0DCFA20B110480022694601F06F
:101490007DF94FF4FA6000F0B8FC684602F0D6F827
:1014A00005B05DF804FB00BFBB600B00C2600B0021
:1014B000CF600B00D5600B00DD600B00E3600B001C
:1014C000F1600B00F5600B009F400C00CC67002022
:1014D000F0B5164691B00022C0E9002204460D4640
:1014E0000BAF194606A800F035FF1699384600F0F4
:1014F00031FF33788DF81430189B0293179B2046E8
:10150000CDE9007305AA06AB294601F00BFB204686
:1015100011B0F0BD2DE9F043324D334BAB600024E8
:1015200091B0324E2C60AC80AC71022023F0D6FB1F
:1015300028462F4D2F49DFF8EC802F4FDFF8E89039
:10154000324662F0BBFA284662F0C4FA28462B4DB8
:101550002B49324662F0B2FA2A49284600F0FAFFD7
:101560002949404600F0F6FF2849384600F0F2FFCE
:101570001023394606A88DF8143000F0EBFE2946FA
:101580000BA800F0E7FE224F22490BAB009305AAFF
:1015900006ABCDE901444846FFF79AFF324639468B
:1015A000484662F08BFA0423414606A88DF81430B1
:1015B00000F0D0FE29460BA800F0CCFE164D174BCC
:1015C00001930BAB009305AA06AB1549029428467C
:1015D000FFF77EFF32463946284662F06FFA11B0B7
:1015E000BDE8F083786700200000FFFF606B0020FB
:1015F000C0670020D1120300AC6700208467002080
:10160000ED3B0900FE600B0023610B0048610B00FD
:101610007D2A03006D610B00C4670020B512030032
:1016200070610B0098670020CC67002070470A6843
:101630000B469268014618461047000010B5054B4E
:1016400000220446114640F8043B29F071FF204671
:1016500010BD00BF7C610B0010B50446FFF7EEFF24
:101660002046202162F02FFA204610BD70B50E4CA6
:10167000046000251C24C0E901459DF814409DF834
:101680001060C56004F0030444EA8604E4B2047404
:10169000427485744161427C0F2A0ABF034B038365
:1016A000C0E9063070BD00BF7C610B002F1603003F
:1016B000002340681A4620F061B9406800220221E8
:1016C0001FF0D4BF0022406811461FF05FBF002208
:1016D000406811461FF012BF002340681A461946A1
:1016E00020F022B8002340681A46194620F040B87E
:1016F0004068002281F0010120F08AB84068002291
:101700001FF06CBF0022406811461FF068BF002226
:10171000406811461FF065BF2DE9F043002495B0E5
:1017200016460D46074600F013FB214618220EA868
:1017300000947CF07DFC4023CDE90C3421466B46BF
:101740000CAA304618F09EFB0446002846D10246FB
:10175000012168681FF0D2FE022180462246686897
:101760001FF0CCFE009E81462146002E36D0002977
:1017700034D17368022B03D00A2B0BD0F669F4E73F
:10178000B8F1000F04D071693846043100F00DFB48
:101790004146F3E7B9F1000F01D14946EEE774691C
:1017A000102201A87CF044FC06238DF8143001AD12
:1017B00004F108031834186859682A4603C208332C
:1017C000A3421546F7D101A906A807AD00F0CEFA4D
:1017D0000FCD3C1D0FC42B682370DEE7009818F076
:1017E0004FFB384615B0BDE8F0830000024B034ABA
:1017F0001A6000225A607047D467002090610B0085
:101800007047012070470022406811461FF076BEE5
:1018100010B52421044662F056F9204610BD00227E
:10182000406811461FF0DDBE0022406811461FF0DF
:10183000D6BE406800221FF0D1BE4068002281F071
:1018400001011FF0E5BF002340681A4619461FF04A
:101850008FBF002340681A4619461FF065BF00225B
:10186000406811461FF092BE4068002202211FF01E
:10187000FDBE002340681A4620F080B883897BB102
:101880004369002B0CDB07EE903A9FED077AF8EEE8
:10189000E77A87EE870ADFED057A20EE270A7047A0
:1018A000BFEE000A704700BF00FF7F470000C8423C
:1018B000838963B10369B3F1004F08D007EE903A12
:1018C0009FED047AF8EEE77A87EE870A70479FED7E
:1018D000020A70470000C8420000000083897BB103
:1018E000036A002B0CDB07EE903A9FED077AF8EEC7
:1018F000E77A87EE870ADFED057A20EE270A704740
:10190000BFEE000A704700BF00FF7F470000C842DB
:10191000838963B18369B3F1004F08D007EE903A31
:101920009FED047AF8EEE77A87EE870A70479FED1D
:10193000020A70470000C8420000000070B50C4663
:10194000064600F10C050FCC0FC594E8030085E8AE
:1019500003003369B3F1004F0EBF0223642293FBEF
:10196000F2F37360B369B3F1004F0CBF002364223C
:101970004FF0010018BF93FBF2F3B36070BD00009D
:101980002DE9F041164B036000250F464FF0020889
:101990001826C0E9018586B03246294604460C3037
:1019A0007CF046FB78682A4629461FF0A7FD80B1E7
:1019B0003246294668467CF03BFB2A466946284663
:1019C000ADF8006007F0CEF838B969462046FFF759
:1019D000B5FF204606B0BDE8F081C4F80480F8E702
:1019E000F8610B00024B04225A60024A1A607047E9
:1019F000DC670020C4610B0010B5044628B17DF0FF
:101A000021F890FBF4F303FB1404204610BD884238
:101A100010B5044603DA081AFFF7EEFF0444204627
:101A200010BD7047F8B5064615460C468F18BC42E7
:101A300006D0336814F8011B9B6830469847F6E7D8
:101A40002846F8BD007C002212F0ECBC007C00218E
:101A500012F010BD007C002112F026BD007C002198
:101A600012F044BD007C002112F060BD10B51421BD
:101A7000044662F028F8204610BD000010B54FF46F
:101A80007A73044608460021C4E90113034B23601E
:101A90002074114612F062FD204610BD24620B0036
:101AA00010B5044600687CF04BFA204610BD0B6868
:101AB000036013B15A6801325A60704738B5046840
:101AC00005467CB16368013B63605BB923682046CF
:101AD0009B689847A368013BA3601BB92368204615
:101AE000DB689847284638BD38B50D1E04460068A7
:101AF00003DD7CF0FFFF18B938BD7CF021FA00202F
:101B00002060A5600120F7E72DE9F0410F4641680C
:101B10001D461944836899420446904612DC2668A3
:101B200062683E44D21B314670197CF067FA2A463F
:101B3000414630467CF054FA63682B4463600120D0
:101B4000BDE8F081FFF7D0FF0028E8D1F8E708B53D
:101B500013460A464168FFF7D7FF08BDF8B5D0E93C
:101B600001539D4204460E460CDA276862687919D3
:101B7000521B481C7CF042FA7E5563680133636057
:101B80000120F8BD691CFFF7AFFF0028EDD1F8E791
:101B900041747047704708B50021007C0DF002FCCD
:101BA00040EAE07008BD08B50121007C0DF0FAFBA9
:101BB00040EAE07008BD08B5007C0DF0F1FB20EABA
:101BC000E07008BD08B5007C0DF0E8FB20EAE0708D
:101BD00008BD13B50446007C01910DF0E1FB00281F
:101BE000019901DC607C20B1207C0DF0EBFB20EA48
:101BF000E07002B010BD007C0DF0EFBB10B51421F9
:101C0000044661F060FF204610BD000010B54FF49F
:101C10007A73044608460021C4E90113044B23608B
:101C200001232074637411460DF082FB204610BD21
:101C30004C620B00007C00220DF0A4BB007C0DF078
:101C4000ABBB10B51422044600217CF0F1F920460C
:101C500010BD000010B500224FF47A73C0E90123D3
:101C6000084B036086B004464FF48073038201A8DA
:101C7000FFF7E7FF207C01A90DF05AFB204606B0D4
:101C800010BD00BF4C620B0010B5104C88B003A80B
:101C9000FFF7D7FF2178BFF35B8F11F0010111D15E
:101CA000204601910DF024F9019958B103AA084882
:101CB000FFF7ACFF20460DF07DF9064A06490448BF
:101CC00061F0FCFE024808B010BD00BFE4670020D0
:101CD000E8670020606B0020951B0300704710B57B
:101CE0001821044661F0EFFE204610BDF0B5037DDB
:101CF000062B8DB00E4600F104074FF0000412D001
:101D000000F1080515F8011D0A22304600F0F0F92F
:101D1000AF42044419D0002CF4D02E21304600F0FC
:101D2000CEF90444EEE72F236A4639460A208DF89F
:101D3000004019F046F96846FFF7ACF933680246EF
:101D4000DB68694630469847044620460DB0F0BD32
:101D500010B5054B0446112240F8043B00217CF0ED
:101D600067F9204610BD00BF7C620B000346074A9E
:101D700010B543F8042B01F1100251F8044B43F85D
:101D8000044B9142F9D10A781A7010BD7C620B00A5
:101D900010B59DF8084044EA032343EA024242EAB0
:101DA000016104234160037510BD13B5CB78009326
:101DB0008B784A780978FFF7EBFF02B010BD10B5B9
:101DC0008368044613B1032201469847204610BD9C
:101DD00030B5CA788D784C68003A18BF0122C0E946
:101DE0000054027230BD13B50B460246D0E9000123
:101DF0006C4684E8030093E8030082E8030094E85B
:101E0000030083E8030002B010BD002124F07CBE73
:101E1000014B1860704700BF1465002008B50B4BDC
:101E200043B1FFF731FF03681B699847002801DDC4
:101E3000AFF30080064B43B101F07EFA03681B69E3
:101E40009847002801DDAFF3008008BD00000000C6
:101E50000000000008B5FFF7E1FF10F0E0F9014BCA
:101E6000186008BDE09B00200248034A0349121A8B
:101E70007CF0B6B800F4032004F40320F0B00C00AA
:101E800007B5002300931A466FF0770125F0B8FBE1
:101E900003B05DF804FB000007B543880A2B08D0A7
:101EA000502B0BD1094B1B684BB103B05DF804EB11
:101EB0001847FFF7E5FF03B05DF804FB002300932C
:101EC0001A466FF0770125F09BFBF4E700680020CD
:101ED00038B5124C1248134D00211BF0B1F823689D
:101EE000AB42114B0CBF012200221A7002D0FFF747
:101EF000BBFF25600DF0A2FA04467CF07FFD0B4B82
:101F000013B12046AFF30080002108481EF0C8FC42
:101F1000BDE838400648002125F068BB00F40320E6
:101F2000111E03001E1C279AFC6700200000000001
:101F3000991E030010B50446FFF741FF204610BD6F
:101F400010B5044628F0E6FB844208D01CB1BDE879
:101F5000104028F0C5BBBDE8104028F0FDBA10BD08
:101F600070B505460E46144628F0D4FB50B144EA3D
:101F7000062040EA054028F0E9FABDE87040E72075
:101F800028F044BB70BDC2B2C0F30721C0F30740C4
:101F9000FFF7E6BF0348044A04490023836061F069
:101FA0008DBD00BF04680020606B0020351F03005A
:101FB00038B5002383608B6804460D462BB102229E
:101FC0009847EB68E360AB68A360204638BD00002B
:101FD000024B1A68024B1A60704700BF005E002077
:101FE00014680020014B024A1A60704718680020EC
:101FF000A4620B002DE9F84306460C4691461F46A5
:1020000010F00DF9002580469FB9336830461B69F2
:1020100098470028F8DD336830465B6998474D459E
:10202000C1B203D00D2901D00A290AD1002323709F
:1020300005E010F0F4F8A0EB0800B842E5D9BDE8DF
:10204000F883082901D07F2909D1002DDCD0013C7B
:10205000013D336830469B68EDB29847D4E704F8F9
:10206000011B0135F5E7F8B506460D468F1800242B
:10207000BD420CD0336815F8011B9B683046984769
:10208000031E01DB1C44F3E7002C08BF1C4620465E
:10209000F8BD13B50446084659B10191FEF7FAFFA1
:1020A00023680199DB680246204602B0BDE8104073
:1020B000184702B010BD08B5FFF7EBFF08BD036875
:1020C0009B68184738B50D210546FFF7F8FF0A2130
:1020D00004462846FFF7F3FF204438BD38B50546CF
:1020E000FFF7D7FF04462846FFF7ECFF204438BD32
:1020F00030B58BB000238DF82430012A98BF0A2216
:1021000009AC0D46B1FBF2F101FB125303F0FF03E2
:10211000092B94BF30333733DBB2AA4204F8013DB8
:10212000EFD92146FFF7B5FF0BB030BD2DE9F041E7
:1021300086B000AF05460E46381D142114463B609C
:102140007FF08CF813280ED8391D2846FFF7A1FF21
:1021500004461EB12846FFF7B5FF04442046183751
:10216000BD46BDE8F08100F1080323F00703E8460F
:10217000ADEB030D2246411C3B6868467FF06EF8CC
:1021800069462846FFF785FF0446C546E1E77047E4
:102190007047704770470000064B994210B500F138
:1021A0000C0405D0084667F0D1FF002808BF0024C2
:1021B000204610BD14620B00064B994210B500F189
:1021C0000C0405D0084667F0C1FF002808BF0024B2
:1021D000204610BD14620B00064B994210B500F169
:1021E0000C0405D0084667F0B1FF002808BF0024A2
:1021F000204610BD14620B00483001F027BA10B51C
:102200006021044661F05FFC204610BD10B524211A
:10221000044661F058FC204610BD10B5302104463C
:1022200061F051FC204610BD10F07EBA10F07CBA6F
:1022300010F07ABA10B50446006808B110F079FDC4
:10224000204610BDF0B50025EC1C8C420DD86E1C4C
:10225000445D875D974205D12644B14205D31D6098
:10226000601CF0BD01342544EEE70020F9E70000D2
:1022700010B520238AB00024CDE90234074B009327
:1022800002AA234606493C2029F04EF8054A214679
:102290000A2028F0ABF80AB010BD00BFCF620B00D7
:1022A000A8620B0059F40300A0F13003DAB2092A46
:1022B00001D818467047A0F16103052B01D85738A3
:1022C0007047A0F14103052B94BF37384FF0FF3022
:1022D0007047000010B500230370044B04461868D3
:1022E00010F02CFD01232370204610BD246800202F
:1022F00010B5037804461BB1024B186810F02DFD91
:10230000204610BD246800200022426002608271D5
:10231000704708B582798B799A4206D106227BF004
:1023200051FEB0FA80F0400908BD0020FCE7000033
:1023300001220261064A11680160516841601189F9
:10234000927A827200220181C0F80B20C27370471A
:102350009C5C0B0010B50B69036101F11002034690
:1023600051F8044B43F8044B9142F9D110BD10B51C
:102370000B460446B1B1012A01F110020AD101460F
:1023800053F8040B41F8040B9342F9D10123236164
:10239000204610BD411E12F8010D01F8010F9A42AE
:1023A000F9D1F3E710227BF043FEF1E738B504469C
:1023B00015461A46FFF7DBFFA581204638BD000011
:1023C00008B5026922B98089003818BF012008BD0C
:1023D000024910227BF0F6FDF6E700BFB8640B005F
:1023E0000069704738B50C461422002105467BF081
:1023F0001FFE23693BB9627B2B74237B43EA0223D4
:102400002B80284638BD01232B7404F110022B4683
:1024100054F8041B43F8041B9442F9D1F1E7427BC2
:10242000007B40EA02207047704710B50B690361DA
:1024300001F11002034651F8044B43F8044B91425A
:10244000F9D110BD10B586B00446012201A8FFF7EE
:102450008EFF01A92046FFF7E8FF06B010BD08B5C2
:1024600002690B699A4206D110227BF0ABFDB0FAEB
:1024700080F0400908BD0020FCE7000001232DE9A1
:10248000F3410361324B1A6802605A6842600025CA
:102490001A899B7A028104468372C0F80B50C57377
:1024A0000E4621B3242130467DF02BFB042821D198
:1024B000ADF8045001AFB51C063615F8020CFFF755
:1024C000F3FEB0F1000810DB15F8010CFFF7ECFE8D
:1024D00000280ADB023540EA0810AE4207F8010B7B
:1024E000EBD1BDF804305BBAA3810023236102B0B5
:1024F000BDE8F0811027242130467DF002FBA84280
:1025000006D827440023BC42F1D007F8013DFAE782
:10251000002FECD0705DFFF7C7FE030615D4000155
:10252000013F5FFA80F804F80780242130467DF0EF
:10253000E8FA0135A84208D9705DFFF7B5FE40B250
:102540000028A4BF40EA0800E0550135D3E700BFEA
:102550009C5C0B0013B504460191FFF7E9FE204691
:102560000199FFF78BFF204602B010BD2DE9F3471C
:1025700089469DF82870016A04461E46904632B38B
:1025800001AB4A46FFF75EFE256AB31C1FBB10B3C2
:10259000EF183F1A1F2F19D8DDF8049009F1020A2D
:1025A000A5EB0902121A00EB090106EB0A0092B230
:1025B000214420447BF022FD731C04F8093032468C
:1025C000414604EB0A007BF00BFD2762216A0846B6
:1025D00002B0BDE8F0872B441F2BF7D8731C63555E
:1025E000A81C25442062324685F8019041462044CB
:1025F0007BF0F6FC236A33442362E7E71FB5044609
:10260000024600F11F01002302F8013B9142FBD179
:1026100023620093062201238DF80F2019460DF145
:102620000F022046FFF7A2FF204604B010BD73B58D
:102630000A460E4601AB016A0446FFF703FE054653
:1026400078B10198226A4119121A2144521B204480
:102650007BF0C6FC206A401B206231462046FFF713
:10266000E6FF02B070BD000038B54FF6FF730025DD
:10267000044643800E2229460570057106307BF022
:10268000D7FC04F11400FFF753FE04F12800FFF714
:102690004FFE044904F13C0001F023F8C4E913554E
:1026A000204638BD273F0C0010B5D0E9063203EBB9
:1026B000C2029342184606D0046824888C4203F173
:1026C0000803F6D110BD0020FCE70000F0B5064677
:1026D00085B01F460D46002950D0002A4ED0046810
:1026E0002378F42A28BFF42243B32379980709D525
:1026F000A0890392002315F009FE0028039A03DA4B
:1027000005B0F0BD6FF0770034682379D90609D59C
:10271000012F07D0A0890023294605B0BDE8F0406D
:1027200015F024BE9B06EBD5022FE9D0A08900232B
:10273000294605B0BDE8F04015F04ABE60884FF666
:10274000FF7188421CD021794E0701D5012F04D199
:102750000B0709D46FF07700D2E7A18900931346E5
:102760002A4615F09BFECBE7022FF3D00023A18968
:10277000009313462A4615F05DFEC1E70248BFE705
:102780006FF0D100BCE700BFF2FEFFFF13468A687E
:102790000968FFF79BBF00002DE9F0414FF00008EA
:1027A000C0F80080054624200F460FF0B9FF041E34
:1027B00004F10C060DD00123C4E90133074B23605B
:1027C0003046FFF7B5FDC4F8208039463046FFF7A4
:1027D0002CFEC5E900642846BDE8F08178640B0052
:1027E00038B500240460054630200FF099FF0346F9
:1027F00088B10122C0E90122094A02604FF6FF7246
:1028000082810E30FFF780FDC3E90644C3E9084426
:10281000C3E90A44DC826B600C332B60284638BD68
:1028200094640B00096851F8022F02604A68426004
:1028300070471FB50B4601681A68098812889142D3
:102840000CD101466846FFF7EDFF02A81946FFF7D5
:10285000E9FF02A96846FFF75CFD00B9002005B05A
:102860005DF804FB30B505468BB034200FF058FFFF
:10287000044668B10023C0E90033C0E90233C0E96F
:102880000433C0E90633C0E90833C0E90A330363FF
:102890002C607CB92023CDE90234154B15490093F7
:1028A00002AA3C20234628F03FFD134A21460A2075
:1028B00027F09CFD002015F0E7FF80B100242023C5
:1028C000CDE902340D4B0B49009302AA3C2023466C
:1028D00028F02AFD084A21460A2027F087FD2968AA
:1028E0000748002215F09AF928460BB030BD00BF0A
:1028F000CF620B00A8620B0059F40300E6620B00E4
:10290000152D030010B50B4C2378BFF35B8FDB074D
:102910000ED420460CF0ECFA50B10748FFF7A2FFA6
:1029200020460CF047FB054A0549034861F0C6F80C
:10293000014810BD1C68002028680020606B002042
:10294000E72A030070B50368093B012B8AB00446EF
:102950000D4612D8FFF7D6FFA1880068FFF7A4FE46
:10296000024660B92023CDE90230094B00930949A2
:10297000034602AA322028F0D7FC0AB070BDEE6CE4
:10298000002EFAD0D4E903102B6DB047F5E700BF55
:1029900028630B00A8620B0013B501A8FFF79AFC8F
:1029A000002015F071FF044601A8FFF7A1FC04EA1E
:1029B000E47002B010BD084611B90A4615F07CBAA1
:1029C000096A0022FAE707B5084629B90A4603B0A2
:1029D0005DF804EB15F0D2BA01210190FFF727FE54
:1029E00001980022016AF2E713B501A8FFF772FC13
:1029F000002015F025FB044601A8FFF779FC2046CE
:102A000002B010BD7FB5054603A801911646FFF739
:102A100061FC01992846FFF7CEFF041E09DB314611
:102A20002846FFF7D0FF041E03DB2846FFF7DCFF34
:102A3000044603A8FFF75CFC204604B070BD0368A1
:102A4000D8690028D4BF00200120704710B551F884
:102A5000043B044640F8043BFFF729F823680BB910
:102A6000FFF706FC204610BD10B551F8043B0446A4
:102A700040F8043BFFF71BF8204610BD10B5044694
:102A80000430FFF71BF8204610BD70B5D0E90053A5
:102A9000044605EBC306AE4204D0281DFFF70EF82E
:102AA0000835F8E720687BF04BFA204670BD70B51A
:102AB000D0E90053044605EBC306AE4204D0281DFE
:102AC000FEF7FCFF0835F8E720687BF039FA20466E
:102AD00070BD10B504462430FFF7E9FF04F118007B
:102AE000FFF7D3FF10BDF8B504680646C4B1D4E9BA
:102AF000065305EBC307AF4204D0281DFEF7DEFFE7
:102B00000835F8E7A0697BF01BFA04F10C00FFF729
:102B1000CEFF2046FFF7B9FF3421204660F0D3FFF7
:102B20003046F8BD2DE9F0438DB0804699466020CF
:102B300000230D46164602930FF0F2FD041E04F129
:102B40000C071CD0224B23600122C4E901223678F5
:102B50003846FFF789FD2946267404F1480000F045
:102B600016FE159BA365169BE365494604F12000FC
:102B7000FFF75BFC149904F13400FFF756FC0023C7
:102B8000CDE90233D8F800300493C8F80070D8F8C3
:102B90000430C8F8044005A80593FEF78FFF03A88A
:102BA000FEF78CFFD8F800407CB92023CDE904342F
:102BB000084B0949009304AA3C20234628F0B4FBA3
:102BC000064A21460A2027F011FC0DB0BDE8F0832B
:102BD0005C640B00CF620B00A8620B0059F4030089
:102BE0008842F8B506460C46154618D9904217D2C9
:102BF000A2F10805A1F10807691A4418AF4220D0D4
:102C00002E1D34B120462B6840F8043B3146FEF7B8
:102C10004EFF3046FEF752FF083D083CEEE710D06D
:102C2000AC420ED0271D36B13046236840F8043B35
:102C30003946FEF73CFF3846FEF740FF08340836B9
:102C4000EEE7F8BD2DE9F041D0E90043054688469E
:102C500004EBC307A7421AD041462046FFF7E9FD1F
:102C6000064608B90834F5E79CB1201DFEF726FF9B
:102C7000D5E9003204F1080103EBC2022046FFF758
:102C8000AFFF6B68013B6B603046BDE8F08100260A
:102C9000FAE72646F8E7F7B5044651F8043B4768DB
:102CA000009301A8FEF703FFD4E901639E4212DB03
:102CB0000136002E2CDDF0007BF03AF9054608B312
:102CC000D4E9001201EBC202FFF78AFF20687BF013
:102CD00037F92560A6602668626806EBC70506EB33
:102CE000C202294605F10800FFF77AFF35B1009BC3
:102CF00046F8373001A9281DFEF7D9FE6368013375
:102D00006360012501A8FEF7D9FE284603B0F0BD97
:102D10000025DBE72DE9F04104468EB003A80D46FF
:102D2000FFF7D8FA2368032B07D0042B48D003A859
:102D3000FFF7DEFA0EB0BDE8F08104A8FFF750FD02
:102D4000049B22891A806268049952F8083FC1F8EE
:102D500002305368C1F8063007A8049B069305A902
:102D6000FEF7A5FE06A905F11800FFF794FF04463B
:102D700007A8FEF7A3FE202306938CB9334B3449F2
:102D800000933220234606AA079428F0CDFA049B2C
:102D90002146188815F046FA05A8FEF78FFEC6E70B
:102DA0002C4A009200232A49079306AA012028F002
:102DB000BBFA6B6A002BEFD0E96A04A89847EBE7EF
:102DC00021892846FFF770FC06460028AFD004682A
:102DD000D4E906314FF6FF72228003EBC10199421C
:102DE00003D053F8080B4280F9E7D4E9037307EBEB
:102DF000C308B84504D0381DFEF760FE0837F8E771
:102E000000232361D4E9067307EBC308B84504D057
:102E1000381DFEF753FE0837F8E70023E3616381AE
:102E2000AB6A13B1296B3046984700232022CDE9C5
:102E30000623094A0092064906AA012028F074FADE
:102E4000314605F11800FFF7FDFE70E740630B0007
:102E5000A8620B0066630B0083630B008842F8B521
:102E600004460D46164614D9904213D2A2F1080624
:102E7000751AA1F108072C44B74218D01CB131468D
:102E80002046FFF7F1FD301DFEF718FE083E083C16
:102E9000F2E70CD0B5420AD01CB129462046FFF714
:102EA000E3FD281DFEF70AFE08350834F2E7F8BDF9
:102EB00070B50E1E054611DDF0007BF039F80446B2
:102EC00058B1D5E9001201EBC202FFF7C7FF28682D
:102ED0007BF036F82C60AE60012070BD0024F6E770
:102EE00073B5044645686846FFF7BEFDD4E9011393
:102EF000994210DA2368626803EBC50503EBC2024E
:102F0000294605F10800FFF7A9FF8DB96368013371
:102F10006360012606E001312046FFF7C9FF06463F
:102F20000028E7D101A8FEF7C9FD304602B070BD08
:102F300069462846FFF798FDE8E78842F8B5044659
:102F40000D46164614D9904213D2A2F10806751AFE
:102F5000A1F108072C44B74218D01CB131462046D5
:102F6000FFF774FD301DFEF7A9FD083E083CF2E7AF
:102F70000CD0B5420AD01CB129462046FFF766FDA9
:102F8000281DFEF79BFD08350834F2E7F8BD70B543
:102F90000E1E054611DDF0007AF0CAFF044658B156
:102FA000D5E9001201EBC202FFF7C7FF28687AF0EB
:102FB000C7FF2C60AE60012070BD0024F6E773B53A
:102FC000044645686846FFF741FDD4E9011399427C
:102FD00010DA2368626803EBC50503EBC2022946D9
:102FE00005F10800FFF7A9FF8DB96368013363603D
:102FF000012606E001312046FFF7C9FF06460028FA
:10300000E7D101A8FEF75AFD304602B070BD69460F
:103010002846FFF71BFDE8E72DE9F04F1646A1B063
:1030200080460AA80D46FFF755F93468237953B94D
:1030300031464046FFF70AFD0AA8FFF759F9404616
:1030400021B0BDE8F08F2B68D3E9037307EBC3030E
:10305000039304F1280904F1140B039B9F4221D030
:10306000D7F800A058460AF11401FFF7F8F9B8B1F3
:103070000AF128014846FFF7F2F988B12368DAF827
:103080000020534033F47F430AD12022CDE9152399
:10309000674A009215AA6749322028F045F9C7E728
:1030A0000837DAE74846FFF78BF970B92023CDE9F6
:1030B0001530614B5F49009315AA0346012028F0A3
:1030C00033F95E494846FFF7BDF92B68D3E9007331
:1030D00007EBC30B5F45BA4649467ED057F8080B4D
:1030E000FFF7BDF90028F5D004F114073846FFF7C3
:1030F00067F9C0B92023CDE91530514B4D490093F4
:1031000015AA0346012028F00FF94E4B4B491A88A7
:10311000013292B21A8015A80123FFF747F915A9C9
:103120003846FFF782F92822002116A87AF080FF9E
:10313000454B1593394604A8FFF754F904AB18AA78
:103140000DF1200C18685968174603C7083363450A
:103150003A46F7D11868386023798DF85830DAF894
:1031600000309B8AADF87430E36B1793374B002225
:10317000A11D15A8CDE91E3415F0F8FF034600285F
:103180007FF456AF0120324A20702A49009220274E
:103190000DAACDE90D7328F0C7F82C6831460C3420
:1031A0000DA8FFF753FC20460DA9FFF708FF0446C2
:1031B0000EA8FEF783FC002C7FF43AAF254B00935A
:1031C000CDE90D7423460DAA65E731464046FFF769
:1031D0003DFC0CA8FEF772FC2EE70BA8FFF7DCFA0B
:1031E000494615A8FFF7FEF80B9A0023143215A9DB
:1031F000012015F05BF80028E7D12F680BA90DA876
:10320000FFF732FC38460DA9FFF76AFE07460EA805
:10321000FEF754FC002FD8D02A685368126803F1D7
:103220000053013B0CA802EBC30AFEF747FC5BE727
:10323000A2630B00A8620B00CD630B00A8640B0017
:10324000EA630B002068002001002C0045290300E0
:103250000E640B002C640B0010B5064C00232046B6
:1032600023600FF05CFD2046034A0449BDE810408E
:1032700060F024BC24680020606B0020352203002D
:1032800070474174704708B5007C0DF08FFF20EA4D
:10329000E07008BD08B5007C0DF041FE20EAE0704A
:1032A00008BD08B5007C0DF051FF40EAE07008BD94
:1032B00008B5007C0DF0E0FE40EAE07008BD007C3F
:1032C0000DF0C2B937B5457C04462DB1207C03B062
:1032D000BDE830400EF03EB8007C01910DF066FF75
:1032E00000280199F2DC284603B030BD10B5142146
:1032F000044660F0E8FB204610BD000010B54FF01A
:10330000000C0446084611464FF47A72C4E901C223
:10331000044A22600122207462741A460DF028FAD1
:10332000204610BDD0640B00007C00230DF0E8BCEB
:103330000022FFF7F9BF000013B50E4C2178BFF350
:103340005B8F11F0010112D1204601910BF0D0FDED
:10335000019960B1084A094B0948FFF7CFFF2046A1
:103360000BF028FE074A0849054860F0A7FB04480F
:1033700002B010BD2C68002030680020B468002026
:1033800038690020606B00208132030010B50446CC
:10339000FDF780FE013823182046834206D90278C3
:1033A000197800F8011B03F80129F6E710BD70B584
:1033B0000C46911E2229054622D820466DB1B5FB48
:1033C000F2F602FB1655E9B2092D94BF30315731A0
:1033D000C9B200F8011B3546F0E70246234430210C
:1033E000934202D902F8011BFAE71A1A834238BF46
:1033F0000022002383542046FFF7C8FF204670BDFB
:103400000020FCE738B5031E0C4615460EDAB3F172
:10341000004F4FF02D0214BF5842184601230A7086
:103420002A461944FFF7C3FF204638BD0123F9E7B8
:1034300007B50022034600921146042021F07EFCCD
:1034400003B05DF804FB07B5002203460092114665
:10345000022021F073FC03B05DF804FB08B1024BBD
:103460001868FFF7F0BF00BF5869002007B50B468A
:1034700000210246009101208C2121F05FFC03B065
:103480005DF804FB01460020FFF7F0BF0020FFF7C6
:10349000F9BF07B50022034600921146032021F030
:1034A0004DFC03B05DF804FB10B5094B094C02223A
:1034B00000201A60084B2060A080A071A36021F05A
:1034C0000DFC2046054A0649BDE8104060F0F6BAFA
:1034D000586900204C6900200000FFFF606B00204D
:1034E000D11203000EB403B503AB002153F8042B33
:1034F0000193FEF71BFE02B05DF804EB03B07047CA
:1035000010B50446084621700BF07EFC0023636072
:10351000204610BD0022406811461EF062B800220D
:10352000406811461EF05BB8406800221EF056B895
:103530004068002281F001011EF06AB90023406852
:103540001A4619461EF014B9002340681A46194657
:103550001EF0EAB80022406811461DF0CFBF0022DD
:10356000406811461EF012B84068002202211EF089
:103570007DB8002340681A461EF000BA024B0322B1
:103580005A60024A1A6070475C69002000650B00AF
:103590002DE9F04757EC106B80460C4610EE100AF0
:1035A000002200233946FDF795FA28B107F10043C0
:1035B0001F462D2304F8013B00234FF001090A2286
:1035C000D9B2884503D902FB09F90133F8E7484627
:1035D000FCF7A4FF32463B46FDF70AF806460F46C5
:1035E000FDF77AFB05468A46FCF7CCFF02460B4600
:1035F00030463946FCF744FE134B0022FDF77EFAB5
:1036000010B101354AF1000A4A462846D3175146FF
:10361000FDF736FB0123154621460A22FFF7C7FEB8
:10362000B8F1000F0DD02046FDF734FD2E232118F0
:1036300023540A22434628460131BDE8F047FFF7EC
:10364000B6BEBDE8F08700BF0000E03F10B50446FD
:1036500000687AF075FC204610BD10B5044600687D
:1036600008B17AF06DFC0023C4E90133236010BD7A
:1036700038B504460D46006801317BF03BFA10B1C5
:10368000C4E90005012038BD10B50368044623B124
:1036900043688B4201D3012010BD2046FFF7E8FFAD
:1036A0000028F9D0A368002BF5D122681370F2E747
:1036B00037B50D46114601920446FFF7E5FF019A22
:1036C00028B92046FFF7C9FF204603B030BDA260ED
:1036D000294620687AF084FC2268A3680021D1542E
:1036E000F2E7002313B5C0E9003304468360037397
:1036F00041B108460191FDF7CDFC019902462046F3
:10370000FFF7D6FF204602B010BD38B50546006869
:103710000C4668B16A688B689A4207D309687BF0E7
:1037200013FCA368AB600023A36038BD7AF008FCEB
:1037300023682B6063686B60A368AB600023C4E9F7
:103740000033F1E710B50023C0E90033044683607D
:103750000373FFF7DAFF204610BD884210B5044618
:1037600005D00B682BB18A681946FFF7A1FF2046E8
:1037700010BDFFF772FFFAE710B500230446C0E959
:10378000003383600373FFF7E8FF204610BD13B5D5
:10379000044659B108460191FDF77CFC01990246A7
:1037A0002046FFF785FF204602B010BDFFF755FF0A
:1037B000F9E770B505460E4609B9002070BD6AB13B
:1037C000846814442146FFF75FFF0028F5D028687D
:1037D000AB68314618447BF0B7FBAC600120EDE7E5
:1037E00013B50446084651B10191FDF753FC019908
:1037F0000246204602B0BDE81040FFF7DABF02B033
:1038000010BD07B500238DF80410012201A98DF821
:103810000530FFF7CEFF03B05DF804FB13B50A22B5
:10382000044608466946FFF7EDFD6846FDF732FCA1
:10383000694602462046FFF7BCFF02B010BD10B536
:1038400086B001A904460620FFF7A2FE01A8FDF7F5
:1038500021FC01A902462046FFF7ABFF06B010BDD0
:103860000EB470B587B00BAD044655F8042B019229
:103870002B46052104A803957DF0F0FC0B49064674
:103880002046FFF72EFF31462046FFF7FDFE206859
:1038900030B1019A03952B46711C7DF0DFFCA060CE
:1038A000204607B0BDE8704003B07047273F0C00CA
:1038B00000487047045E002001F0070170B5C1F1B7
:1038C0000704CD1C032C28BF0324062D8CBF04390C
:1038D00000214FF0FF3520FA01F605FA04F405FA4D
:1038E00001F126EA040420EA01001460186070BDAA
:1038F00010B5094C002304F1140084F83030E36261
:1039000084F82530A36284F831304BF028FA201D6A
:10391000BDE810404BF023BAAC6A00200028ABBFD2
:1039200000F1604000F00F0000F56140034BACBFB8
:1039300090F80003185C4009704700BF14ED00E0E8
:10394000044B5978814204D09A6B58700AB1D96BF4
:1039500010477047AC6A00202DE9F04F1C4C94F8DA
:1039600030308BB003F0FF079BB1E2682169E36A56
:103970000B449B1A2289934228D8DFF85C80DFF839
:103980005CA0DFF85CB0002504F10409E36A9D4205
:1039900003D338460BB0BDE8F08F18F8011B48463A
:1039A0004BF0A9F980B100262023CDE9023602AA06
:1039B00059463C20CDF800A0334627F0B5FC054A17
:1039C00031460A2026F012FD0135DFE70027E0E747
:1039D000AC6A002059F40300EC69002068650B0014
:1039E0005C650B0010B50C480C4C4CF008FF012234
:1039F000E06284F83020002284F83120E26A2AB99B
:103A0000002384F830300120E36210BDFFF7A4FFEB
:103A10000028FAD0F4E700BF84660B00AC6A0020EF
:103A2000F8B5124C94F82430D3B194F83130BBB9C6
:103A300094F8303003F0FF0793B90D4D0D492E8CEB
:103A40000D4846F0010380222B844CF0DDFE9228C5
:103A500007D10123E76284F8307084F831302E8476
:103A6000F8BD0028FBD1FFF7BDFFF8E7AC6A0020E6
:103A700064690020EC69002084660B0008B50C4BDB
:103A800093F82420824212D083F8240060B103F11D
:103A900014004BF064F9074A138C43F001031384BC
:103AA000BDE80840FFF7BCBF986283F8250008BD59
:103AB000AC6A0020646900202DE9F743294C2A4DA7
:103AC00094F824302F8CE3B194F82530CBB1A36A5D
:103AD0005A1CA26240F6C312934212D900268120DA
:103AE00047F006FB304684F82560FFF7C7FF2B8CB4
:103AF0001E491F4843F0010332462B844CF05EFE02
:103B00002F8494F824304BB394F8253003F0FF064B
:103B100023BBE269236A9A4220D0DFF85080DFF8A5
:103B200054900DF1070148464BF0F7F830B90136D3
:103B30009DF8073008F8013B402EF2D10023A36224
:103B40002B8C0A490A4843F0010332462B844CF07F
:103B500035FE10B9012384F825302F8403B0BDE869
:103B6000F08300BFAC6A0020646900206C6A00200A
:103B700084660B00C06A00200F2810B50BD80F28F0
:103B80000BD8DFE800F00B7411310A0A0A0A5A62F6
:103B9000790A0A434D45812848D010BDFFF740FF00
:103BA000BDE81040FFF788BF0820FFF7C9FE0020DE
:103BB000FFF764FF812047F09BFA012047F098FA55
:103BC000324B002283F8252083F83120304BC3E9A3
:103BD0001E22C3E920225A62DA6203F134025A67D4
:103BE000BDE810404BF0F8BA4CF0C0F8052896BF7D
:103BF000284B0020185CFFF7A3FE254B1B8CDB072E
:103C0000CBD50120BDE81040FFF738BFFFF770FEAD
:103C10004CF0ACF8052896BF1E4B0020185C06E05F
:103C20004BF0BEFA194B93F8403023B10220BDE8A7
:103C30001040FFF785BE0120F9E746F0E9FB0028B8
:103C4000ABD1BDE810404BF0A9BA46F0E1FB0F4CF8
:103C500028B14BF0B7FA002084F83100D2E794F88D
:103C60004030002BF7D00220FFF76AFEF3E7074B46
:103C7000002083F83100C5E7044B93F84030002B57
:103C80008BD0BDE810404BF08DBA00BFAC6A00206D
:103C9000646900207E660B0030B587B0EFF31183B6
:103CA000EFF3108212B1002007B030BD5A092DD1B8
:103CB000194B9B68002BF6D1184A5368C3F30803CD
:103CC00013B35368C3F30803372BA3F11004EAD0EE
:103CD000D1682720C1F302210191FFF71FFE05469D
:103CE00060B2FFF71BFE0199044603AB02AA284607
:103CF000FFF7E2FD05AB04AA01992046FFF7DCFDC2
:103D0000029A049B9A42CED20120CDE72720FFF7EA
:103D100005FE8242CCD8C6E7FC6A002000ED00E038
:103D2000F0B5334E34788FB0002C48D149F0AAFF5B
:103D3000852810D078B12023CDE906342D4B2E49AB
:103D4000009306AA3C20234627F0EEFA2B4A214690
:103D50000A2026F04BFB002049F0B0FF4AF028F87B
:103D60000028FBD003AF00240C213846CDE90344E2
:103D700005940BF05BFA05461922EDB22048214666
:103D80007AF056F9182D1E4A28BF1825A54219D8D1
:103D90001C484BF07FF980B100242023CDE9063484
:103DA000144B1549009306AA3C20234627F0BCFA81
:103DB000124A21460A2026F019FB01233370002005
:103DC0000FB0F0BD3B5D180900F13001392988BF03
:103DD00000F1570103F00F0302F8021B03F1300159
:103DE000392988BF03F1570102F8011C0134CDE7DE
:103DF000AC6A0020BE650B005C650B0059F4030043
:103E0000C4920120A8660B0070B5284C1E46A3780A
:103E1000012B8AB015463FD00A460146201D4AF0C4
:103E20005BFF00283BD12946324604F114004AF0DA
:103E300053FF0546002835D11D484BF0D7F978B11E
:103E40002023CDE902351B4B1B49009302AA3C20DD
:103E50002B4627F069FA194A29460A2026F0C6FAA5
:103E600013484BF011FA00200EF03CFC4BF07EF9A9
:103E700080B100252023CDE902350E4B0E49009379
:103E800002AA3C202B4627F04FFA0C4A29460A206A
:103E900026F0ACFA0123A37000200AB070BD4FF0E9
:103EA000FF30FAE76FF00100F7E700BFAC6A0020CF
:103EB00084660B00BE650B005C650B0059F40300C3
:103EC0002DE9F0471F4C6378072B8AB007460E4652
:103ED00002D194F824306BBB4FF0FF3027E094F808
:103EE0002430002BF8D0FFF7D7FE0028F4D0E26989
:103EF000236A9B1A228B9342F1D8795D40464AF09F
:103F0000FAFE80B100232022CDE90223514602AA05
:103F10003C20CDF8009027F007FA00230A4A194602
:103F20000A2026F063FA0135AE423046DFDC0AB0E3
:103F3000BDE8F087DFF81490DFF814A0002504F145
:103F40001408F1E7AC6A002059F40300E2650B00A5
:103F50005C650B00014B9861704700BF64690020ED
:103F6000014B9869704700BF6469002010B50429AF
:103F70002CD8DFE801F021150B100300144B5A6B0D
:103F800022B3FFF7EDFFBDE8104010470120BDE868
:103F90001040FFF773BD0E4B002083F83100F6E7A9
:103FA0000B4B0022012083F825209A62FFF766FD63
:103FB000BDE81040FFF780BD0120FFF75FFDFFF770
:103FC00011FD18B1BDE81040FFF72ABD10BD00BFBC
:103FD000AC6A002010B50D4B93F8402002F0FF04AE
:103FE0009AB90122022083F84020FFF7A9FCFFF7CD
:103FF0007FFC2046FFF742FD46F00AFA08B94BF075
:10400000CDF8BDE810404BF0CDB810BDAC6A002033
:1040100008B50E4B93F84020B2B1002283F840203F
:1040200046F0F6F908B14BF0CDF846F0F1F908B1D9
:104030004BF0B6F80120FFF783FCFFF759FCBDE811
:1040400008400020FFF71ABD08BD00BFAC6A002081
:10405000034AD0681169D36A0B44181A704700BF2D
:10406000AC6A002010B58CB0FFF776FC134B18B18A
:104070000022DA6283F83020DA681B6900249A4251
:104080008DF80F4015D00E480DF10F014AF045FE96
:1040900078B12023CDE904340A4B0B49009304AADC
:1040A0003C20234627F040F9084A21460A2026F002
:1040B0009DF99DF80F000CB010BD00BFAC6A002048
:1040C000B06A002031660B005C650B0059F40300F8
:1040D00013B50146002407488DF807400DF107028B
:1040E0004AF02CFE18B99DF8070002B010BD20461A
:1040F000FBE700BFB06A002008B5FFF7CDFD58B15F
:10410000064B93F824203AB1D9691A6A914203D038
:1041100093F82520002AF4D108BD00BFAC6A002026
:10412000064B93F8242032B1DA69188B196A531CB4
:104130001844401A70474FF0FF307047AC6A0020B7
:10414000014B5863704700BFAC6A00201FB50246A0
:1041500000230520ADF80D308DF80C008DF80F30E0
:1041600002FA00F0084B0129185A03EB421407D158
:1041700003AB0093A37805490EF09CFB04B010BD7F
:104180000EF046FCFAE700BF46600020D141030074
:1041900007B50D4B03EB401200219180DA783AB954
:1041A00093F8233003F0FF0213B9084B1A705A60DA
:1041B000C0B20021019021F095FD0198012103B0CA
:1041C0005DF804EBFFF7C2BF46600020F06A0020F4
:1041D000084BC0B203EB401310B5002101249980B5
:1041E000DC70FFF7B3FF044B1A7812B90A221C7077
:1041F0005A6010BD46600020F06A002008B54001FA
:10420000024B185A0DF0A3FDC0B208BD4660002055
:1042100010B52D4B1A78002A50D05A68002A4DD07C
:104220005A68013A5A605868002847D1274C0A2238
:104230005A60E3780BB3FFF7E1FFF0B9A3889BB2B4
:1042400033B9A3880A339BB20121A38021F04AFD30
:10425000A3880A339BB2A380238CFF2B2ED094F823
:10426000233093B994F8233043B3002384F82330E8
:104270000120BDE81040FFF78BBFE378002BEBD0A7
:104280000020E070FFF784FFE6E70120FFF7B6FFAC
:1042900094F822305A1E5342534183420FD1A38CCB
:1042A0009BB23BB9A38C01210A339BB20846A3847D
:1042B00021F018FDA38C0A339BB2A38410BD238C7C
:1042C000FF2BCFD1FAE700BFF06A00204660002044
:1042D0002DE9F0411A4C227805460F4602F0FF0303
:1042E0000AB923706360174E06EB45134FEA451871
:1042F0009B7836F80800012B0CBF032102210DF03A
:10430000E9FC012F03D139462846FFF71FFF36F895
:104310000830FF2B06EB08070FD02846FFF76EFF8B
:10432000BB785A1E53425341834206D10123FB708E
:10433000227812B923700A236360BDE8F08100BFC0
:10434000F06A002046600020024B03EB401080889A
:1043500080B2704746600020044B00221A60044A75
:10436000012111601A68002AFCD0704700910240B8
:104370000090024010B503682F2B8AB0044614D970
:1043800000232022CDE902230E4BCBB1AFF30080F6
:1043900001460D4B009302AA3C20002326F0C4FFE7
:1043A0000A4A00210A2026F021F823681F2B85BF26
:1043B000074803F01F034FF0A04023600AB010BD70
:1043C0000449E6E700000000B8660B0059F403005A
:1043D00000030050B4660B000B4611460246184617
:1043E00047F0CEBB10B5FFF7B7FF002108460EF02F
:1043F000BBFCFFF7B1FF47F069FB00210446012039
:104400000EF0B2FC112CF0D0204610BD38B5044699
:104410000D46FFF7A1FF002108460EF0A5FCFFF7AF
:104420009BFF00222946204647F082FA00210446DD
:1044300001200EF099FC204638BD07B500238DF809
:1044400000008DF8011068461146ADF80230ADF855
:104450000430FFF7DBFF03B05DF804FB13B50EF08B
:10446000E7FD112447F04EFB01A80194FFF782FFFE
:10447000019B03F5E073032240F823206846009473
:10448000FFF778FF009A01239340C0F80835152301
:1044900001A80193FFF76EFF019B03F5E07304226F
:1044A00040F82320064B4FF40072C3F88421054BDB
:1044B00000241C700EF0F0FD204602B010BD00BFBD
:1044C00000E100E0F86A00201FB50446CDE90221B2
:1044D0000EF0AEFD074B0093DDE90221064B2046AE
:1044E0000EF013FE0446FFF77DFF0EF0D5FD2046CB
:1044F00004B010BDFD300400D94303002DE9F3479B
:104500000E4606F1030929F003091546A9EB060733
:1045100004460EF08DFDAF4294BFEF1B6F1B37F0CA
:10452000030719D024F0030A52463946484647F09B
:10453000ADFB804628BB4E4501D1544509D0AAEBBE
:1045400004010F44A4EB0A013A464944304679F08D
:1045500055FD3C443E44ED1BCDB1611924F00307E9
:104560000331C91B3A4621F00301684647F08EFB30
:10457000804630B9E41B2A460DEB0401304679F041
:104580002FFD0EF089FD404602B0BDE8F087A84639
:10459000F7E7F8B504460F460EF04AFD24F47F64B1
:1045A00024F00F040026BE4204EB063104D100259E
:1045B0000EF072FD2846F8BD002047F0EDFB0546E1
:1045C0000028F5D1FFF70EFF0136ECE70128F8B51A
:1045D00006460C4617461D461DD1CB18B3F5007F85
:1045E0001CD80EF025FD00223146B120FFF725FF33
:1045F00070B920462A463946FFF780FF044600225C
:104600000121C120FFF719FF0EF046FD2046F8BD3D
:104610006FF00204F3E74FF0FF34F7E76FF00104A7
:10462000F4E730B5044685B00D460EF001FD002CD0
:104630003BD101238DF80930022D40F20113ADF872
:104640000A30ADF80C3024D1B923002102A88DF82E
:104650000830FFF7DBFE0446B0B9052D14D19923CD
:10466000014602A88DF80830FFF7D0FE044658B97D
:1046700040238DF8043001A940F2012302A8ADF8CF
:104680000830FFF7C3FE04460EF006FD204605B0D5
:1046900030BD032D01D1AB23D7E7042D01D1B023C9
:1046A000D3E7052D0DD16623CFE7012C09D1012DCC
:1046B00007D102AA02212F208DF80850FFF7BDFE76
:1046C000E1E74FF0FF34DFE730B593B011240AA8DB
:1046D0000A94FFF74FFE0A9B394D03F5E07303225E
:1046E00040F8232003A80394FFF744FE039A012314
:1046F0009340C0F80835152304A80493FFF73AFE49
:10470000049B03F5E073042240F823200EF090FC94
:104710000FCD05AC0FC400222B682360114605A8FD
:1047200047F028F80D28274D21D020210023CDE97E
:104730000A13002D3FD12449244B00930AAA0023D9
:10474000012026F0F1FD224B01221A700023009374
:104750001A4603211846FFF764FF044600BB009089
:10476000034602460521FFF75CFF044618E02022BD
:104770000023CDE90A23E5B1AFF300800146154BD4
:1047800000930AAA0023012026F0CEFD0023009307
:104790001A4604211846FFF744FF04460028C4D0F7
:1047A0000EF07AFC002C0CBF20466FF0F90013B01D
:1047B00030BD0549E3E7AFF300800146BCE700BF29
:1047C000AC5C0B0000000000B4660B0009670B0036
:1047D000F86A0020DC660B0037B5204D04460EF069
:1047E00027FC2B7894B3012B06D00EF055FC6FF00C
:1047F000D104204603B030BD002300931A460221A5
:104800001846FFF70EFFC8B100231A460093042193
:104810001846FFF706FF00231A46009305211846A5
:10482000FFF7FFFE002300931A4602211846FFF708
:10483000F8FE044610B10EF02FFCDAE7FFF70EFE8B
:1048400002232B700EF028FC0024D2E7022BCCD1DF
:10485000FFF73AFF04460028F4D0ECE7F86A00209E
:10486000EFF31180402383F31188704780F31188A0
:104870007047EFF311830370A02383F3118870470F
:1048800080F3118870470000BFF34F8F0549064B36
:10489000CA6802F4E0621343CB60BFF34F8F00BFDE
:1048A000FDE700BF00ED00E00400FA0534DF7047CB
:1048B00035DF704718DF704713DF704708B54CF0DD
:1048C00095F8BDE8084021F06DBA000037B5144BEB
:1048D0005B68C3F3080304460D46F3B904220DEBED
:1048E000020140F2DA6001930AF08EFF88B9019B61
:1048F00023420CBF01220022AA420AD05DB123EA62
:104900000403042240F2DA610DEB020001930AF085
:10491000B1FF03B030BD2343F3E74FF0FF30F8E7BA
:1049200000ED00E037B50D4B5B68C3F308030546A7
:104930000C4683B904220DEB020140F2DA600193C8
:104940000AF062FF28B9019B1D420CBF012300231E
:10495000237003B030BD4FF0FF30FAE700ED00E008
:1049600013B500240DF1070104208DF80740FFF76F
:10497000D9FF18B99DF8070002B010BD2046FBE72B
:104980001EF0040F0CBFEFF30880EFF3098081697C
:10499000004A1047B54A030000B58FB00390049158
:1049A0000592039B049B059B20220023CDE906234F
:1049B000094B7BB1AFF300800146084B009306AA78
:1049C0003C20002326F0B0FC054A0021012025F000
:1049D0000DFDFEE70349F0E7000000001B670B0038
:1049E00059F40300B4660B0000B500238BB02022FD
:1049F000CDE90223094B7BB1AFF300800146084BA0
:104A0000009302AA3C20002326F08EFC054A0021D8
:104A1000012025F0EBFCFEE70349F0E70000000071
:104A20001B670B0059F40300B4660B0000B50023AC
:104A30008BB02022CDE90223094B7BB1AFF300807C
:104A40000146084B009302AA3C20002326F06CFC90
:104A5000054A0021042025F0C9FCFEE70349F0E7E0
:104A60000000000025670B0059F40300B4660B003A
:104A700000B500238BB02022CDE90223094B7BB186
:104A8000AFF300800146084B009302AA3C200023AC
:104A900026F04AFC054A0021052025F0A7FCFEE788
:104AA0000349F0E7000000002E670B0059F40300F3
:104AB000B4660B0000B593B0036802934368039398
:104AC00083680493C3680593036906934369079356
:104AD00083690893C36909930E4B9B6A13F00073B3
:104AE00001D0FFF7C5FF2022CDE90A230A4B7BB195
:104AF000AFF300800146094B00930AAA3C20002333
:104B000026F012FC064A0021012025F06FFCFEE78A
:104B10000449F0E700ED00E0000000001B670B0017
:104B200059F40300B4660B00014B024ADA63704784
:104B3000005C0020BD48030010B54FF00053194A37
:104B40001A604FF0FF325A60174B8EB000249C6001
:104B500002A80223CDE9034405940293FFF7AAFEBD
:104B600098B12023CDE90634104BCBB1AFF30080D0
:104B700001460F4B009306AA3C20002326F0D4FBED
:104B80000C4A00210A2025F031FC0648FFF794FE6C
:104B900049F0A6FE49F022FF0028FBD00EB010BD60
:104BA0000549E6E7005C002000ED00E000000000A1
:104BB000BE650B0059F40300B4660B001FB504205A
:104BC00009F06AFD1B4B1C4901221A701B4B1C4A41
:104BD0001846D21A79F004FA1A4A90602BF066FC53
:104BE00000200DF0D3F9FFF7A7FF0AF00DFC2BF022
:104BF0003BFDFFF7B5FEA0B1E72025F02BFD032319
:104C00000E22CDE9013200224FF4442300934FF0ED
:104C100091514FF4403310462BF023FE05B05DF860
:104C200004FB6FF07F4025F08BFCE72025F0EEFCC5
:104C3000E5E700BF6EDB002000000300005C002001
:104C4000005E002000ED00E008B50AF04BFA08B164
:104C5000FFF71AFE0AF0F2FB79F0D0FE0BF0E4F950
:104C6000BDE80840FDF734B938B505460020FFF728
:104C70006BFB04460120FFF767FBA84204D2AC425D
:104C800034BF0020012038BD0120FCE708B5024BED
:104C9000C3E90101FFF7F8FD80F3032008B5074BD6
:104CA0006FF055021A735A732BF0FAFC044B64210F
:104CB0000022C3E90112FFF7E7FD00BFC0F30320A4
:104CC00080F3032008B5054B6E2245F6FE21C3E9AB
:104CD000001200229A60FFF7D7FD00BF80F3032087
:104CE00008B50B4C78B14FF6FF736362094B4FF078
:104CF000FF321A725A722BF0D3FC78220023C4E9D7
:104D00000123FFF7C1FD4EF6FA532360F5E700BF1C
:104D100080F30320C0F3032013B5174B5B690193A5
:104D20000133044602D101A8FFF7C0FD601E05282B
:104D30001FD8DFE800F0030A0D10191901980128A7
:104D400014BF0020012002B010BD01980428F7E72D
:104D500001980228F4E70198B0F5803F02D0B0F541
:104D6000003FEDE70120EEE70198B0FA80F040093E
:104D7000E9E70020E7E700BFC0F3032010B1044BD0
:104D80001B68036011B1024B5B680B600020704729
:104D90000C6B002000222BF095BC704700B5114B26
:104DA00018688BB0D8B14EF660213FF07DFCB0B9E9
:104DB0002023CDE902300C4B7BB1AFF300800146DC
:104DC0000A4B009302AA3C20002326F0ADFA084AC1
:104DD00000210E2025F00AFBFEE70649F0E70BB0A4
:104DE0005DF804FB146B00200000000039670B0025
:104DF00059F40300B4660B00024B186808B13FF089
:104E0000C5BA7047146B002038B51E4B1E4C0125E7
:104E10001D70FFF719FF0220FFF77EFF78B11B4BD3
:104E20005A6822609A6862600022C3E901224FF04A
:104E3000FF30FFF73DFDBDE8384021F0C1B9032048
:104E4000FFF76AFF20B13C23236000236360EEE795
:104E50000420FFF761FF08B11E23F5E70520FFF7E7
:104E60005BFF08B12823EFE70620FFF755FF08B1E5
:104E70003223E9E72846FFF74FFF08B11423E3E7A1
:104E80000A23E1E7186B00200C6B002080F303205D
:104E9000FFF7BABF07B504203FF08CFA0A4B0B4965
:104EA00018600B4B0193022300934FF4C062002360
:104EB00008483FF005FEFFF753FD08B125F010FC50
:104EC0003FF028FFFEE700BF146B002050670B0087
:104ED000086B0020914E030007B50338042819D849
:104EE000DFE800F00703181416000120FFF7EEFCBE
:104EF00009E049428DF80710012240F6A1310DF179
:104F000007000AF0B7FC03B05DF804FB0220EDE7F0
:104F10000420EBE74FF0FF30F5E7062813B50BD080
:104F200006D8033801288CBF0020012002B010BD34
:104F300007280ED00020F9E700240DF10701022018
:104F40008DF80740FFF7EEFC0028F3D19DF807002D
:104F5000ECE7FFF705FDE9E7013809289CBF024BA4
:104F600043F82010704700BF80F303200138092860
:104F70009ABF034B53F820004FF0FF30704700BF3B
:104F800080F3032010B58AB00446684679F058F8DB
:104F9000089B636023880F2B17D90D480D49132BED
:104FA000A0EB0101E16010D9009A2261172B0CD906
:104FB000059A62611B2B08D9074A1F2BA2EB00023E
:104FC000A26102D903F0A0FAE06100200AB010BD8E
:104FD00000E803200893012000E8032018B101280D
:104FE00004D000207047034B98887047014B987C91
:104FF000704700BFC0F3032072B600207047000066
:1050000010B5044630B9E42A04D1044878F0E8FF2A
:10501000204610BD4FF0FF30FBE700BF00F003203B
:1050200038B50D46044658B9E32A09D906490A8815
:10503000E42A05D11A60284678F0D2FF204638BD10
:105040004FF0FF30FBE700BF00F00320034B1B785D
:105050001BB1034B187847F06DBD70471A6B0020E9
:10506000196B0020232870B504460E460CD8FEF7B5
:105070001FFC00EB0415EB78B34204D0062B02D1E1
:1050800020460CF0C3FBEE7070BD000008B5054B68
:10509000588B0CF04EFC012303FA00F0013880B26B
:1050A00008BD00BF8660002038B518230C4A58435D
:1050B0000C46135C012B02EB00050FD12B79D907AD
:1050C0000CD5FFF7E3FF2A7903469207214668884B
:1050D00048BF191BBDE838400CF0BABC38BD00BF52
:1050E0008660002070B50D46064601460120144634
:1050F000FFF7DAFF29460220FFF7D6FF21460320FB
:10510000FFF7D2FF31460520FFF7CEFF29460620E4
:10511000FFF7CAFF21460720BDE87040FFF7C4BF74
:1051200070B5184D0646FFF7B1FF2B7F13F0020F45
:105130000446688B1CD00CF0F7FB201A80B230803C
:1051400095F83430688E13F0020F14D00CF0ECFB9D
:10515000201A80B2708095F84C30B5F84A0013F0F0
:10516000020F0BD00CF0E0FB241AA0B2B08070BD8F
:105170000CF0DAFBE3E70CF0D7FBEBE70CF0D4FB29
:10518000F4E700BF86600020064B1A7902F00202A5
:1051900010B91AB9002102E0002AFBD10121588878
:1051A0000CF0AABD8660002010B5064B5C88204636
:1051B0000CF0CDFDB0FA80F149092046BDE8104061
:1051C0000CF09ABD8660002038B518230B4A58436E
:1051D0001518145C012C0FD1688821460CF07AFD5B
:1051E0002B79688813F0020FC3F3400118BF2146E2
:1051F000BDE838400CF080BD38BD00BF866000209F
:1052000013B50F4C13462278BAB9012222700094CC
:105210000A4601460B4849F04CF858B92378012B4F
:10522000FCD02078003818BF0120404200232370B2
:1052300002B010BD4FF0FF30F8E74FF0FF30F7E756
:105240001B6B00204861002010B543688EB00446F7
:105250001BB300232022CDE90623114BDBB1AFF3B2
:10526000008021780F4A104B012918BF134622698C
:105270000492A26803926268CDE901320B4B00935D
:1052800006AA00230146322026F04EF86369022266
:105290001A700EB010BD0648E3E742691370F8E7D4
:1052A00000000000708E0C00D07D0B00D0670B005A
:1052B000B4660B0030B58DB00DF038FE1F492048A4
:1052C000204D002248F0E7FF20210023CDE9041300
:1052D0000446002D2ED0AFF300800146184B5A68CB
:1052E000126803921A690292DB680193164B0093CD
:1052F00004AA0023012026F017F820220023CDE97C
:105300000423CDB1AFF300800146104A104B002CAE
:1053100018BF134601930F4B009304AA00230120EA
:1053200026F002F80DF026FE201E18BF0120404294
:105330000DB030BD0849D1E70749E6E7202C0C0045
:10534000486100200000000010680B0008680B0096
:1053500005680B0039680B00B4660B007FB5CDE91A
:10536000041003920DF0E2FD074B0093DDE90321E9
:10537000064B05980DF0C9FE03900DF0FBFD039858
:1053800007B05DF804FB00BFFD30040001520300CC
:10539000F7B5174C019106460DF0C8FD2378254658
:1053A00003F0FF0703BB012326F47F612370019AFA
:1053B0001048234621F00F0148F0A9FF38B12770AB
:1053C0006FF001040DF0D6FD204603B0F0BD2B7840
:1053D000012BFCD02B7803F0FF04002BF2D000232C
:1053E0002B706FF00204EDE74FF0FF34EAE700BFE7
:1053F0001B6B00204861002013B50446CDE9002155
:105400000DF094FD009A0198214678F0E9FD0DF029
:10541000B1FD002002B010BD3FF0C8BC08B54BF094
:10542000C5FA012008BD4BF0D3BA000010B5044600
:1054300050B9134B13491448D32279F075FA20461A
:1054400077F062FF77F036FE04203EF0B3FF0F4A9C
:10545000206038B9B2F81A310133A2F81A314FF08E
:10546000FF3010BDB2F81631B2F8181101339BB2FB
:105470009942A2F8163138BFA2F818310020F0E79F
:1054800051680B0070680B007E680B00908B012048
:1054900008B50848FFF7CAFF50B1074B074908484D
:1054A0007A2279F041FA002077F02EFF77F002FEA1
:1054B00008BD00BF1C6B002051680B00A6680B00E4
:1054C0007E680B0010B550B90E4B0F49E2220F4811
:1054D00079F02AFA002077F017FF77F0EBFD0468E7
:1054E0001CB9084B0A49E322F1E74FF0FF3120468F
:1054F0003FF0DAF8012803D0024B0649E622E6E73E
:1055000010BD00BF51680B0070680B007E680B0077
:10551000CD680B00E0680B0010B550B90D4B0E497B
:10552000F0220E4879F000FA002077F0EDFE77F0D7
:10553000C1FD04681CB9074B0949F122F1E7204677
:105540003EF024FF012803D0024B0649F422E8E78D
:1055500010BD00BF51680B0070680B007E680B0027
:10556000CD680B00F9680B0038B50D46044658B9F4
:105570001F4B20494FF485721F4879F0D5F9002060
:1055800077F0C2FE77F096FD012904D9184B1B492C
:1055900040F20B12F0E70322002101203EF036FE1C
:1055A000174A206038B9B2F814310133A2F8143127
:1055B0004FF0FF3038BDB2F81031B2F8121101339C
:1055C0009BB2994238BFA2F81231012DA2F81031D6
:1055D0000CD1002320681A4619463EF03BFE0128F4
:1055E00004D0034B074940F21712C5E70020E1E75A
:1055F00051680B005B690B007E680B0012690B00A1
:10560000908B012035690B0010B558B9104B11492A
:1056100040F22512104879F087F9002077F074FEE7
:1056200077F048FD046824B9094B0C494FF4937294
:10563000F0E700231A46194620463EF00BFE0128EB
:1056400004D9034B06494FF49572E3E710BD00BF40
:1056500051680B005B690B007E680B0056690B00FC
:1056600067690B0038B558B9174B18494FF49B724E
:10567000174879F059F9002077F046FE77F01AFDC7
:10568000046824B9104B134940F23712F0E759B9B6
:105690004FF0FF3120463EF071FF01280ED00A4B3B
:1056A0004FF49E720C49E3E720463EF067FF38B1A5
:1056B000012803D0044B4FF4A272F3E7012038BD58
:1056C0004FF0FF30FBE700BF51680B005B690B0038
:1056D0007E680B0056690B0089690B0038B50446DB
:1056E00058B9114B114912484FF4A87279F01CF9BE
:1056F000204677F009FE77F0DDFC056845B90A4BD6
:105700000C490B4840F2511279F00EF92846F0E7A7
:10571000094AB2F81031013BA2F8103100683FF09D
:105720000AF80023236038BD51680B005B690B0049
:105730007E680B0056690B00908B012010B50B465C
:10574000044658B9184B194940F25B12184879F0D1
:10575000EBF8002077F0D8FD77F0ACFC002904DCF2
:10576000114B14494FF4AE72F0E7002204211846A1
:105770003EF04CFD104A206038B9B2F820310133B8
:10578000A2F820314FF0FF3010BDB2F81C31B2F852
:105790001E1101339BB29942A2F81C3138BFA2F806
:1057A0001E310020F0E700BF51680B00A1690B001B
:1057B0007E680B00AE690B00908B012013B5019140
:1057C00058B9164B16494FF4BD72164879F0ACF82B
:1057D000002077F099FD77F06DFC046824B90F4B39
:1057E000114940F27B12F0E700231A4601A9204636
:1057F0003EF030FD01280FD020B1084B0B4940F29C
:105800008112E2E70A4AB2F820310133A2F82031CE
:105810004FF0FF3002B010BD0020FBE751680B00D5
:10582000A1690B007E680B00B7690B00DA690B00F9
:10583000908B012073B50C46154658B91A4B1B497D
:1058400040F2A1121A4879F06FF8002077F05CFD61
:1058500077F030FC066826B9134B16494FF4D17225
:10586000F0E701B901AC65B94FF0FF32214630468F
:105870003EF00AFE012815D00B4B40F2AB120E4948
:10588000E0E72A46214630463EF0FEFD20B9206082
:105890004FF0FF3002B070BD012803D0024B4FF42F
:1058A000DA72ECE70120F5E751680B00A1690B0003
:1058B0007E680B00B7690B00EE690B0037B50C462C
:1058C00058B9134B13494FF4E172134879F02CF88F
:1058D000002077F019FD77F0EDFB056825B90C4B3A
:1058E0000E4940F2C312F0E701B901AC0022214693
:1058F00028463EF0C9FD20B920604FF0FF3003B0CC
:1059000030BD0128FBD0024B05494FF4E772DCE7BC
:1059100051680B00A1690B007E680B00B7690B0092
:10592000EE690B0010B5044658B90E4B0E4940F213
:10593000D9120E4878F0F8FF204677F0E5FC77F0B2
:10594000B9FB046824B9074B09494FF4ED72F0E73D
:1059500020463EF0F0FE074AB2F81C31013BA2F8A7
:105960001C3110BD51680B00A1690B007E680B0053
:10597000B7690B00908B012030B51C1E054685B021
:1059800008460BDC0F4B10494FF4FA720F4878F0C1
:10599000CBFF002077F0B8FC77F08CFB03AB0193D2
:1059A000089B009329461346C4F38F023FF088F802
:1059B000012804D0034B06494FF4FF72E6E7039831
:1059C00005B030BD51680B00006A0B007E680B000B
:1059D000126A0B000023022219463FF06BBD000043
:1059E00010B5074C0748FFF76DFD23781BB93FF052
:1059F0002BFC054B186023780133237010BD00BFCA
:105A0000206B00201C6B0020246B0020054A1378BB
:105A1000013BDBB213700BB9034A13600348FFF775
:105A20007BBD00BF206B0020246B00201C6B00207E
:105A300008B53FF009FC014B186008BD286B002039
:105A400008B54AF0B3FF4AF0C3FF0C4B1B68A3B183
:105A50003FF0FAFB0A4B1B68834202D1094B1B78CB
:105A60005BB9094B09490A4840F27F2278F05CFF94
:105A7000002077F049FC77F01DFB08BD286B002063
:105A8000246B0020206B002051680B00276A0B005C
:105A90007E680B0003685918016011782CBF012340
:105AA00000230B4413707047137810B504688C42C0
:105AB00038BF013B13700368591A016010BD30B53F
:105AC00009238FB00122CDE90223002104462422BC
:105AD00005A88DF80310049078F0AAFA102120464A
