:020000023000CC
:1000000000F003202102030065020300A94C030055
:1000100069020300554D0300994D030000000000E4
:10002000000000000000000000000000650908005A
:100030007102030000000000850908009D0A080005
:100040008DAF070077020300CDD907009DD80700C8
:10005000E9D80700C99A070005AA070009B00700F8
:10006000ADC60700C1C60700D5C60700770203006A
:100070007702030031D607007702030077020300FE
:1000800019C507001DB6070081D7070081D90700F1
:1000900075D707007BD70700C1EA07007702030086
:1000A0007702030077020300E9C60700FDC60700D8
:1000B00019A30700E9D207000000000000000000BB
:1000C0007702030029A3070039A3070035D90700E9
:1000D0007978040079BE070077020300BD8B070022
:1000E000E96504008DBD0700992C0900000000009F
:1000F0000000000049A3070000000000A5940700CD
:1001000000000000000000000000000000000000EF
:1001100000000000000000000000000000000000DF
:1001200000000000000000000000000000000000CF
:1001300000000000000000000000000000000000BF
:1001400000000000000000000000000000000000AF
:10015000000000000000000000000000000000009F
:10016000000000000000000000000000000000008F
:10017000000000000000000000000000000000007F
:10018000000000000000000000000000000000006F
:10019000000000000000000000000000000000005F
:1001A000000000000000000000000000000000004F
:1001B000000000000000000000000000000000003F
:1001C000000000000000000000000000000000002F
:1001D000000000000000000000000000000000001F
:1001E000000000000000000000000000000000000F
:1001F00000000000000000000000000000000000FF
:1002000000000300F8AE0A000000DB070C0003004A
:080210000000000000000000E6
:100220000C490D4A0D4B9B1A03DD043BC858D050B6
:10023000FBDC0A490A4A0020521A02DD043A8850BF
:10024000FCDC4DF06BFC04F04DFE0DF0B9FB04F04E
:10025000B5FF0000E4A40A00005E0020C066002094
:10026000C4D00120FEE7FEE7FEE7FEE7FEE7FEE77B
:10027000FEE7FEE7FEE7FEE781F0004102E000BF97
:1002800083F0004330B54FEA41044FEA430594EA56
:10029000050F08BF90EA020F1FBF54EA000C55EA91
:1002A000020C7FEA645C7FEA655C00F0E2804FEA62
:1002B0005454D4EB5555B8BF6D420CDD2C4480EA44
:1002C000020281EA030382EA000083EA010180EA74
:1002D000020281EA0303362D88BF30BD11F0004FC2
:1002E0004FEA01314FF4801C4CEA113102D04042F8
:1002F00061EB410113F0004F4FEA03334CEA133333
:1003000002D0524263EB430394EA050F00F0A7804A
:10031000A4F10104D5F1200E0DDB02FA0EFC22FA45
:1003200005F2801841F1000103FA0EF2801843FA39
:1003300005F359410EE0A5F120050EF1200E012A2A
:1003400003FA0EFC28BF4CF0020C43FA05F3C01868
:1003500051EBE37101F0004507D54FF0000EDCF1E1
:10036000000C7EEB00006EEB0101B1F5801F1BD38A
:10037000B1F5001F0CD349085FEA30004FEA3C0C8E
:1003800004F101044FEA445212F5800F80F09A8084
:10039000BCF1004F08BF5FEA500C50F1000041EB88
:1003A000045141EA050130BD5FEA4C0C404141EB8C
:1003B0000101013C28BFB1F5801FE9D291F0000F87
:1003C00004BF01460020B1FA81F308BF2033A3F136
:1003D0000B03B3F120020CDA0C3208DD02F1140C2D
:1003E000C2F10C0201FA0CF021FA02F10CE002F168
:1003F0001402D8BFC2F1200C01FA02F120FA0CFC61
:10040000DCBF41EA0C019040E41AA2BF01EB0451A9
:10041000294330BD6FEA04041F3C1CDA0C340EDCA7
:1004200004F11404C4F1200220FA04F001FA02F3EA
:1004300040EA030021FA04F345EA030130BDC4F1A8
:100440000C04C4F1200220FA02F001FA04F340EA9D
:100450000300294630BD21FA04F0294630BD94F04E
:10046000000F83F4801306BF81F480110134013D35
:100470004EE77FEA645C18BF7FEA655C29D094EAA6
:10048000050F08BF90EA020F05D054EA000C04BF24
:100490001946104630BD91EA030F1EBF002100200F
:1004A00030BD5FEA545C05D14000494128BF41F0AE
:1004B000004130BD14F580043CBF01F5801130BD12
:1004C00001F0004545F0FE4141F470014FF000009D
:1004D00030BD7FEA645C1ABF194610467FEA655C4E
:1004E0001CBF0B46024650EA013406BF52EA0335F0
:1004F00091EA030F41F4002130BD00BF90F0000FDE
:1005000004BF0021704730B54FF4806404F1320419
:100510004FF000054FF0000150E700BF90F0000FD2
:1005200004BF0021704730B54FF4806404F13204F9
:1005300010F0004548BF40424FF000013EE700BFC9
:1005400042004FEAE2014FEA31014FEA02701FBF59
:1005500012F07F4393F07F4F81F06051704732F08B
:100560007F4208BF704793F07F4F04BF41F40021E2
:10057000704730B54FF4607401F0004521F0004140
:100580001CE700BF50EA010208BF704730B54FF0CA
:1005900000050AE050EA010208BF704730B511F0CB
:1005A000004502D5404261EB41014FF4806404F103
:1005B00032045FEA915C3FF4D8AE4FF003025FEA89
:1005C000DC0C18BF03325FEADC0C18BF033202EB0D
:1005D000DC02C2F1200300FA03FC20FA02F001FA67
:1005E00003FE40EA0E0021FA02F11444BDE600BF0A
:1005F00070B54FF0FF0C4CF4E06C1CEA11541DBFB9
:100600001CEA135594EA0C0F95EA0C0F00F0DEF883
:100610002C4481EA030621EA4C5123EA4C5350EA68
:10062000013518BF52EA033541F4801143F48013B9
:1006300038D0A0FB02CE4FF00005E1FB02E506F04A
:100640000042E0FB03E54FF00006E1FB03569CF09F
:10065000000F18BF4EF0010EA4F1FF04B6F5007FA5
:1006600064F5407404D25FEA4E0E6D4146EB060617
:1006700042EAC62141EA55514FEAC52040EA5E50A0
:100680004FEACE2EB4F1FD0C88BFBCF5E06F1ED84A
:10069000BEF1004F08BF5FEA500E50F1000041EB81
:1006A000045170BD06F0004646EA010140EA02002E
:1006B00081EA0301B4EB5C04C2BFD4EB0C0541EA50
:1006C000045170BD41F480114FF0000E013C00F365
:1006D000AB8014F1360FDEBF002001F0004170BD89
:1006E000C4F10004203C35DA0C341BDC04F11404A2
:1006F000C4F1200500FA05F320FA04F001FA05F22E
:1007000040EA020001F0004221F0004110EBD370FA
:1007100021FA04F642EB06015EEA430E08BF20EA26
:10072000D37070BDC4F10C04C4F1200500FA04F3C9
:1007300020FA05F001FA04F240EA020001F000415B
:1007400010EBD37041F100015EEA430E08BF20EACE
:10075000D37070BDC4F1200500FA05F24EEA020E16
:1007600020FA04F301FA05F243EA020321FA04F045
:1007700001F0004121FA04F220EA020000EBD370FC
:100780005EEA430E08BF20EAD37070BD94F0000FFC
:100790000FD101F00046400041EB010111F4801F30
:1007A00008BF013CF7D041EA060195F0000F18BFE1
:1007B000704703F00046520043EB030313F4801F1D
:1007C00008BF013DF7D043EA0603704794EA0C0FD7
:1007D0000CEA135518BF95EA0C0F0CD050EA4106ED
:1007E00018BF52EA4306D1D181EA030101F000416A
:1007F0004FF0000070BD50EA410606BF1046194692
:1008000052EA430619D094EA0C0F02D150EA01369D
:1008100013D195EA0C0F05D152EA03361CBF1046DE
:1008200019460AD181EA030101F0004141F0FE417D
:1008300041F470014FF0000070BD41F0FE4141F401
:10084000780170BD70B54FF0FF0C4CF4E06C1CEA01
:1008500011541DBF1CEA135594EA0C0F95EA0C0FB6
:1008600000F0A7F8A4EB050481EA030E52EA033571
:100870004FEA013100F088804FEA03334FF0805592
:1008800045EA131343EA12634FEA022245EA1115BF
:1008900045EA10654FEA00260EF000419D4208BF70
:1008A000964244F1FD0404F5407402D25B084FEA1D
:1008B0003202B61A65EB03055B084FEA32024FF4C9
:1008C00080104FF4002CB6EB020E75EB030E22BF26
:1008D000B61A754640EA0C005B084FEA3202B6EBE6
:1008E000020E75EB030E22BFB61A754640EA5C0095
:1008F0005B084FEA3202B6EB020E75EB030E22BF25
:10090000B61A754640EA9C005B084FEA3202B6EB25
:10091000020E75EB030E22BFB61A754640EADC00E4
:1009200055EA060E18D04FEA051545EA16754FEA46
:1009300006164FEAC30343EA52734FEAC2025FEA64
:100940001C1CC0D111F4801F0BD141EA00014FF0F3
:1009500000004FF0004CB6E711F4801F04BF0143C4
:100960000020B4F1FD0C88BFBCF5E06F3FF6AFAEE0
:10097000B5EB030C04BFB6EB020C5FEA500C50F170
:10098000000041EB045170BD0EF0004E4EEA1131F3
:1009900014EB5C04C2BFD4EB0C0541EA045170BDFA
:1009A00041F480114FF0000E013C90E645EA060E3E
:1009B0008DE60CEA135594EA0C0F08BF95EA0C0F6C
:1009C0003FF43BAF94EA0C0F0AD150EA01347FF4B4
:1009D00034AF95EA0C0F7FF425AF104619462CE78B
:1009E00095EA0C0F06D152EA03353FF4FDAE1046EE
:1009F000194622E750EA410618BF52EA43067FF43F
:100A0000C5AE50EA41047FF40DAF52EA43057FF4CE
:100A1000EBAE12E74FF0FF3C06E000BF4FF0010CD9
:100A200002E000BF4FF0010C4DF804CD4FEA410C3D
:100A30007FEA6C5C4FEA430C18BF7FEA6C5C1BD00A
:100A400001B050EA410C0CBF52EA430C91EA030F8B
:100A500002BF90EA020F0020704710F1000F91EAE8
:100A6000030F58BF994208BF90422CBFD8176FEAB6
:100A7000E37040F0010070474FEA410C7FEA6C5C84
:100A800002D150EA013C07D14FEA430C7FEA6C5C8B
:100A9000D6D152EA033CD3D05DF8040B704700BFB7
:100AA0008446104662468C461946634600E000BF05
:100AB00001B5FFF7B7FF002848BF10F1000F01BDD7
:100AC0004DF808EDFFF7F4FF0CBF012000205DF8A2
:100AD00008FB00BF4DF808EDFFF7EAFF34BF012027
:100AE00000205DF808FB00BF4DF808EDFFF7E0FFC0
:100AF00094BF012000205DF808FB00BF4DF808ED11
:100B0000FFF7CEFF94BF012000205DF808FB00BF77
:100B10004DF808EDFFF7C4FF34BF012000205DF859
:100B200008FB00BF4FEA410C7FEA6C5C02D150EA3F
:100B3000013C0AD14FEA430C7FEA6C5C02D152EAD5
:100B4000033C02D14FF0000070474FF001007047A6
:100B50004FEA410212F5001215D211D56FF47873E5
:100B6000B3EB625212D94FEAC12343F0004343EA88
:100B7000505311F0004F23FA02F018BF4042704763
:100B80004FF00000704750EA013005D111F00040ED
:100B900008BF6FF0004070474FF00000704700BF83
:100BA0004A0011D212F5001211D20DD56FF47873EC
:100BB000B3EB62520ED44FEAC12343F0004343EA41
:100BC000505323FA02F070474FF00000704750EA8C
:100BD000013002D14FF0FF3070474FF000007047F6
:100BE00053B94AB9002908BF00281CBF4FF0FF3194
:100BF0004FF0FF3000F082B9ADF1080C6DE904CE82
:100C000000F01AF8DDF804E0DDE9022304B07047D3
:100C1000430803F05533C01A830803F0333300F060
:100C20003330184400EB101000F00F3000EB0020C0
:100C300000EB0040000E70472DE9F047089D044688
:100C40008C46002B40F083808A42174647D9B2FA7F
:100C500082F242B1C2F1200024FA00F091409740A4
:100C600040EA010C94404FEA1748230CBCFBF8F60D
:100C70001FFA87FE08FB16C143EA014306FB0EF18B
:100C8000994209D9FB1806F1FF3080F01981994289
:100C900040F21681023E3B445B1AA4B2B3FBF8F06B
:100CA00008FB103344EA034400FB0EFEA64509D9B5
:100CB0003C1900F1FF3380F00581A64540F2028126
:100CC00002383C4440EA0640A4EB0E0400261DB165
:100CD000D4400023C5E900433146BDE8F08702B99E
:100CE000FFDEB2FA82F2002A50D1CB1B4FEA174E38
:100CF0001FFA87F80126B3FBFEFC210C0EFB1C3308
:100D000041EA034108FB0CF38B4207D979180CF137
:100D1000FF3002D28B4200F2E9808446C91AA3B2A6
:100D2000B1FBFEF00EFB101143EA014408FB00F892
:100D3000A04507D93C1900F1FF3302D2A04500F2CB
:100D4000D9801846A4EB080440EA0C40BFE78B4268
:100D500009D9002D00F0B1800026C5E90001304618
:100D60003146BDE8F087B3FA83F6002E4AD18B42B4
:100D700002D3824200F2B880841A61EB03010120A1
:100D80008C46002DA8D0C5E9004CA5E7C2F1200390
:100D900020FA03F6974001FA02F04FEA174ED940C5
:100DA0003043030CB1FBFEF61FFA87F80EFB161159
:100DB00043EA014306FB08F1994204FA02F409D917
:100DC000FB1806F1FF3C80F08D80994240F28A804A
:100DD000023E3B445B1A81B2B3FBFEF00EFB1033C4
:100DE00041EA034100FB08F38B4207D9791800F16F
:100DF000FF3C73D28B4271D902383944CB1A40EA96
:100E0000064678E7C6F1200C03FA06F422FA0CF342
:100E10001C4320FA0CF701FA06F34FEA144E21FAAC
:100E20000CF11F433B0CB1FBFEF91FFA84F80EFBDB
:100E3000191143EA014109FB08FA8A4502FA06F250
:100E400000FA06F308D9611809F1FF3048D28A4543
:100E500046D9A9F102092144A1EB0A01BFB2B1FBB5
:100E6000FEF00EFB101147EA014700FB08F8B845F9
:100E700007D9E71900F1FF312ED2B8452CD9023835
:100E8000274440EA0940A7EB0807A0FB02894F4529
:100E9000C64649461AD317D05DB1B3EB0E0267EBD5
:100EA000010707FA0CFCF2404CEA0202F740C5E9E0
:100EB000002700263146BDE8F0872E4628460BE77E
:100EC0000646E9E61846FDE64345E5D2B8EB020ED4
:100ED00069EB04010138DFE70846D2E760468DE799
:100EE0008146B9E7664675E730464AE7ACF1020C41
:100EF000394413E702383C4424E700BF704700BF81
:100F000001F0FF01102A2BDB10F0070F08D010F8BA
:100F1000013B013A8B422DD010F0070F42B3F6D1BE
:100F2000F0B441EA012141EA014122F007047FF0D7
:100F300000070023F0E80256083C85EA010586EA2E
:100F4000010685FA47F5A3FA87F586FA47F6A5FA6A
:100F500087F68EB9EED1F0BC01F0FF0102F0070276
:100F600032B110F8013B013A83EA010313B1F8D121
:100F70000020704701387047002D06BF3546033802
:100F8000073815F0010F07D1013015F4807F02BF3B
:100F9000013015F4C03F0130F0BC0138704700BF8C
:100FA00010F8012B11F8013B012A28BF9A42F7D013
:100FB000D01A7047034613F8012B002AFBD1181AE8
:100FC000013870477BB972B90029BEBF00204FF0CD
:100FD000004106E008BF00281CBF6FF000414FF041
:100FE000FF30FFF78BBFADF1080C6DE904CE00298F
:100FF00009DB002B1ADBFFF71FFEDDF804E0DDE95B
:10100000022304B07047404261EB4101002B1BDB1F
:10101000FFF712FEDDF804E0DDE9022304B04042F0
:1010200061EB4101524263EB43037047524263EB71
:101030004303FFF701FEDDF804E0DDE9022304B01D
:10104000404261EB41017047524263EB4303FFF7BB
:10105000F3FDDDF804E0DDE9022304B0524263EB66
:101060004303704700B1807B704708B1C07B704775
:10107000FF20704708B1408970474FF6FF707047F6
:1010800008B1808970474FF6FF707047426800686A
:10109000101A704700B50D4B5B68C3F308038BB0A3
:1010A00083B100212023CDE90231094B009302AA2C
:1010B0000B463C202AF020FC064A00210E2029F095
:1010C00015FCFEE70BB05DF804FB00BF00ED00E08F
:1010D000D4930900C1EC030007B50191FFF7DAFFD3
:1010E000019803B05DF804EB07F0FEBA07B5019173
:1010F000FFF7D0FF019803B05DF804EB07F0D6B915
:1011000038B502FB01F5FFF7C5FF284607F0ECFAFA
:10111000044618B12A46002163F040FD204638BD40
:1011200070B515460C46FFF7B5FF2DB9204607F000
:10113000BDF92E46304670BD284607F0D5FA064662
:101140000028F7D0002CF5D02A46214663F0FEFC9B
:10115000204607F0ABF9EDE7F8B50D460646FFF778
:1011600099FF284603F0AEFF07F03AFA0C4C2060D6
:1011700007F02AFA27682062381AE06107F02AFA95
:10118000381A6061284603F0CBFF0FCC35460FC5F7
:101190000FCC0FC594E8030085E803003046F8BD86
:1011A000C066002038B504464518AC4207D000F0B0
:1011B000F9FC036814F8011B9B689847F5E738BDF4
:1011C000FFF7F0BF10B50446006808B163F096FC65
:1011D000204610BD08B500F0E5FC4FF4165100F0B4
:1011E000B7FC01F0B3FC01F0FBFC064A06491046CF
:1011F00001F03EFB054A0649BDE80840104601F0F3
:1012000037BB00BF90670020A5110300986700203E
:10121000C11103002DE9F0434B4889B001F016FCE1
:10122000002840F08780494C16F098FB2368C01ACC
:10123000B0F5FA6FC0F0848016F090FB206001F0EA
:1012400085FC4349FF2201F0DBFC0646002877D0ED
:101250003F4FDFF838910024B846542503A814FB0B
:1012600005F501F047F805F10800012203A938440B
:1012700001F03FFA002858D0494603A801F0D8F8F9
:1012800030B300F08FFC334900F0C8FE01F05EFC83
:10129000012301467A1901A802F014F901A92A488C
:1012A00001F0A6FB01A801F0F2FC274801F0CEFBFB
:1012B00070B100F077FC284900F0B0FE274A2849B9
:1012C000214801F09FFB274A27491F4801F09AFB5C
:1012D000264903A801F0ACF838B300F063FC2449B8
:1012E00000F09CFE01F032FC0123014608EB0502F0
:1012F00001A802F0E7F801A91E4801F079FB01A856
:1013000001F0C5FC1B4801F0A1FB70B100F04AFCE4
:10131000194900F083FE194A1949164801F072FB79
:10132000184A1949134801F06DFB0134E4B2B44284
:1013300093D305E00F4801F089FB00283FF473AF19
:1013400009B0BDE8F08300BF806700206C67002013
:10135000A0670020EB930900F69309004467002082
:10136000906700201C67002070670020086700203D
:101370000594090088670020109409005867002030
:10138000986700203067002078670020F46600200E
:1013900038B5354C00232360A380A371A3F58033B7
:1013A000A36002201EF036F9304A3149204662F02F
:1013B000DBFB30493048314C01F0B4F8304931485A
:1013C00001F0B0F83049314801F0ACF8304931480B
:1013D00001F0A8F83049314801F0A4F8304931480B
:1013E00001F0A0F8FF25204600F070FF04F108008E
:1013F00001F0FBF804F12C0001F0F7F8013D04F1D5
:101400005404F0D1284801F0CDF9184A274926485C
:1014100062F0AAFB264801F0C5F9144A2349244882
:1014200062F0A2FB234801F0C1FA104A2249214888
:1014300062F09AFB214801F0B5F90C4A1B491F489C
:1014400062F092FB1E4801F0ADF9084A17491C48AA
:1014500062F08AFB1B4801F0A9FABDE83840034A54
:101460001549184862F080BBE8660020D8BE00200D
:10147000C51103001F940900F4660020A067002036
:10148000449409001C670020699409004467002007
:101490008E94090008670020B3940900306700208B
:1014A000D89409005867002090670020812C030021
:1014B00070670020806700208F2C03009867002051
:1014C000786700208867002070470A680B4692689A
:1014D000014618461047000010B5054B002204468F
:1014E000114640F8043B2AF0A3FA204610BD00BF85
:1014F0000895090010B50446FFF7EEFF20462021AD
:1015000062F037FB204610BD70B50E4C046000251C
:101510001C24C0E901459DF814409DF81060C56089
:1015200004F0030444EA8604E4B20474427485744B
:101530004161427C0F2A0ABF034B0383C0E9063096
:1015400070BD00BF08950900CB140300002340685C
:101550001A4620F035BB40680022022120F0A8B9CD
:1015600000224068114620F033B90022406811463D
:1015700020F0E6B8002340681A46194620F0F6B974
:10158000002340681A46194620F014BA4068002229
:1015900081F0010120F05EBA4068002220F040B9DD
:1015A00000224068114620F03CB9002240681146F4
:1015B00020F039B92DE9F043002495B016460D46C8
:1015C000074600F053FB214618220EA8009463F052
:1015D000E5FA4023CDE90C3421466B460CAA30468F
:1015E00018F04CFF0446002846D1024601216868E5
:1015F00020F0A6F8022180462246686820F0A0F874
:10160000009E81462146002E36D0002934D17368D1
:10161000022B03D00A2B0BD0F669F4E7B8F1000FC8
:1016200004D071693846043100F04DFB4146F3E7C0
:10163000B9F1000F01D14946EEE77469102201A803
:1016400063F0ACFA06238DF8143001AD04F1080301
:101650001834186859682A4603C20833A34215464D
:10166000F7D101A906A807AD00F00EFB0FCD3C1D78
:101670000FC42B682370DEE7009818F0FDFE384693
:1016800015B0BDE8F0830000024B034A1A60002247
:101690005A6070474CBB00201C9509000EB403B57E
:1016A00003AB002153F8042B019300F0DFFC02B0E0
:1016B0005DF804EB03B070477047012070470022CB
:1016C0004068114620F03CB810B52421044662F071
:1016D00050FA204610BD00224068114620F0A3B801
:1016E00000224068114620F09CB84068002220F09B
:1016F00097B84068002281F0010120F0ABB90023C7
:1017000040681A46194620F055B9002340681A4629
:10171000194620F02BB900224068114620F058B835
:1017200040680022022120F0C3B8002340681A4616
:1017300020F046BA83897BB14369002B0CDB07EEAE
:10174000903A9FED077AF8EEE77A87EE870ADFEDA9
:10175000057A20EE270A7047BFEE000A704700BFE7
:1017600000FF7F470000C842838963B10369B3F17A
:10177000004F08D007EE903A9FED047AF8EEE77A32
:1017800087EE870A70479FED020A70470000C84243
:101790000000000083897BB1036A002B0CDB07EE9D
:1017A000903A9FED077AF8EEE77A87EE870ADFED49
:1017B000057A20EE270A7047BFEE000A704700BF87
:1017C00000FF7F470000C842838963B18369B3F19A
:1017D000004F08D007EE903A9FED047AF8EEE77AD2
:1017E00087EE870A70479FED020A70470000C842E3
:1017F0000000000070B50C46064600F10C050FCC49
:101800000FC594E8030085E803003369B3F1004F86
:101810000EBF0223642293FBF2F37360B369B3F14A
:10182000004F0CBF002364224FF0010018BF93FB50
:10183000F2F3B36070BD00002DE9F041164B036078
:1018400000250F464FF002081826C0E9018586B032
:101850003246294604460C3063F0A0F978682A46DF
:1018600029461FF06DFF80B132462946684663F075
:1018700095F92A4669462846ADF8006007F040FA17
:1018800038B969462046FFF7B5FF204606B0BDE8E7
:10189000F081C4F80480F8E78C950900024B04221B
:1018A0005A60024A1A60704754BB002058950900DC
:1018B00070474174704708B5007C15F02DF820EA98
:1018C000E07008BD08B5007C14F0DFFE20EAE0708F
:1018D00008BD08B5007C14F0EFFF40EAE07008BDD9
:1018E00008B5007C14F07EFF40EAE07008BD007C83
:1018F00014F060BA37B5457C04462DB1207C03B0A6
:10190000BDE8304015F0DCB8007C019115F004F81A
:1019100000280199F2DC284603B030BD10B514212F
:10192000044662F026F9204610BD000010B54FF0C5
:10193000000C0446084611464FF47A72C4E901C20D
:10194000044A22600122207462741A4614F0C6FA16
:10195000204610BDB0950900007C002314F086BD20
:101960000022FFF7F9BF000013B50E4C2178BFF33A
:101970005B8F11F0010112D12046019113F096FA0C
:10198000019960B1084A094B0948FFF7CFFF20468B
:1019900013F0EEFA074A0849054862F0E5F80448F2
:1019A00002B010BD5CBB002060BB0020E4BB002087
:1019B00068BC0020D8BE0020B118030010B5044652
:1019C000006863F09BF8204610BD0B68036013B1FC
:1019D0005A6801325A60704738B5046805467CB1D0
:1019E0006368013B63605BB9236820469B68984746
:1019F000A368013BA3601BB923682046DB689847B6
:101A0000284638BD38B50D1E0446006803DD63F076
:101A1000D5FD18B938BD63F071F800202060A560CD
:101A20000120F7E72DE9F0410F4641681D461944B2
:101A3000836899420446904612DC266862683E44F8
:101A4000D21B3146701963F08FF82A464146304662
:101A500063F07CF863682B4463600120BDE8F0818B
:101A6000FFF7D0FF0028E8D1F8E708B513460A468B
:101A70004168FFF7D7FF08BDF8B5D0E901539D4293
:101A800004460E460CDA276862687919521B481C16
:101A900063F06AF87E556368013363600120F8BD26
:101AA000691CFFF7AFFF0028EDD1F8E741747047DC
:101AB000704708B50021007C0CF096F940EAE07010
:101AC00008BD08B50121007C0CF08EF940EAE070F9
:101AD00008BD08B5007C0CF085F920EAE07008BD6F
:101AE00008B5007C0CF07CF920EAE07008BD13B565
:101AF0000446007C01910CF075F90028019901DC85
:101B0000607C20B1207C0CF07FF920EAE07002B00C
:101B100010BD007C0CF083B910B51421044662F0AE
:101B200028F8204610BD000010B54FF47A73044623
:101B300008460021C4E90113044B236001232074EB
:101B4000637411460CF016F9204610BDE0950900AB
:101B5000007C00220CF038B9007C0CF03FB910B5C5
:101B600014220446002163F019F8204610BD00003D
:101B700010B500224FF47A73C0E90123084B0360CB
:101B800086B004464FF48073038201A8FFF7E7FF95
:101B9000207C01A90CF0EEF8204606B010BD00BF75
:101BA000E095090010B5104C88B003A8FFF7D7FFE7
:101BB0002178BFF35B8F11F0010111D12046019113
:101BC00013F074F9019958B103AA0848FFF7ACFF64
:101BD000204613F0CDF9064A0649044861F0C4FFD7
:101BE000024808B010BD00BF7CBC002080BC0020B3
:101BF000D8BE0020B11A0300704710B51821044662
:101C000061F0B7FF204610BDF0B5037D062B8DB007
:101C10000E4600F104074FF0000412D000F1080551
:101C200015F8011D0A22304600F002FAAF420444C2
:101C300019D0002CF4D02E21304600F0E0F90444F5
:101C4000EEE72F236A4639460A208DF8004019F046
:101C5000B4FC6846FFF7AEF933680246DB686946B4
:101C600030469847044620460DB0F0BD10B5054BF0
:101C70000446112240F8043B002162F08FFF204609
:101C800010BD00BF109609000346074A10B543F87F
:101C9000042B01F1100251F8044B43F8044B91421C
:101CA000F9D10A781A7010BD1096090010B59DF888
:101CB000084044EA032343EA024242EA0161042362
:101CC0004160037510BD13B5CB7800938B784A78CB
:101CD0000978FFF7EBFF02B010BD10B5836804462A
:101CE00013B1032201469847204610BD30B5CA788B
:101CF0008D784C68003A18BF0122C0E90054027286
:101D000030BD13B50B460246D0E900016C4684E8AD
:101D1000030093E8030082E8030094E8030083E8EB
:101D2000030002B010BD0000014B1860704700BFF7
:101D30008C64002008B50B4B43B1FFF733FF0368F9
:101D40001B699847002801DDAFF30080064B43B1C3
:101D5000FFF70AFE03681B699847002801DDAFF30F
:101D6000008008BD000000000000000008B5FFF77B
:101D7000E1FF15F0F3FD014B186008BD38EF0020BE
:101D80000248034A0349121A62F0E0BE00F403203D
:101D900004F40320A4AD0A0007B5002300931A46FB
:101DA0006FF0770120F0B2FF03B05DF804FB000094
:101DB00007B543880A2B08D0502B0BD1094B1B6861
:101DC0004BB103B05DF804EB1847FFF7E5FF03B034
:101DD0005DF804FB002300931A466FF0770120F0B2
:101DE00095FFF4E798BC002038B5124C1248134D0B
:101DF00000211BF021FC2368AB42114B0CBF0122D8
:101E000000221A7002D0FFF7BBFF25600DF0DEF84C
:101E1000044663F057FB0B4B13B12046AFF3008031
:101E2000002108481EF05EFEBDE83840064800214B
:101E300020F062BF00F40320291D03001E1C279A16
:101E400094BC002000000000B11D030010B5044642
:101E5000FFF743FF204610BD10B5044628F0DAFE18
:101E6000844208D01CB1BDE8104028F0B9BEBDE8DE
:101E7000104028F0F1BD10BD70B505460E46144661
:101E800028F0C8FE50B144EA062040EA054028F098
:101E9000DDFDBDE87040E72028F038BE70BDC2B25D
:101EA000C0F30721C0F30740FFF7E6BF0348044A29
:101EB00004490023836061F057BE00BF9CBC002032
:101EC000D8BE00204D1E030010B5044628B163F0B3
:101ED0001DFB90FBF4F303FB1404204610BD884265
:101EE00010B5044603DA081AFFF7EEFF0444204653
:101EF00010BD38B5002383608B6804460D462BB1B6
:101F000002229847EB68E360AB68A360204638BDC7
:101F1000024B1A68024B1A60704700BF005E002037
:101F2000ACBC0020014B024A1A607047B0BC0020D4
:101F3000389609002DE9F84306460C4691461F469F
:101F400015F00CFD002580469FB9336830461B69AB
:101F500098470028F8DD336830465B6998474D455F
:101F6000C1B203D00D2901D00A290AD10023237060
:101F700005E015F0F3FCA0EB0800B842E5D9BDE898
:101F8000F883082901D07F2909D1002DDCD0013C3C
:101F9000013D336830469B68EDB29847D4E704F8BA
:101FA000011B0135F5E7F8B506460D468F180024EC
:101FB000BD420CD0336815F8011B9B68304698472A
:101FC000031E01DB1C44F3E7002C08BF1C4620461F
:101FD000F8BD13B50446084659B10191FEF7EAFF72
:101FE00023680199DB680246204602B0BDE8104034
:101FF000184702B010BD08B5FFF7EBFF08BD036836
:102000009B68184738B50D210546FFF7F8FF0A21F0
:1020100004462846FFF7F3FF204438BD38B505468F
:10202000FFF7D7FF04462846FFF7ECFF204438BDF2
:1020300030B58BB000238DF82430012A98BF0A22D6
:1020400009AC0D46B1FBF2F101FB125303F0FF03A3
:10205000092B94BF30333733DBB2AA4204F8013D79
:10206000EFD92146FFF7B5FF0BB030BD2DE9F041A8
:1020700086B000AF05460E46381D142114463B605D
:1020800064F094FD13280ED8391D2846FFF7A1FFF0
:1020900004461EB12846FFF7B5FF04442046183712
:1020A000BD46BDE8F08100F1080323F00703E846D0
:1020B000ADEB030D2246411C3B68684664F076FD9B
:1020C00069462846FFF785FF0446C546E1E77047A5
:1020D0007047704770470000064B994210B500F1F9
:1020E0000C0405D0084661F057FD002808BF002405
:1020F000204610BD48950900064B994210B500F1E5
:102100000C0405D0084661F047FD002808BF0024F4
:10211000204610BD48950900064B994210B500F1C4
:102120000C0405D0084661F037FD002808BF0024E4
:10213000204610BD48950900483001F09DBA10B501
:102140006021044661F015FD204610BD10B5242124
:10215000044661F00EFD204610BD10B53021044646
:1021600061F007FD204610BD14F0D6BC14F0D4BCBD
:1021700014F0D2BC10B5036804469B689847A36866
:10218000013BA3602BB923682046DB68BDE8104003
:10219000184710BD10B50446006808B115F09FFE41
:1021A000204610BDF0B50025EC1C8C420DD86E1CED
:1021B000445D875D974205D12644B14205D31D6039
:1021C000601CF0BD01342544EEE70020F9E7000073
:1021D00010B500238AB02022CDE902230446084A24
:1021E0000092084902AA012029F086FB20680649CE
:1021F00000880023224610F0BBFF0AB010BD00BFCC
:10220000479609003C9609002132030010B52023AF
:102210008AB00024CDE90234074B009302AA23467A
:1022200006493C2029F068FB054A21460A2028F08F
:102230005DFB0AB010BD00BF639609003C96090023
:10224000C1EC030038B503688B4205460C460CD040
:1022500011B14B6801334B60286828B14368013BDA
:1022600043600BB9FFF786FF2C60284638BDA0F10C
:102270003003DAB2092A01D818467047A0F1610389
:10228000052B01D857387047A0F14103052B94BFA7
:1022900037384FF0FF30704710B500230370044B00
:1022A0000446186815F020FE01232370204610BD57
:1022B000B8BC002010B5037804461BB1024B186867
:1022C00015F021FE204610BDB8BC0020002242605F
:1022D00002608271704708B582798B799A4206D183
:1022E000062262F025FCB0FA80F0400908BD00200B
:1022F000FCE7000001220261064A11680160516892
:1023000041601189927A827200220181C0F80B200B
:10231000C2737047CC8F09000B7C13F0FD0310B51E
:102320000FD10E4AC0F80B30146804605468446042
:102330001489927A036104818272C3730B8883814A
:1023400010BD0123036101F11002034651F8044B53
:1023500043F8044B9142F9D1F2E700BFCC8F09005A
:1023600010B50B69036101F11002034651F8044BEB
:1023700043F8044B9142F9D110BD10B50B46044609
:10238000B1B1012A01F110020AD1014653F8040B40
:1023900041F8040B9342F9D101232361204610BD7B
:1023A000411E12F8010D01F8010F9A42F9D1F3E72D
:1023B000102262F0F3FBF1E710B503460C46FFF77D
:1023C00099FF00221A619C81184610BD10B50B6957
:1023D000036101F11002034651F8044B43F8044B2A
:1023E0009142F9D110BD10B586B00446012201A872
:1023F000FFF7C3FF01A92046FFF7E8FF06B010BDB5
:1024000010B586B0044601A8FFF7D6FF01A9204603
:10241000FFF7DCFF06B010BD10B586B0044601A87A
:10242000FFF77AFF01A92046FFF7D0FF06B010BDE5
:1024300008B502690B699A4206D1102262F078FB56
:10244000B0FA80F0400908BD0020FCE701232DE927
:10245000F3410361324B1A6802605A6842600025FA
:102460001A899B7A028104468372C0F80B50C573A7
:102470000E4621B32421304663F0E5FF042821D124
:10248000ADF8045001AFB51C063615F8020CFFF785
:10249000EEFEB0F1000810DB15F8010CFFF7E7FEC7
:1024A00000280ADB023540EA0810AE4207F8010BAB
:1024B000EBD1BDF804305BBAA3810023236102B0E5
:1024C000BDE8F08110272421304663F0BCFFA8420C
:1024D00006D827440023BC42F1D007F8013DFAE7B3
:1024E000002FECD0705DFFF7C2FE030615D400018B
:1024F000013F5FFA80F804F807802421304663F03A
:10250000A2FF0135A84208D9705DFFF7B0FE40B2C6
:102510000028A4BF40EA0800E0550135D3E700BF1A
:10252000CC8F090013B504460191FFF7E3FE204666
:102530000199FFF78BFF204602B010BD38B5054664
:1025400001B11AB900242C62204638BD1F2A28BFC9
:102550001F22144662F0FAFAF5E72DE9F34789469F
:102560009DF82870016A04461E46904632B301ABBE
:102570004A46FFF717FE256AB31C1FBB10B3EF18BE
:102580003F1A1F2F19D8DDF8049009F1020AA5EBB4
:102590000902121A00EB090106EB0A0092B221446B
:1025A000204462F0E1FA731C04F8093032464146D7
:1025B00004EB0A0062F0CAFA2762216A084602B0F8
:1025C000BDE8F0872B441F2BF7D8731C6355A81C5C
:1025D00025442062324685F801904146204462F04D
:1025E000B5FA236A33442362E7E71FB5044602467F
:1025F00000F11F01002302F8013B9142FBD123624D
:102600000093062201238DF80F2019460DF10F02C9
:102610002046FFF7A2FF204604B010BD2DE9F04F81
:10262000994687B08B1E0025DBB20746884601928B
:102630002C460293396AA94257D905AB4246491B39
:102640007819FFF7AFFD064600284ED04C454CD216
:10265000029B012B22D8A0F1020B4FEA5B0BA9EBE6
:1026600004024FF0000A1423D345059839D092454F
:10267000039236D0284400EB4A003844019A90F87F
:1026800003C0817803FB042041EA0C21FFF7B8FE68
:102690000AF1010A039A01341423E5E7A8F10603BD
:1026A000012B1ED8A0F1020B4FEA1B1BA9EB040261
:1026B0004FF0000A1423D345059912D09245039296
:1026C0000FD00231019A294401EB0A1103FB0420C7
:1026D0003944FFF788FE0AF1010A039A01341423F2
:1026E000E9E7059806443544A4E7204607B0BDE86D
:1026F000F08F2DE9E04313460E4617460A460221A5
:102700008046FFF78BFF4FF014093B1A09FB00626C
:10271000054603214046FFF781FF05447B1B09FB6B
:10272000056206214046FFF779FF05447B1B09FB44
:10273000056207214046FFF771FF2844BDE8E083AA
:1027400038B54FF6FF730025044643800E22294614
:1027500005700571063062F021FA04F11400FFF7EC
:10276000C9FD04F12800FFF7C5FD044904F13C0050
:1027700000F0CDFFC4E91355204638BD176A0A00A2
:1027800010B5D0E9063203EBC2029342184606D0D8
:10279000046824888C4203F10803F6D110BD0020A0
:1027A000FCE70000002370B503600546602014F0CC
:1027B000AFF9041E04F10C0607D00123C4E901336C
:1027C000044B23603046FFF7BBFFC5E90064284691
:1027D00070BD00BF3498090010B502680446D06C83
:1027E00018B10B68D864126D1A6520460B6840F862
:1027F000043B4968FFF726FD204610BD10B503686D
:102800001A7886B052BB5C884FF6FF70844225D0A0
:10281000188A30B31448009014480592CDE9032279
:10282000CDE901035888ADF80C00188AADF80E0008
:102830009889ADF8100059B11A79920644BF022266
:1028400005921B79DB0642BF059B43F0010305930C
:102850000021684610F09EFF06B010BD6FF0D10059
:10286000FAE76FF07700F7E7010018008D2B0300FF
:102870000368C3E91312704770B50026066004466A
:10288000242014F045F9031E03F10C0508D00122A1
:10289000C3E90122044A1A602846FFF72BFD1E6295
:1028A000C4E90053204670BD509809002DE9F04757
:1028B000202390B00026CDE908360D46374B009313
:1028C0003749DFF8E090334608AA012029F014F8D0
:1028D0002B68D3E903474FF01C0804EBC707083403
:1028E000A4F108039F42296819D0ADF8228054F85A
:1028F000083C9B8AADF8383054F8083CDB8AADF8C8
:102900003A30088800962B464A4608A910F062FC27
:10291000002804F10804E3DA10B0BDE8F087D1E93B
:102920000647DFF88480DFF8789004EBC7070026BD
:102930000834A4F108039F422ED054F8083CDB89E8
:1029400043B3102200210DEB0200039662F026F93A
:1029500054F8083CD9892B680DF10C0A18880096A8
:102960001323524610F068FCA0B110AB1844514636
:1029700000F8346C54F8080C3C3000F01EFF2023A3
:10298000CDE90836CDE9008A002308AA494601208E
:1029900028F0B2FF0834CCE70020BDE77A960900A2
:1029A0003C9609003D3503009D96090038B500248A
:1029B00004600546302014F0ABF8034688B10122CC
:1029C000C0E90122094A02604FF6FF7282810E308F
:1029D000FFF77CFCC3E90644C3E90844C3E90A44A1
:1029E000DC826B600C332B60284638BD6C98090084
:1029F00010B50B68044640F8043B4968FFF722FC19
:102A0000204610BD2DE9F0430368D3E9064387B0A3
:102A10000E46174604EBC3084445A14614D054F8AB
:102A2000081B01A81431FFF79BFC394601A8FFF7EA
:102A3000FFFC05460028EFD049463046FFF7CCFEA4
:102A4000284607B0BDE8F0830025F9E70368188839
:102A50004FF6FF73C01A18BF0120704702680B6859
:102A6000C2F802304B68C2F806307047096851F866
:102A7000022F02604A68426070471FB50B4601682A
:102A80001A680988128891420CD101466846FFF7FE
:102A9000EDFF02A81946FFF7E9FF02A96846FFF714
:102AA0001AFC00B9002005B05DF804FB30B50546FE
:102AB0008BB0342014F02CF8044668B10023C0E930
:102AC0000033C0E90233C0E90433C0E90633C0E98A
:102AD0000833C0E90A3303632C607CB92023CDE9B5
:102AE0000234154B1549009302AA3C20234628F0D6
:102AF00003FF134A21460A2027F0F8FE002010F0B9
:102B00008BFD80B100242023CDE902340D4B0B490D
:102B1000009302AA3C20234628F0EEFE084A2146F4
:102B20000A2027F0E3FE2968074800220FF0C6FEBE
:102B300028460BB030BD00BF639609003C960900E3
:102B4000C1EC0300B39609006D2E030010B50B4CC9
:102B50002378BFF35B8FDB070ED4204612F0A6F973
:102B600050B10748FFF7A2FF204612F001FA054ACC
:102B70000549034860F0F8FF014810BDB4BC0020CF
:102B8000BCBC0020D8BE0020F92C030070B503683F
:102B9000093B012B8AB004460D4612D8FFF7D6FF39
:102BA000A1880068FFF7ECFD024660B92023CDE95B
:102BB0000230094B00930949034602AA322028F04B
:102BC0009BFE0AB070BDEE6C002EFAD0D4E9031063
:102BD0002B6DB047F5E700BFF59609003C9609005C
:102BE00013B501A8FFF758FB002010F015FD0446AF
:102BF00001A8FFF75FFB04EAE47002B010BD00001B
:102C000030B58BB00D4601A81446FFF745FBCDB19A
:102C1000C4B100220C48049202A9CDE90554CDE9C3
:102C20000222CDE90722099210F024F9041E02982D
:102C3000A8BF079C61F062FF01A8FFF73BFB20469D
:102C40000BB030BD014CF7E7D92F0300F2FEFFFFB8
:102C500010B551F8043B044640F8043BFEF7B5FEBE
:102C600023680BB9FFF7D2FA204610BD10B551F812
:102C7000043B044640F8043BFEF7A7FE204610BD87
:102C800010B504460430FEF7A7FE204610BD10B56F
:102C900004460430FEF7A0FE204610BD70B5D0E912
:102CA0000053044605EBC306AE4204D0281DFEF7D0
:102CB00093FE0835F8E7206861F020FF204670BDDC
:102CC00070B5D0E90053044605EBC306AE4204D00C
:102CD000281DFEF781FE0835F8E7206861F00EFF39
:102CE000204670BD10B504462430FFF7E9FF04F11B
:102CF0001800FFF7D3FF10BDF8B504680646C4B14D
:102D0000D4E9065305EBC307AF4204D0281DFEF7F4
:102D100063FE0835F8E7A06961F0F0FE04F10C00ED
:102D2000FFF7CEFF2046FFF7B9FF3421204660F0C1
:102D300020FF3046F8BD8842F8B506460C461546D9
:102D400018D9904217D2A2F10805A1F10807691A13
:102D50004418AF4220D02E1D34B120462B6840F8D5
:102D6000043B3146FEF731FE3046FEF735FE083DA6
:102D7000083CEEE710D0AC420ED0271D36B13046ED
:102D8000236840F8043B3946FEF71FFE3846FEF73D
:102D900023FE08340836EEE7F8BD2DE9F041D0E90E
:102DA00000430546884604EBC307A7421AD04146B4
:102DB0002046FFF762FE064608B90834F5E79CB1E5
:102DC000201DFEF709FED5E9003204F1080103EBEE
:102DD000C2022046FFF7AFFF6B68013B6B603046D5
:102DE000BDE8F0810026FAE72646F8E7F7B5044685
:102DF00051F8043B4768009301A8FEF7E6FDD4E9CB
:102E000001639E4212DB0136002E2CDDF00061F0E2
:102E10006DFE054608B3D4E9001201EBC202FFF7CC
:102E20008AFF206861F06AFE2560A66026686268F5
:102E300006EBC70506EBC202294605F10800FFF7BD
:102E40007AFF35B1009B46F8373001A9281DFEF7FF
:102E5000BCFD636801336360012501A8FEF7BCFD7A
:102E6000284603B0F0BD0025DBE700002DE9F04166
:102E700004468EB003A80D46FFF70EFA2368032B15
:102E800007D0042B48D003A8FFF714FA0EB0BDE812
:102E9000F08104A8FFF78AFD049B22891A806268EA
:102EA000049952F8083FC1F802305368C1F806305F
:102EB00007A8049B069305A9FEF787FD06A905F15F
:102EC0001800FFF793FF044607A8FEF785FD2023AF
:102ED00006938CB9334B344900933220234606AA1B
:102EE000079428F009FD049B2146188810F06AF821
:102EF00005A8FEF771FDC6E72C4A009200232A4977
:102F0000079306AA012028F0F7FC6B6A002BEFD08C
:102F1000E96A04A89847EBE721892846FFF730FCC7
:102F200006460028AFD00468D4E906314FF6FF7298
:102F3000228003EBC101994203D053F8080B428071
:102F4000F9E7D4E9037307EBC308B84504D0381D8B
:102F5000FEF742FD0837F8E700232361D4E9067342
:102F600007EBC308B84504D0381DFEF735FD083718
:102F7000F8E70023E3616381AB6A13B1296B304644
:102F8000984700232022CDE90623094A00920649EA
:102F900006AA012028F0B0FC314605F11800FFF721
:102FA000FCFE70E70D9709003C9609003397090075
:102FB0005097090038B50D1E0446006805DD542100
:102FC000694362F0FBFA18B938BD61F097FD002043
:102FD0002060A5600120F7E7F0B55426C3B0054690
:102FE00032460C4603A8002161F0D8FD03A8FFF784
:102FF0006DF905A8FFF7F9FA0EA8FFF7F6FA2A46C9
:1030000003AB52F8100F5168EA8903C32B78A96803
:103010008DF85C300EA8FFF791FAAA89696805A8B7
:10302000FFF78CFAA56935B1E16903A8A847636980
:10303000013363611FE0E068F8B1D4E904239342EF
:1030400019D25A1C626106FB0300512203A961F0E8
:103050007DFDD4E904329A420DD32023CDE92D35EC
:103060001A4B009301201A492B462DAA28F044FC44
:1030700028460FF02DFF43B0F0BD324603A918A833
:1030800061F064FD324618A92DA8656861F05EFD07
:10309000A3689D4205DB691C2046FFF78BFF0028D3
:1030A000E9D05427266862687D432E447A43521B38
:1030B0003146F01961F058FD3A462DA9304661F0CD
:1030C00045FD636801336360B1E700BF6F97090096
:1030D0003C9609008842F8B504460D46164614D9B8
:1030E000904213D2A2F10806751AA1F108072C44E8
:1030F000B74218D01CB131462046FFF7B7FD301D4E
:10310000FEF76AFC083E083CF2E70CD0B5420AD054
:103110001CB129462046FFF7A9FD281DFEF75CFCDF
:1031200008350834F2E7F8BD70B50E1E054611DD0E
:10313000F00061F0DBFC044658B1D5E9001201EB68
:10314000C202FFF7C7FF286861F0D8FC2C60AE60B0
:10315000012070BD0024F6E72DE9F0410023C0E90D
:10316000003383600D4649689942044613DDFFF73A
:10317000DBFF80B1D5E90063276806EBC308B045E3
:1031800007D01FB131463846FFF770FD08360837C3
:10319000F5E76B6863602046BDE8F08138B50B68E1
:1031A0009B7A05460C4633B90846FFF711F810B96B
:1031B000236801229A72216828460C31FFF7CCFF60
:1031C000284638BD73B5044645686846FFF74EFD8E
:1031D000D4E90113994210DA2368626803EBC5054C
:1031E00003EBC202294605F10800FFF773FF8DB912
:1031F000636801336360012606E001312046FFF772
:1032000093FF06460028E7D101A8FEF7E5FB30460C
:1032100002B070BD69462846FFF728FDE8E70000C8
:103220002DE9F043DFF88080DFF880908DB0044610
:103230000F4600262368B34233D902A8FFF71CFBD0
:103240001C2561680298754329440431FFF7E4F8AE
:103250006368029A2B4402A91B8B938263681D4406
:103260006B8BD382386800F10C0504A8FFF7FEFCD5
:10327000284604A9FFF7A6FF054605A8FEF7ACFB04
:1032800055B92023CDE90435CDF800802B4604AA9A
:103290004946322028F030FB03A8FEF79DFB01369B
:1032A000C8E70DB0BDE8F083A09709003C9609007F
:1032B0008842F8B504460D46164614D9904213D2FA
:1032C000A2F10806751AA1F108072C44B74218D0DC
:1032D0001CB131462046FFF7BBFC301DFEF77CFBDE
:1032E000083E083CF2E70CD0B5420AD01CB1294692
:1032F0002046FFF7ADFC281DFEF76EFB08350834AD
:10330000F2E7F8BD70B50E1E054611DDF00061F064
:10331000EDFB044658B1D5E9001201EBC202FFF7FC
:10332000C7FF286861F0EAFB2C60AE60012070BD29
:103330000024F6E72DE9F0410023C0E90033836063
:103340000D4649689942044613DDFFF7DBFF80B163
:10335000D5E90063276806EBC308B04507D01FB165
:1033600031463846FFF774FC08360837F5E76B68D6
:1033700063602046BDE8F08130B50B689B7A85B06C
:1033800005460C462BB901A8FFF708FF01A8FFF777
:1033900085FC2368DB7A3BB9214601A8FFF786FA52
:1033A00010B923680122DA72216828461831FFF724
:1033B000C1FF284605B030BD2DE9F04391B0054668
:1033C0000F460868496805929846384B02934FF0BB
:1033D000000903AB08AC03C483E80300CDE90699F8
:1033E000FFF7B4FB324B0693FFF7B0FB2968036885
:1033F00007934A4602A80FF08FFD08AE044638B185
:103400002B684FF6FF721A80204611B0BDE8F0839A
:1034100039462846FFF722FBFFF798FB2946076845
:1034200051F8043B0893183709A8FEF7CEFA314645
:103430003846FFF7DBFC074609A8FEF7CDFA202344
:10344000CDE9083497B91B4B1B49009332462346FC
:10345000322028F051FA2B6821461888174C0FF0BB
:10346000B1FD2B684FF6FF721A80CDE7144B009325
:10347000114923463246012028F03EFAB8F1000FE8
:10348000C2D029463046FFF777FFDDE9085305EB48
:10349000C307AF4205D028460121FFF7AFF9083531
:1034A000F7E73046FFF70CFCAEE700BF010018005D
:1034B0006D2E0300C59709003C960900FCFEFFFF36
:1034C000E197090013B50446CDE90032FFF76EFA23
:1034D000009B019900222046FFF76EFF204602B0B4
:1034E00010BD73B5044645686846FFF7B1FBD4E9E3
:1034F0000113994210DA2368626803EBC50503EBF8
:10350000C202294605F10800FFF7D2FE8DB96368B3
:1035100001336360012606E001312046FFF7F2FE29
:1035200006460028E7D101A8FEF756FA304602B059
:1035300070BD69462846FFF78BFBE8E72DE9F043AD
:10354000DFF80481DFF804918DB004460F460026B1
:103550002368B34275D902A8FFF724F9029B228998
:103560005A80636802982A2575432B4414305B7E89
:1035700013F0020F1EBF10F8103C43F0020300F8D6
:10358000103C63682B445B7E5B0742BF10F8103C25
:1035900043F0040300F8103C63682B445B7E19077A
:1035A00042BF10F8103C43F0080300F8103C636879
:1035B0002B445B7EDA0642BF10F8103C43F0100348
:1035C00000F8103C63682B445B7E9B0642BF10F8FA
:1035D000103C43F0200300F8103C6168294404319A
:1035E000FEF71AFF6368029A1D4402A9EB8B138150
:1035F0002B8C53816B8C9381AB8CD381EB8C13829E
:103600002B8D5382386800F1180504A8FFF720FBC2
:10361000284604A9FFF765FF054605A8FEF7DCF973
:1036200055B92023CDE90435CDF800802B4604AAF6
:103630004946322028F060F903A8FEF7CDF901369B
:1036400086E70DB0BDE8F083FE9709003C960900BF
:1036500010B5064C00232046236014F036FC2046AB
:10366000034A0449BDE8104060F07EBAB8BC0020AF
:10367000D8BE00209521030010B50446006861F013
:103680003DFA204610BD10B50446006808B161F04F
:1036900035FA0023C4E90133236010BD38B5044670
:1036A0000D460068013161F089FF10B1C4E90005E1
:1036B000012038BD10B50368044623B143688B422E
:1036C00001D3012010BD2046FFF7E8FF0028F9D004
:1036D000A368002BF5D122681370F2E737B50D46C9
:1036E000114601920446FFF7E5FF019A28B92046EA
:1036F000FFF7C9FF204603B030BDA260294620680D
:1037000061F024FA2268A3680021D154F2E7002373
:1037100013B5C0E9003304468360037341B1084622
:103720000191FDF747FC019902462046FFF7D6FFBD
:10373000204602B010BD38B5054600680C4668B199
:103740006A688B689A4207D3096862F09FF8A36899
:10375000AB600023A36038BD61F0D0F923682B6013
:1037600063686B60A368AB600023C4E90033F1E7D2
:1037700010B50023C0E90033044683600373FFF7EC
:10378000DAFF204610BD884210B5044605D00B680C
:103790002BB18A681946FFF7A1FF204610BDFFF73D
:1037A00072FFFAE710B500230446C0E900338360D6
:1037B0000373FFF7E8FF204610BD13B5044659B167
:1037C00008460191FDF7F6FB019902462046FFF7F6
:1037D00085FF204602B010BDFFF755FFF9E770B531
:1037E00005460E4609B9002070BD6AB184681444CC
:1037F0002146FFF75FFF0028F5D02868AB68314607
:10380000184462F043F8AC600120EDE707B50023EF
:103810008DF80410012201A98DF80530FFF7DFFFB4
:1038200003B05DF804FB00000EB470B587B00BADBB
:10383000044655F8042B01922B46052104A8039554
:1038400063F0B4F90B4906462046FFF760FF3146A6
:103850002046FFF72FFF206830B1019A03952B46D1
:10386000711C63F0A3F9A060204607B0BDE870406A
:1038700003B07047176A0A0010B50446FDF79AFBBB
:10388000013823182046834206D90278197800F8B7
:10389000011B03F80129F6E710BD70B50C46911E17
:1038A0002229054622D820466DB1B5FBF2F602FB6F
:1038B0001655E9B2092D94BF30315731C9B200F81D
:1038C000011B3546F0E7024623443021934202D9DA
:1038D00002F8011BFAE71A1A834238BF00220023BC
:1038E00083542046FFF7C8FF204670BD0020FCE748
:1038F00038B5031E0C4615460EDAB3F1004F4FF0F3
:103900002D0214BF5842184601230A702A46194452
:10391000FFF7C3FF204638BD0123F9E707B50022B2
:1039200003460092114604201BF0A4FE03B05DF88C
:1039300004FB07B5002203460092114602201BF04B
:1039400099FE03B05DF804FB08B1024B1868FFF75D
:10395000F0BF00BFCCBC002007B50B4600210246DB
:10396000009101208C211BF085FE03B05DF804FB63
:1039700001460020FFF7F0BF0020FFF7F9BF07B5B1
:10398000002203460092114603201BF073FE03B091
:103990005DF804FB10B5094B094C022200201A60A7
:1039A000084B2060A080A071A3601BF033FE20466E
:1039B000054A0649BDE8104060F0D6B8CCBC0020EE
:1039C000C0BC00200000FFFFD8BE0020C5110300CE
:1039D0000022406811461DF026BF002240681146B3
:1039E0001DF01FBF406800221DF01ABF4068002272
:1039F00081F001011EF02EB8002340681A461946D6
:103A00001DF0D8BF002340681A4619461DF0AEBF0E
:103A10000022406811461DF093BE00224068114606
:103A20001DF0D6BE4068002202211DF041BF0023D8
:103A300040681A461EF0C4B8024B03225A60024A7C
:103A40001A607047D0BC0020889809000048704771
:103A5000045E00201FB5024600230520ADF80D309E
:103A60008DF80C008DF80F3002FA00F0084B012998
:103A7000185A03EB421407D103AB0093A37805490E
:103A800013F0EEFF04B010BD14F098F8FAE700BF91
:103A900044600020D93A030007B50D4B03EB4012F8
:103AA00000219180DA783AB993F8233003F0FF02CD
:103AB00013B9084B1A705A60C0B20021019021F06E
:103AC00069FA0198012103B05DF804EBFFF7C2BF6A
:103AD00044600020D8BC0020084BC0B203EB401368
:103AE00010B5002101249980DC70FFF7B3FF044B6F
:103AF0001A7812B90A221C705A6010BD4460002066
:103B0000D8BC002008B54001024B185A0BF017FA38
:103B1000C0B208BD4460002010B52D4B1A78002AB1
:103B200050D05A68002A4DD05A68013A5A605868F5
:103B3000002847D1274C0A225A60E3780BB3FFF7DD
:103B4000E1FFF0B9A3889BB233B9A3880A339BB2D3
:103B50000121A38021F01EFAA3880A339BB2A3801F
:103B6000238CFF2B2ED094F8233093B994F8233074
:103B700043B3002384F823300120BDE81040FFF751
:103B80008BBFE378002BEBD00020E070FFF784FFC1
:103B9000E6E70120FFF7B6FF94F822305A1E5342A1
:103BA000534183420FD1A38C9BB23BB9A38C01211B
:103BB0000A339BB20846A38421F0ECF9A38C0A33A4
:103BC0009BB2A38410BD238CFF2BCFD1FAE700BF9B
:103BD000D8BC0020446000202DE9F0411A4C227826
:103BE00005460F4602F0FF030AB923706360174EC3
:103BF00006EB45134FEA45189B7836F80800012B71
:103C00000CBF032102210BF05DF9012F03D13946CE
:103C10002846FFF71FFF36F80830FF2B06EB080792
:103C20000FD02846FFF76EFFBB785A1E5342534110
:103C3000834206D10123FB70227812B923700A2334
:103C40006360BDE8F08100BFD8BC00204460002064
:103C5000024B03EB4010808880B270474460002024
:103C6000232870B504460E460CD8FFF7EFFE00EB94
:103C70000415EB78B34204D0062B02D1204610F095
:103C8000E7FDEE7070BD000008B5054B588B10F0D5
:103C900072FE012303FA00F0013880B208BD00BFB4
:103CA0008460002038B518230C4A58430C46135C36
:103CB000012B02EB00050FD12B79D9070CD5FFF7AB
:103CC000E3FF2A79034692072146688848BF191BFB
:103CD000BDE8384010F0DEBE38BD00BF8460002073
:103CE00070B50D460646014601201446FFF7DAFF7F
:103CF00029460220FFF7D6FF21460320FFF7D2FF17
:103D000031460520FFF7CEFF29460620FFF7CAFF00
:103D100021460720BDE87040FFF7C4BF70B5184DBD
:103D20000646FFF7B1FF2B7F13F0020F0446688BA6
:103D30001CD010F01BFE201A80B2308095F8343071
:103D4000688E13F0020F14D010F010FE201A80B20B
:103D5000708095F84C30B5F84A0013F0020F0BD084
:103D600010F004FE241AA0B2B08070BD10F0FEFD69
:103D7000E3E710F0FBFDEBE710F0F8FDF4E700BF20
:103D800084600020064B1A7902F0020210B91AB9B9
:103D9000002102E0002AFBD1012158880BF0A4B8D1
:103DA0008460002010B5064B5C8820460BF0C7F8F5
:103DB000B0FA80F149092046BDE810400BF094B8F4
:103DC0008460002038B518230B4A58431518145C3A
:103DD000012C0FD1688821460BF074F82B79688884
:103DE00013F0020FC3F3400118BF2146BDE838406D
:103DF0000BF07AB838BD00BF84600020034B1B78FD
:103E00001BB1034B187848F099BB7047E1BC002008
:103E1000E0BC0020044B00221A60044A012111601A
:103E20001A68002AFCD070470091024000900240BE
:103E300010B503682F2B8AB0044614D90023202222
:103E4000CDE902230E4BCBB1AFF3008001460D4B01
:103E5000009302AA3C20002327F04EFD0A4A0021CD
:103E60000A2026F043FD23681F2B85BF074803F077
:103E70001F034FF0A04023600AB010BD0449E6E7DD
:103E800000000000E8980900C1EC030000030050A6
:103E9000E49809000B4611460246184647F03ABE20
:103EA00010B5FFF7B7FF0021084614F033F8FFF70D
:103EB000B1FF47F0D5FD00210446012014F02AF897
:103EC000112CF0D0204610BD38B504460D46FFF742
:103ED000A1FF0021084614F01DF8FFF79BFF002208
:103EE0002946204647F0EEFC00210446012014F04C
:103EF00011F8204638BD07B500238DF800008DF875
:103F0000011068461146ADF80230ADF80430FFF7F5
:103F1000DBFF03B05DF804FB13B514F05FF9112467
:103F200047F0BAFD01A80194FFF782FF019B03F55A
:103F3000E073032240F8232068460094FFF778FFDF
:103F4000009A01239340C0F80835152301A8019376
:103F5000FFF76EFF019B03F5E073042240F8232076
:103F6000064B4FF40072C3F88421054B00241C70EB
:103F700014F068F9204602B010BD00BF00E100E077
:103F8000E2BC00201FB50446CDE9022114F026F959
:103F9000074B0093DDE90221064B204614F08BF914
:103FA0000446FFF77DFF14F04DF9204604B010BD24
:103FB000A9820400953E03002DE9F3470E4606F161
:103FC000030929F003091546A9EB0607044614F076
:103FD00005F9AF4294BFEF1B6F1B37F0030719D0F1
:103FE00024F0030A52463946484647F019FE8046F7
:103FF00028BB4E4501D1544509D0AAEB04010F441A
:10400000A4EB0A013A464944304660F0ADFD3C4419
:104010003E44ED1BCDB1611924F003070331C91BE8
:104020003A4621F00301684647F0FAFD804630B970
:10403000E41B2A460DEB0401304660F087FD14F0C6
:1040400001F9404602B0BDE8F087A846F7E7F8B5A9
:1040500004460F4614F0C2F824F47F6424F00F04E1
:104060000026BE4204EB063104D1002514F0EAF824
:104070002846F8BD002047F059FE05460028F5D136
:10408000FFF70EFF0136ECE70128F8B506460C46AF
:1040900017461D461DD1CB18B3F5007F1CD814F070
:1040A0009DF800223146B120FFF725FF70B9204668
:1040B0002A463946FFF780FF044600220121C1202D
:1040C000FFF719FF14F0BEF82046F8BD6FF00204A8
:1040D000F3E74FF0FF34F7E76FF00104F4E730B592
:1040E000044685B00D4614F079F8002C3BD101232D
:1040F0008DF80930022D40F20113ADF80A30ADF809
:104100000C3024D1B923002102A88DF80830FFF724
:10411000DBFE0446B0B9052D14D19923014602A84F
:104120008DF80830FFF7D0FE044658B940238DF8CB
:10413000043001A940F2012302A8ADF80830FFF7CE
:10414000C3FE044614F07EF8204605B030BD032DB2
:1041500001D1AB23D7E7042D01D1B023D3E7052D3F
:104160000DD16623CFE7012C09D1012D07D102AA79
:1041700002212F208DF80850FFF7BDFEE1E74FF038
:10418000FF34DFE730B593B011240AA80A94FFF793
:104190004FFE0A9B394D03F5E073032240F82320BC
:1041A00003A80394FFF744FE039A01239340C0F849
:1041B0000835152304A80493FFF73AFE049B03F582
:1041C000E073042240F8232014F008F80FCD05AC6A
:1041D0000FC400222B682360114605A847F094FA0B
:1041E0000D28274D21D020210023CDE90A13002DD1
:1041F0003FD12449244B00930AAA0023012027F031
:104200007BFB224B01221A70002300931A460321E4
:104210001846FFF764FF044600BB009003460246C1
:104220000521FFF75CFF044618E020220023CDE9BA
:104230000A23E5B1AFF300800146154B00930AAAAB
:104240000023012027F058FB002300931A46042185
:104250001846FFF744FF04460028C4D013F0F2FFCD
:10426000002C0CBF20466FF0F90013B030BD05499B
:10427000E3E7AFF300800146BCE700BFDC8F090035
:1042800000000000E498090039990900E2BC002010
:104290000C99090037B5204D044613F09FFF2B7889
:1042A00094B3012B06D013F0CDFF6FF0D10420465C
:1042B00003B030BD002300931A4602211846FFF7D1
:1042C0000EFFC8B100231A46009304211846FFF7D9
:1042D00006FF00231A46009305211846FFF7FFFE4C
:1042E000002300931A4602211846FFF7F8FE044601
:1042F00010B113F0A7FFDAE7FFF70EFE02232B70D1
:1043000013F0A0FF0024D2E7022BCCD1FFF73AFF35
:1043100004460028F4D0ECE7E2BC002001F00701DD
:1043200070B5C1F10704CD1C032C28BF0324062D52
:104330008CBF043900214FF0FF3520FA01F605FA51
:1043400004F405FA01F126EA040420EA01001460ED
:10435000186070BD10B5094C002304F1140084F8F6
:104360003030E36284F82530A36284F831304AF0BB
:104370004EFD201DBDE810404AF049BD2CBE002076
:104380000028ABBF00F1604000F00F0000F5614075
:10439000034BACBF90F80003185C4009704700BFA6
:1043A00014ED00E0044B5978814204D09A6B5870A8
:1043B0000AB1D96B104770472CBE00202DE9F04F91
:1043C0001C4C94F830308BB003F0FF079BB1E268CF
:1043D0002169E36A0B449B1A2289934228D8DFF8AB
:1043E0005C80DFF85CA0DFF85CB0002504F1040914
:1043F000E36A9D4203D338460BB0BDE8F08F18F84E
:10440000011B48464AF0CFFC80B100262023CDE9AD
:10441000023602AA59463C20CDF800A0334627F0C8
:104420006BFA054A31460A2026F060FA0135DFE7CB
:104430000027E0E72CBE0020C1EC03006CBD00208B
:10444000579909004B99090010B50C480C4C4CF0D9
:104450002EFA0122E06284F83020002284F8312014
:10446000E26A2AB9002384F830300120E36210BDEB
:10447000FFF7A4FF0028FAD0F4E700BF749A090000
:104480002CBE0020F8B5124C94F82430D3B194F827
:104490003130BBB994F8303003F0FF0793B90D4DBC
:1044A0000D492E8C0D4846F0010380222B844CF0E0
:1044B00003FA922807D10123E76284F8307084F868
:1044C00031302E84F8BD0028FBD1FFF7BDFFF8E79F
:1044D0002CBE0020E4BC00206CBD0020749A0900B2
:1044E00008B50C4B93F82420824212D083F82400A4
:1044F00060B103F114004AF08AFC074A138C43F0C0
:1045000001031384BDE80840FFF7BCBF986283F83D
:10451000250008BD2CBE0020E4BC00202DE9F74397
:10452000294C2A4D94F824302F8CE3B194F825308F
:10453000CBB1A36A5A1CA26240F6C312934212D9AD
:104540000026812044F0ECFA304684F82560FFF71D
:10455000C7FF2B8C1E491F4843F0010332462B84B2
:104560004CF084F92F8494F824304BB394F8253020
:1045700003F0FF0623BBE269236A9A4220D0DFF8EA
:104580005080DFF854900DF1070148464AF01DFCB9
:1045900030B901369DF8073008F8013B402EF2D1C2
:1045A0000023A3622B8C0A490A4843F001033246D8
:1045B0002B844CF05BF910B9012384F825302F844B
:1045C00003B0BDE8F08300BF2CBE0020E4BC002097
:1045D000ECBD0020749A090040BE00200F2810B5E1
:1045E0000BD80F280BD8DFE800F00B7411310A0A42
:1045F0000A0A5A62790A0A434D45812848D010BDFB
:10460000FFF740FFBDE81040FFF788BF0820FFF725
:10461000C9FE0020FFF764FF812044F081FA0120E9
:1046200044F07EFA324B002283F8252083F83120B3
:10463000304BC3E91E22C3E920225A62DA6203F139
:1046400034025A67BDE810404AF01EBE4BF0E6FB4C
:10465000052896BF284B0020185CFFF7A3FE254BCA
:104660001B8CDB07CBD50120BDE81040FFF738BF1E
:10467000FFF770FE4BF0D2FB052896BF1E4B0020C3
:10468000185C06E04AF0E4FD194B93F8403023B182
:104690000220BDE81040FFF785BE0120F9E743F096
:1046A000CFFB0028ABD1BDE810404AF0CFBD43F0AE
:1046B000C7FB0F4C28B14AF0DDFD002084F8310023
:1046C000D2E794F84030002BF7D00220FFF76AFEC3
:1046D000F3E7074B002083F83100C5E7044B93F85C
:1046E0004030002B8BD0BDE810404AF0B3BD00BF76
:1046F0002CBE0020E4BC00206D9A090030B587B0C4
:10470000EFF31183EFF3108212B1002007B030BD38
:104710005A092DD1194B9B68002BF6D1184A5368C2
:10472000C3F3080313B35368C3F30803372BA3F190
:104730001004EAD0D1682720C1F302210191FFF7CC
:104740001FFE054660B2FFF71BFE0199044603AB4E
:1047500002AA2846FFF7E2FD05AB04AA019920460C
:10476000FFF7DCFD029A049B9A42CED20120CDE7EE
:104770002720FFF705FE8242CCD8C6E784BE002082
:1047800000ED00E0F0B5334E34788FB0002C48D106
:1047900049F0D0FA852810D078B12023CDE906342D
:1047A0002D4B2E49009306AA3C20234627F0A4F85F
:1047B0002B4A21460A2026F099F8002049F0D6FA23
:1047C00049F04EFB0028FBD003AF00240C213846F3
:1047D000CDE90344059412F005FC05461922EDB21B
:1047E0002048214660F0DAF9182D1E4A28BF182506
:1047F000A54219D81C484AF0A5FC80B1002420230A
:10480000CDE90634144B1549009306AA3C202346F3
:1048100027F072F8124A21460A2026F067F8012391
:10482000337000200FB0F0BD3B5D180900F130017E
:10483000392988BF00F1570103F00F0302F8021B6A
:1048400003F13001392988BF03F1570102F8011C37
:104850000134CDE72CBE0020AD9909004B99090029
:10486000C1EC030082D00120989A090070B5284C51
:104870001E46A378012B8AB015463FD00A46014652
:10488000201D4AF081FA00283BD12946324604F126
:1048900014004AF079FA0546002835D11D484AF03F
:1048A000FDFC78B12023CDE902351B4B1B49009359
:1048B00002AA3C202B4627F01FF8194A29460A2055
:1048C00026F014F813484AF037FD00200FF00AFED6
:1048D0004AF0A4FC80B100252023CDE902350E4B1F
:1048E0000E49009302AA3C202B4627F005F80C4AFB
:1048F00029460A2025F0FAFF0123A37000200AB000
:1049000070BD4FF0FF30FAE76FF00100F7E700BF2E
:104910002CBE0020749A0900AD9909004B9909003A
:10492000C1EC03002DE9F0471F4C6378072B8AB0D8
:1049300007460E4602D194F824306BBB4FF0FF308F
:1049400027E094F82430002BF8D0FFF7D7FE00289A
:10495000F4D0E269236A9B1A228B9342F1D8795DE5
:1049600040464AF020FA80B100232022CDE90223FC
:10497000514602AA3C20CDF8009026F0BDFF00234E
:104980000A4A19460A2025F0B1FF0135AE423046E9
:10499000DFDC0AB0BDE8F087DFF81490DFF814A080
:1049A000002504F11408F1E72CBE0020C1EC03003F
:1049B000D19909004B990900014B9861704700BFDC
:1049C000E4BC0020014B9869704700BFE4BC0020A4
:1049D00010B504292CD8DFE801F021150B100300D5
:1049E000144B5A6B22B3FFF7EDFFBDE810401047A0
:1049F0000120BDE81040FFF773BD0E4B002083F887
:104A00003100F6E70B4B0022012083F825209A6243
:104A1000FFF766FDBDE81040FFF780BD0120FFF7FE
:104A20005FFDFFF711FD18B1BDE81040FFF72ABD8B
:104A300010BD00BF2CBE002010B50D4B93F84020D8
:104A400002F0FF049AB90122022083F84020FFF708
:104A5000A9FCFFF77FFC2046FFF742FD43F0F0F989
:104A600008B94AF0F3FBBDE810404AF0F3BB10BDB3
:104A70002CBE002008B50E4B93F84020B2B10022A6
:104A800083F8402043F0DCF908B14AF0F3FB43F02F
:104A9000D7F908B14AF0DCFB0120FFF783FCFFF7F0
:104AA00059FCBDE808400020FFF71ABD08BD00BF53
:104AB0002CBE0020034AD0681169D36A0B44181A2F
:104AC000704700BF2CBE002010B58CB0FFF776FCFD
:104AD000134B18B10022DA6283F83020DA681B69C0
:104AE00000249A428DF80F4015D00E480DF10F01A9
:104AF0004AF06BF978B12023CDE904340A4B0B4915
:104B0000009304AA3C20234626F0F6FE084A2146DC
:104B10000A2025F0EBFE9DF80F000CB010BD00BF81
:104B20002CBE002030BE0020209A09004B990900BD
:104B3000C1EC030013B50146002407488DF8074077
:104B40000DF107024AF052F918B99DF8070002B0BA
:104B500010BD2046FBE700BF30BE002008B5FFF7C0
:104B6000CDFD58B1064B93F824203AB1D9691A6AA1
:104B7000914203D093F82520002AF4D108BD00BF4C
:104B80002CBE0020064B93F8242032B1DA69188B32
:104B9000196A531C1844401A70474FF0FF30704791
:104BA0002CBE0020014B5863704700BF2CBE002074
:104BB000BFF34F8F0549064BCA6802F4E062134306
:104BC000CB60BFF34F8F00BFFDE700BF00ED00E0FB
:104BD0000400FA0534DF704735DF704718DF70478F
:104BE00013DF704708B54BF059FFBDE8084020F0CF
:104BF00031BA000037B5144B5B68C3F308030446B1
:104C00000D46F3B904220DEB020140F2DA60019384
:104C100012F0A6FB88B9019B23420CBF012200229F
:104C2000AA420AD05DB123EA0403042240F2DA6109
:104C30000DEB0200019312F0C9FB03B030BD23431A
:104C4000F3E74FF0FF30F8E700ED00E037B50D4B2C
:104C50005B68C3F3080305460C4683B904220DEBD9
:104C6000020140F2DA60019312F07AFB28B9019B4D
:104C70001D420CBF01230023237003B030BD4FF051
:104C8000FF30FAE700ED00E013B500240DF1070155
:104C900004208DF80740FFF7D9FF18B99DF80700E9
:104CA00002B010BD2046FBE71EF0040F0CBFEFF36F
:104CB0000880EFF309808169004A1047DD4D030049
:104CC00000B58FB0039004910592039B049B059B54
:104CD00020220023CDE90623094B7BB1AFF30080EE
:104CE0000146084B009306AA3C20002326F004FE50
:104CF000054A0021012025F0F9FDFEE70349F0E710
:104D000000000000A49A0900C1EC0300E498090027
:104D100000B500238BB02022CDE90223094B7BB1E3
:104D2000AFF300800146084B009302AA3C20002309
:104D300026F0E2FD054A0021012025F0D7FDFEE71F
:104D40000349F0E700000000A49A0900C1EC030049
:104D5000E498090000B500238BB02022CDE902239E
:104D6000094B7BB1AFF300800146084B009302AAC8
:104D70003C20002326F0C0FD054A0021042025F038
:104D8000B5FDFEE70349F0E700000000AE9A090018
:104D9000C1EC0300E498090000B500238BB0202289
:104DA000CDE90223094B7BB1AFF300800146084BEC
:104DB000009302AA3C20002326F09EFD054A002114
:104DC000052025F093FDFEE70349F0E70000000011
:104DD000B79A0900C1EC0300E498090000B593B04C
:104DE000036802934368039383680493C36805933D
:104DF000036906934369079383690893C369099319
:104E00000E4B9B6A13F0007301D0FFF7C5FF202201
:104E1000CDE90A230A4B7BB1AFF300800146094B71
:104E200000930AAA3C20002326F066FD064A0021D2
:104E3000012025F05BFDFEE70449F0E700ED00E00E
:104E400000000000A49A0900C1EC0300E4980900E6
:104E5000014B024ADA637047005C0020E54B030017
:104E600010B54FF00053194A1A604FF0FF325A60E4
:104E7000174B8EB000249C6002A80223CDE90344A6
:104E800005940293FFF7AAFE98B12023CDE90634DA
:104E9000104BCBB1AFF3008001460F4B009306AA35
:104EA0003C20002326F028FD0C4A00210A2025F092
:104EB0001DFD0648FFF794FE49F06AFD49F0E6FD46
:104EC0000028FBD00EB010BD0549E6E7005C0020CD
:104ED00000ED00E000000000AD990900C1EC030006
:104EE000E49809001FB504200FF03EFE1B4B1C493F
:104EF00001221A701B4B1C4A1846D21A5FF026FE7C
:104F00001A4A90602BF052FD002012F0E3FBFFF7ED
:104F1000A7FF0AF041F82BF027FEFFF7B5FEA0B17E
:104F2000E72025F017FE03230E22CDE901320022EF
:104F30004FF4442300934FF091514FF44033104607
:104F40002BF00FFF05B05DF804FB6FF07F4025F0FC
:104F500077FDE72025F0DAFDE5E700BF2E190120F7
:104F600000000300005C0020005E002000ED00E077
:104F700008B512F029F808B1FFF71AFE0AF026F872
:104F800060F0A0FA11F006FFBDE80840FCF72CBF66
:104F900038B505460020FEF75BFE04460120FEF70B
:104FA00057FEA84204D2AC4234BF0020012038BDD5
:104FB0000120FCE708B5024BC3E90101FFF7F8FD4A
:104FC00080F3032008B5074B6FF055021A735A732C
:104FD0002BF0E6FD044B64210022C3E90112FFF728
:104FE000E7FD00BFC0F3032080F3032008B5054BA5
:104FF0006E2245F6FE21C3E9001200229A60FFF7F7
:10500000D7FD00BF80F3032008B50B4C78B14FF6F5
:10501000FF736362094B4FF0FF321A725A722BF022
:10502000BFFD78220023C4E90123FFF7C1FD4EF63E
:10503000FA532360F5E700BF80F30320C0F3032099
:1050400013B5174B5B6901930133044602D101A8E4
:10505000FFF7C0FD601E05281FD8DFE800F0030A37
:105060000D1019190198012814BF0020012002B069
:1050700010BD01980428F7E701980228F4E7019889
:10508000B0F5803F02D0B0F5003FEDE70120EEE73C
:105090000198B0FA80F04009E9E70020E7E700BF97
:1050A000C0F3032010B1044B1B68036011B1024B25
:1050B0005B680B600020704774BE002000222BF05C
:1050C00081BD704700B5114B18688BB0D8B14EF652
:1050D00060213FF0AFFCB0B92023CDE902300C4B8A
:1050E0007BB1AFF3008001460A4B009302AA3C203B
:1050F000002326F001FC084A00210E2025F0F6FBD3
:10510000FEE70649F0E70BB05DF804FB7CBE00202B
:1051100000000000C29A0900C1EC0300E4980900F5
:10512000024B186808B13FF0F7BA70477CBE002008
:1051300038B51E4B1E4C01251D70FFF719FF0220CC
:10514000FFF77EFF78B11B4B5A6822609A68626055
:105150000022C3E901224FF0FF30FFF73DFDBDE81B
:10516000384020F085B90320FFF76AFF20B13C23C7
:10517000236000236360EEE70420FFF761FF08B1BE
:105180001E23F5E70520FFF75BFF08B12823EFE7B3
:105190000620FFF755FF08B13223E9E72846FFF75D
:1051A0004FFF08B11423E3E70A23E1E780BE0020A4
:1051B00074BE002080F30320FFF7BABF07B50420B8
:1051C0003FF0BEFA0A4B0B4918600B4B01930223C8
:1051D00000934FF4C062002308483FF037FEFFF70A
:1051E00053FD08B125F0FCFC3FF05AFFFEE700BF7D
:1051F0007CBE0020D99A090070BE0020B95103007E
:1052000007B50338042819D8DFE800F0070318149D
:1052100016000120FFF7EEFC09E049428DF8071067
:10522000012240F6A1310DF1070012F0CFF803B0D2
:105230005DF804FB0220EDE70420EBE74FF0FF30C0
:10524000F5E7062813B50BD006D8033801288CBF24
:105250000020012002B010BD07280ED00020F9E781
:1052600000240DF1070102208DF80740FFF7EEFC46
:105270000028F3D19DF80700ECE7FFF705FDE9E70B
:10528000013809289CBF024B43F82010704700BF2B
:1052900080F30320013809289ABF034B53F82000FC
:1052A0004FF0FF30704700BF80F3032010B58AB085
:1052B000044668465FF07AFC089B636023880F2BE6
:1052C00017D90D480D49132BA0EB0101E16010D94E
:1052D000009A2261172B0CD9059A62611B2B08D901
:1052E000074A1F2BA2EB0002A26102D903F0DAF9F0
:1052F000E06100200AB010BD00E80320C4D0012006
:1053000000E8032018B1012804D000207047034BA7
:1053100098887047014B987C704700BFC0F303200A
:1053200072B600207047000010B5044630B9E42A78
:1053300004D104485FF00AFC204610BD4FF0FF3056
:10534000FBE700BF00F0032038B50D46044658B90E
:10535000E32A09D906490A88E42A05D11A602846B1
:105360005FF0F4FB204638BD4FF0FF30FBE700BF95
:1053700000F00320EFF31180402383F3118870477E
:1053800080F311887047EFF311830370A02383F338
:105390001188704780F311887047000013B50F4CD7
:1053A00013462278BAB90122227000940A460146B7
:1053B0000B4848F0D6FF58B92378012BFCD0207851
:1053C000003818BF012040420023237002B010BDF6
:1053D0004FF0FF30F8E74FF0FF30F7E790BE0020C6
:1053E0004861002010B543688EB004461BB300230B
:1053F0002022CDE90623114BDBB1AFF300802178E9
:105400000F4A104B012918BF134622690492A26863
:1054100003926268CDE901320B4B009306AA002388
:105420000146322026F068FA636902221A700EB033
:1054300010BD0648E3E742691370F8E7000000007A
:10544000589B09008AC209005E9B0900E498090084
:1054500030B58DB012F040FE1F492048204D00228B
:1054600048F071FF20210023CDE904130446002DEC
:105470002ED0AFF300800146184B5A681268039291
:105480001A690292DB680193164B009304AA002369
:10549000012026F031FA20220023CDE90423CDB1EA
:1054A000AFF300800146104A104B002C18BF134682
:1054B00001930F4B009304AA0023012026F01CFA4D
:1054C00012F02EFE201E18BF012040420DB030BD4C
:1054D0000849D1E70749E6E7D05F0A0048610020A4
:1054E000000000009E9B0900969B0900939B090009
:1054F000C79B0900E49809007FB5CDE90410039229
:1055000012F0EAFD074B0093DDE90321064B0598F5
:1055100012F0D1FE039012F003FE039807B05DF87D
:1055200004FB00BFA98204009D530300F7B5174C8C
:105530000191064612F0D0FD2378254603F0FF07BF
:1055400003BB012326F47F612370019A1048234690
:1055500021F00F0148F033FF38B127706FF00104DC
:1055600012F0DEFD204603B0F0BD2B78012BFCD0FD
:105570002B7803F0FF04002BF2D000232B706FF088
:105580000204EDE74FF0FF34EAE700BF90BE0020D1
:105590004861002013B50446CDE9002112F09CFDBE
:1055A000009A019821465FF0D1FA12F0B9FD00206F
:1055B00002B010BD3FF0C0BD08B54BF04FFA01205E
:1055C00008BD4BF05DBA000010B5044650B9134B4E
:1055D00013491448D3225FF05DFF20465EF0C4FFFC
:1055E0005EF0D8FE04203FF0ABF80F4A206038B9D7
:1055F000B2F81A310133A2F81A314FF0FF3010BD62
:10560000B2F81631B2F8181101339BB29942A2F8E0
:10561000163138BFA2F818310020F0E7DF9B0900EF
:10562000FE9B09000C9C090050C9012008B50848E0
:10563000FFF7CAFF50B1074B074908487A225FF0CD
:1056400029FF00205EF090FF5EF0A4FE08BD00BFC1
:1056500094BE0020DF9B0900349C09000C9C0900CB
:1056600010B550B90E4B0F49E2220F485FF012FF00
:1056700000205EF079FF5EF08DFE04681CB9084BD7
:105680000A49E322F1E74FF0FF3120463FF0D2F91B
:10569000012803D0024B0649E622E6E710BD00BF11
:1056A000DF9B0900FE9B09000C9C09005B9C090024
:1056B0006E9C090010B550B90D4B0E49F0220E48F2
:1056C0005FF0E8FE00205EF04FFF5EF063FE0468CE
:1056D0001CB9074B0949F122F1E720463FF01CF8BD
:1056E000012803D0024B0649F422E8E710BD00BFB1
:1056F000DF9B0900FE9B09000C9C09005B9C0900D4
:10570000879C090038B50D46044658B91F4B2049FF
:105710004FF485721F485FF0BDFE00205EF024FF4D
:105720005EF038FE012904D9184B1B4940F20B12D8
:10573000F0E70322002101203EF02EFF174A2060EF
:1057400038B9B2F814310133A2F814314FF0FF30F8
:1057500038BDB2F81031B2F8121101339BB2994240
:1057600038BFA2F81231012DA2F810310CD100235C
:1057700020681A4619463EF033FF012804D0034B37
:10578000074940F21712C5E70020E1E7DF9B090057
:10579000E99C09000C9C0900A09C090050C901204B
:1057A000C39C090010B558B9104B114940F225129D
:1057B00010485FF06FFE00205EF0D6FE5EF0EAFD5E
:1057C000046824B9094B0C494FF49372F0E70023A5
:1057D0001A46194620463EF003FF012804D9034B20
:1057E00006494FF49572E3E710BD00BFDF9B090047
:1057F000E99C09000C9C0900E49C0900F59C090047
:1058000038B558B9174B18494FF49B7217485FF0D9
:1058100041FE00205EF0A8FE5EF0BCFD046824B9E5
:10582000104B134940F23712F0E759B94FF0FF31EE
:1058300020463FF069F801280ED00A4B4FF49E72C3
:105840000C49E3E720463FF05FF838B1012803D068
:10585000044B4FF4A272F3E7012038BD4FF0FF3044
:10586000FBE700BFDF9B0900E99C09000C9C0900D5
:10587000E49C0900179D090038B5044658B9114B3E
:10588000114912484FF4A8725FF004FE20465EF002
:105890006BFE5EF07FFD056845B90A4B0C490B486D
:1058A00040F251125FF0F6FD2846F0E7094AB2F8DF
:1058B0001031013BA2F8103100683FF002F90023DB
:1058C000236038BDDF9B0900E99C09000C9C09009E
:1058D000E49C090050C9012010B50B46044658B994
:1058E000184B194940F25B1218485FF0D3FD0020B5
:1058F0005EF03AFE5EF04EFD002904DC114B1449C7
:105900004FF4AE72F0E70022042118463EF044FE48
:10591000104A206038B9B2F820310133A2F82031A2
:105920004FF0FF3010BDB2F81C31B2F81E11013338
:105930009BB29942A2F81C3138BFA2F81E31002058
:10594000F0E700BFDF9B09002F9D09000C9C0900B8
:105950003C9D090050C9012013B5019158B9164B5F
:1059600016494FF4BD7216485FF094FD00205EF0BA
:10597000FBFD5EF00FFD046824B90F4B114940F2A6
:105980007B12F0E700231A4601A920463EF028FECC
:1059900001280FD020B1084B0B4940F28112E2E7F9
:1059A0000A4AB2F820310133A2F820314FF0FF301B
:1059B00002B010BD0020FBE7DF9B09002F9D09000E
:1059C0000C9C0900459D0900689D090050C90120F3
:1059D00073B50C46154658B91A4B1B4940F2A11233
:1059E0001A485FF057FD00205EF0BEFD5EF0D2FC6D
:1059F000066826B9134B16494FF4D172F0E701B986
:105A000001AC65B94FF0FF32214630463EF002FF4F
:105A1000012815D00B4B40F2AB120E49E0E72A46A5
:105A2000214630463EF0F6FE20B920604FF0FF30B0
:105A300002B070BD012803D0024B4FF4DA72ECE7DC
:105A40000120F5E7DF9B09002F9D09000C9C090050
:105A5000459D09007C9D090037B50C4658B9134B8C
:105A600013494FF4E17213485FF014FD00205EF01B
:105A70007BFD5EF08FFC056825B90C4B0E4940F2AA
:105A8000C312F0E701B901AC0022214628463EF0DE
:105A9000C1FE20B920604FF0FF3003B030BD0128B7
:105AA000FBD0024B05494FF4E772DCE7DF9B0900AE
:105AB0002F9D09000C9C0900459D09007C9D090053
:105AC00010B5044658B90E4B0E4940F2D9120E4893
:105AD0005FF0E0FC20465EF047FD5EF05BFC046892
